{
  "contracts/AntugrowEscrow.sol": {
    "AntugrowEscrow": {
      "abi": [
        {
          "inputs": [
            {
              "internalType": "address",
              "name": "_token",
              "type": "address"
            }
          ],
          "stateMutability": "nonpayable",
          "type": "constructor"
        },
        {
          "inputs": [],
          "name": "ReentrancyGuardReentrantCall",
          "type": "error"
        },
        {
          "anonymous": false,
          "inputs": [
            {
              "indexed": false,
              "internalType": "uint256",
              "name": "loanId",
              "type": "uint256"
            },
            {
              "indexed": false,
              "internalType": "address",
              "name": "investor",
              "type": "address"
            },
            {
              "indexed": false,
              "internalType": "uint256",
              "name": "amount",
              "type": "uint256"
            }
          ],
          "name": "LoanCreated",
          "type": "event"
        },
        {
          "anonymous": false,
          "inputs": [
            {
              "indexed": false,
              "internalType": "uint256",
              "name": "loanId",
              "type": "uint256"
            },
            {
              "indexed": false,
              "internalType": "uint256",
              "name": "amount",
              "type": "uint256"
            }
          ],
          "name": "LoanRepaid",
          "type": "event"
        },
        {
          "inputs": [
            {
              "internalType": "uint256",
              "name": "_amount",
              "type": "uint256"
            },
            {
              "internalType": "uint256",
              "name": "_duration",
              "type": "uint256"
            }
          ],
          "name": "createLoan",
          "outputs": [],
          "stateMutability": "nonpayable",
          "type": "function"
        },
        {
          "inputs": [
            {
              "internalType": "address",
              "name": "_investor",
              "type": "address"
            }
          ],
          "name": "getInvestorLoans",
          "outputs": [
            {
              "internalType": "uint256[]",
              "name": "",
              "type": "uint256[]"
            }
          ],
          "stateMutability": "view",
          "type": "function"
        },
        {
          "inputs": [
            {
              "internalType": "uint256",
              "name": "_loanId",
              "type": "uint256"
            }
          ],
          "name": "getLoanDetails",
          "outputs": [
            {
              "components": [
                {
                  "internalType": "address",
                  "name": "investor",
                  "type": "address"
                },
                {
                  "internalType": "uint256",
                  "name": "amount",
                  "type": "uint256"
                },
                {
                  "internalType": "uint256",
                  "name": "repaidAmount",
                  "type": "uint256"
                },
                {
                  "internalType": "uint256",
                  "name": "dueDate",
                  "type": "uint256"
                },
                {
                  "internalType": "bool",
                  "name": "isActive",
                  "type": "bool"
                }
              ],
              "internalType": "struct AntugrowEscrow.Loan",
              "name": "",
              "type": "tuple"
            }
          ],
          "stateMutability": "view",
          "type": "function"
        },
        {
          "inputs": [
            {
              "internalType": "address",
              "name": "",
              "type": "address"
            },
            {
              "internalType": "uint256",
              "name": "",
              "type": "uint256"
            }
          ],
          "name": "investorLoans",
          "outputs": [
            {
              "internalType": "uint256",
              "name": "",
              "type": "uint256"
            }
          ],
          "stateMutability": "view",
          "type": "function"
        },
        {
          "inputs": [],
          "name": "loanIdCounter",
          "outputs": [
            {
              "internalType": "uint256",
              "name": "",
              "type": "uint256"
            }
          ],
          "stateMutability": "view",
          "type": "function"
        },
        {
          "inputs": [
            {
              "internalType": "uint256",
              "name": "",
              "type": "uint256"
            }
          ],
          "name": "loans",
          "outputs": [
            {
              "internalType": "address",
              "name": "investor",
              "type": "address"
            },
            {
              "internalType": "uint256",
              "name": "amount",
              "type": "uint256"
            },
            {
              "internalType": "uint256",
              "name": "repaidAmount",
              "type": "uint256"
            },
            {
              "internalType": "uint256",
              "name": "dueDate",
              "type": "uint256"
            },
            {
              "internalType": "bool",
              "name": "isActive",
              "type": "bool"
            }
          ],
          "stateMutability": "view",
          "type": "function"
        },
        {
          "inputs": [],
          "name": "owner",
          "outputs": [
            {
              "internalType": "address",
              "name": "",
              "type": "address"
            }
          ],
          "stateMutability": "view",
          "type": "function"
        },
        {
          "inputs": [
            {
              "internalType": "uint256",
              "name": "_loanId",
              "type": "uint256"
            },
            {
              "internalType": "uint256",
              "name": "_amount",
              "type": "uint256"
            }
          ],
          "name": "repayLoan",
          "outputs": [],
          "stateMutability": "nonpayable",
          "type": "function"
        },
        {
          "inputs": [],
          "name": "token",
          "outputs": [
            {
              "internalType": "contract IERC20",
              "name": "",
              "type": "address"
            }
          ],
          "stateMutability": "view",
          "type": "function"
        }
      ],
      "evm": {
        "bytecode": {
          "linkReferences": {},
          "object": "608060405234801561001057600080fd5b5060405161099238038061099283398101604081905261002f91610062565b6001600081905580546001600160a01b039092166001600160a01b03199283161790556002805490911633179055610092565b60006020828403121561007457600080fd5b81516001600160a01b038116811461008b57600080fd5b9392505050565b6108f1806100a16000396000f3fe608060405234801561001057600080fd5b50600436106100935760003560e01c806398cd90b51161006657806398cd90b5146101595780639d939d161461016c578063a65d808614610175578063e1ec3c6814610195578063fc0c546a1461021457600080fd5b8063654cb04e1461009857806366877b8d146100be5780638a700b53146101195780638da5cb5b1461012e575b600080fd5b6100ab6100a6366004610786565b610227565b6040519081526020015b60405180910390f35b6100d16100cc3660046107b0565b610258565b6040516100b5919081516001600160a01b0316815260208083015190820152604080830151908201526060808301519082015260809182015115159181019190915260a00190565b61012c6101273660046107c9565b6102ef565b005b600254610141906001600160a01b031681565b6040516001600160a01b0390911681526020016100b5565b61012c6101673660046107c9565b61050a565b6100ab60035481565b6101886101833660046107eb565b6106d4565b6040516100b5919061080d565b6101e06101a33660046107b0565b6004602081905260009182526040909120805460018201546002830154600384015493909401546001600160a01b03909216939092909160ff1685565b604080516001600160a01b03909616865260208601949094529284019190915260608301521515608082015260a0016100b5565b600154610141906001600160a01b031681565b6005602052816000526040600020818154811061024357600080fd5b90600052602060002001600091509150505481565b6102956040518060a0016040528060006001600160a01b031681526020016000815260200160008152602001600081526020016000151581525090565b50600090815260046020818152604092839020835160a08101855281546001600160a01b031681526001820154928101929092526002810154938201939093526003830154606082015291015460ff161515608082015290565b6102f7610740565b60008281526004602081905260409091209081015460ff166103555760405162461bcd60e51b81526020600482015260126024820152714c6f616e206973206e6f742061637469766560701b60448201526064015b60405180910390fd5b6001546040516323b872dd60e01b8152336004820152306024820152604481018490526001600160a01b03909116906323b872dd906064016020604051808303816000875af11580156103ac573d6000803e3d6000fd5b505050506040513d601f19601f820116820180604052508101906103d09190610851565b61040e5760405162461bcd60e51b815260206004820152600f60248201526e151c985b9cd9995c8819985a5b1959608a1b604482015260640161034c565b818160020160008282546104229190610889565b909155505060018101546002820154106104c1576004818101805460ff191690556001805483549184015460405163a9059cbb60e01b81526001600160a01b03938416948101949094526024840152169063a9059cbb906044016020604051808303816000875af115801561049b573d6000803e3d6000fd5b505050506040513d601f19601f820116820180604052508101906104bf9190610851565b505b60408051848152602081018490527f040cee90ee4799897c30ca04e5feb6fa43dbba9b6d084b4b257cdafd84ba013e91015b60405180910390a1506105066001600055565b5050565b610512610740565b6001546040516323b872dd60e01b8152336004820152306024820152604481018490526001600160a01b03909116906323b872dd906064016020604051808303816000875af1158015610569573d6000803e3d6000fd5b505050506040513d601f19601f8201168201806040525081019061058d9190610851565b6105cb5760405162461bcd60e51b815260206004820152600f60248201526e151c985b9cd9995c8819985a5b1959608a1b604482015260640161034c565b60038054600091826105dc836108a2565b9190505590506040518060a00160405280336001600160a01b031681526020018481526020016000815260200183426106159190610889565b815260016020918201819052600084815260048084526040808320865181546001600160a01b0319166001600160a01b03909116178155868601518186015586820151600282015560608088015160038301556080909701519201805460ff19169215159290921790915533808352600585528183208054948501815583529184902090920185905581518581529283015281018590527f8910ba13a55695f056e224bbbc6b65d866b12a8c2fbdf387fb853a1cca298cd791016104f3565b6001600160a01b03811660009081526005602090815260409182902080548351818402810184019094528084526060939283018282801561073457602002820191906000526020600020905b815481526020019060010190808311610720575b50505050509050919050565b60026000540361076357604051633ee5aeb560e01b815260040160405180910390fd5b6002600055565b80356001600160a01b038116811461078157600080fd5b919050565b6000806040838503121561079957600080fd5b6107a28361076a565b946020939093013593505050565b6000602082840312156107c257600080fd5b5035919050565b600080604083850312156107dc57600080fd5b50508035926020909101359150565b6000602082840312156107fd57600080fd5b6108068261076a565b9392505050565b6020808252825182820181905260009190848201906040850190845b8181101561084557835183529284019291840191600101610829565b50909695505050505050565b60006020828403121561086357600080fd5b8151801515811461080657600080fd5b634e487b7160e01b600052601160045260246000fd5b8082018082111561089c5761089c610873565b92915050565b6000600182016108b4576108b4610873565b506001019056fea264697066735822122027fe3a314473cacc90008a46513168f96e8afa0c3893a077e40c770db49967c464736f6c63430008180033",
          "opcodes": "PUSH1 0x80 PUSH1 0x40 MSTORE CALLVALUE DUP1 ISZERO PUSH2 0x10 JUMPI PUSH1 0x0 DUP1 REVERT JUMPDEST POP PUSH1 0x40 MLOAD PUSH2 0x992 CODESIZE SUB DUP1 PUSH2 0x992 DUP4 CODECOPY DUP2 ADD PUSH1 0x40 DUP2 SWAP1 MSTORE PUSH2 0x2F SWAP2 PUSH2 0x62 JUMP JUMPDEST PUSH1 0x1 PUSH1 0x0 DUP2 SWAP1 SSTORE DUP1 SLOAD PUSH1 0x1 PUSH1 0x1 PUSH1 0xA0 SHL SUB SWAP1 SWAP3 AND PUSH1 0x1 PUSH1 0x1 PUSH1 0xA0 SHL SUB NOT SWAP3 DUP4 AND OR SWAP1 SSTORE PUSH1 0x2 DUP1 SLOAD SWAP1 SWAP2 AND CALLER OR SWAP1 SSTORE PUSH2 0x92 JUMP JUMPDEST PUSH1 0x0 PUSH1 0x20 DUP3 DUP5 SUB SLT ISZERO PUSH2 0x74 JUMPI PUSH1 0x0 DUP1 REVERT JUMPDEST DUP2 MLOAD PUSH1 0x1 PUSH1 0x1 PUSH1 0xA0 SHL SUB DUP2 AND DUP2 EQ PUSH2 0x8B JUMPI PUSH1 0x0 DUP1 REVERT JUMPDEST SWAP4 SWAP3 POP POP POP JUMP JUMPDEST PUSH2 0x8F1 DUP1 PUSH2 0xA1 PUSH1 0x0 CODECOPY PUSH1 0x0 RETURN INVALID PUSH1 0x80 PUSH1 0x40 MSTORE CALLVALUE DUP1 ISZERO PUSH2 0x10 JUMPI PUSH1 0x0 DUP1 REVERT JUMPDEST POP PUSH1 0x4 CALLDATASIZE LT PUSH2 0x93 JUMPI PUSH1 0x0 CALLDATALOAD PUSH1 0xE0 SHR DUP1 PUSH4 0x98CD90B5 GT PUSH2 0x66 JUMPI DUP1 PUSH4 0x98CD90B5 EQ PUSH2 0x159 JUMPI DUP1 PUSH4 0x9D939D16 EQ PUSH2 0x16C JUMPI DUP1 PUSH4 0xA65D8086 EQ PUSH2 0x175 JUMPI DUP1 PUSH4 0xE1EC3C68 EQ PUSH2 0x195 JUMPI DUP1 PUSH4 0xFC0C546A EQ PUSH2 0x214 JUMPI PUSH1 0x0 DUP1 REVERT JUMPDEST DUP1 PUSH4 0x654CB04E EQ PUSH2 0x98 JUMPI DUP1 PUSH4 0x66877B8D EQ PUSH2 0xBE JUMPI DUP1 PUSH4 0x8A700B53 EQ PUSH2 0x119 JUMPI DUP1 PUSH4 0x8DA5CB5B EQ PUSH2 0x12E JUMPI JUMPDEST PUSH1 0x0 DUP1 REVERT JUMPDEST PUSH2 0xAB PUSH2 0xA6 CALLDATASIZE PUSH1 0x4 PUSH2 0x786 JUMP JUMPDEST PUSH2 0x227 JUMP JUMPDEST PUSH1 0x40 MLOAD SWAP1 DUP2 MSTORE PUSH1 0x20 ADD JUMPDEST PUSH1 0x40 MLOAD DUP1 SWAP2 SUB SWAP1 RETURN JUMPDEST PUSH2 0xD1 PUSH2 0xCC CALLDATASIZE PUSH1 0x4 PUSH2 0x7B0 JUMP JUMPDEST PUSH2 0x258 JUMP JUMPDEST PUSH1 0x40 MLOAD PUSH2 0xB5 SWAP2 SWAP1 DUP2 MLOAD PUSH1 0x1 PUSH1 0x1 PUSH1 0xA0 SHL SUB AND DUP2 MSTORE PUSH1 0x20 DUP1 DUP4 ADD MLOAD SWAP1 DUP3 ADD MSTORE PUSH1 0x40 DUP1 DUP4 ADD MLOAD SWAP1 DUP3 ADD MSTORE PUSH1 0x60 DUP1 DUP4 ADD MLOAD SWAP1 DUP3 ADD MSTORE PUSH1 0x80 SWAP2 DUP3 ADD MLOAD ISZERO ISZERO SWAP2 DUP2 ADD SWAP2 SWAP1 SWAP2 MSTORE PUSH1 0xA0 ADD SWAP1 JUMP JUMPDEST PUSH2 0x12C PUSH2 0x127 CALLDATASIZE PUSH1 0x4 PUSH2 0x7C9 JUMP JUMPDEST PUSH2 0x2EF JUMP JUMPDEST STOP JUMPDEST PUSH1 0x2 SLOAD PUSH2 0x141 SWAP1 PUSH1 0x1 PUSH1 0x1 PUSH1 0xA0 SHL SUB AND DUP2 JUMP JUMPDEST PUSH1 0x40 MLOAD PUSH1 0x1 PUSH1 0x1 PUSH1 0xA0 SHL SUB SWAP1 SWAP2 AND DUP2 MSTORE PUSH1 0x20 ADD PUSH2 0xB5 JUMP JUMPDEST PUSH2 0x12C PUSH2 0x167 CALLDATASIZE PUSH1 0x4 PUSH2 0x7C9 JUMP JUMPDEST PUSH2 0x50A JUMP JUMPDEST PUSH2 0xAB PUSH1 0x3 SLOAD DUP2 JUMP JUMPDEST PUSH2 0x188 PUSH2 0x183 CALLDATASIZE PUSH1 0x4 PUSH2 0x7EB JUMP JUMPDEST PUSH2 0x6D4 JUMP JUMPDEST PUSH1 0x40 MLOAD PUSH2 0xB5 SWAP2 SWAP1 PUSH2 0x80D JUMP JUMPDEST PUSH2 0x1E0 PUSH2 0x1A3 CALLDATASIZE PUSH1 0x4 PUSH2 0x7B0 JUMP JUMPDEST PUSH1 0x4 PUSH1 0x20 DUP2 SWAP1 MSTORE PUSH1 0x0 SWAP2 DUP3 MSTORE PUSH1 0x40 SWAP1 SWAP2 KECCAK256 DUP1 SLOAD PUSH1 0x1 DUP3 ADD SLOAD PUSH1 0x2 DUP4 ADD SLOAD PUSH1 0x3 DUP5 ADD SLOAD SWAP4 SWAP1 SWAP5 ADD SLOAD PUSH1 0x1 PUSH1 0x1 PUSH1 0xA0 SHL SUB SWAP1 SWAP3 AND SWAP4 SWAP1 SWAP3 SWAP1 SWAP2 PUSH1 0xFF AND DUP6 JUMP JUMPDEST PUSH1 0x40 DUP1 MLOAD PUSH1 0x1 PUSH1 0x1 PUSH1 0xA0 SHL SUB SWAP1 SWAP7 AND DUP7 MSTORE PUSH1 0x20 DUP7 ADD SWAP5 SWAP1 SWAP5 MSTORE SWAP3 DUP5 ADD SWAP2 SWAP1 SWAP2 MSTORE PUSH1 0x60 DUP4 ADD MSTORE ISZERO ISZERO PUSH1 0x80 DUP3 ADD MSTORE PUSH1 0xA0 ADD PUSH2 0xB5 JUMP JUMPDEST PUSH1 0x1 SLOAD PUSH2 0x141 SWAP1 PUSH1 0x1 PUSH1 0x1 PUSH1 0xA0 SHL SUB AND DUP2 JUMP JUMPDEST PUSH1 0x5 PUSH1 0x20 MSTORE DUP2 PUSH1 0x0 MSTORE PUSH1 0x40 PUSH1 0x0 KECCAK256 DUP2 DUP2 SLOAD DUP2 LT PUSH2 0x243 JUMPI PUSH1 0x0 DUP1 REVERT JUMPDEST SWAP1 PUSH1 0x0 MSTORE PUSH1 0x20 PUSH1 0x0 KECCAK256 ADD PUSH1 0x0 SWAP2 POP SWAP2 POP POP SLOAD DUP2 JUMP JUMPDEST PUSH2 0x295 PUSH1 0x40 MLOAD DUP1 PUSH1 0xA0 ADD PUSH1 0x40 MSTORE DUP1 PUSH1 0x0 PUSH1 0x1 PUSH1 0x1 PUSH1 0xA0 SHL SUB AND DUP2 MSTORE PUSH1 0x20 ADD PUSH1 0x0 DUP2 MSTORE PUSH1 0x20 ADD PUSH1 0x0 DUP2 MSTORE PUSH1 0x20 ADD PUSH1 0x0 DUP2 MSTORE PUSH1 0x20 ADD PUSH1 0x0 ISZERO ISZERO DUP2 MSTORE POP SWAP1 JUMP JUMPDEST POP PUSH1 0x0 SWAP1 DUP2 MSTORE PUSH1 0x4 PUSH1 0x20 DUP2 DUP2 MSTORE PUSH1 0x40 SWAP3 DUP4 SWAP1 KECCAK256 DUP4 MLOAD PUSH1 0xA0 DUP2 ADD DUP6 MSTORE DUP2 SLOAD PUSH1 0x1 PUSH1 0x1 PUSH1 0xA0 SHL SUB AND DUP2 MSTORE PUSH1 0x1 DUP3 ADD SLOAD SWAP3 DUP2 ADD SWAP3 SWAP1 SWAP3 MSTORE PUSH1 0x2 DUP2 ADD SLOAD SWAP4 DUP3 ADD SWAP4 SWAP1 SWAP4 MSTORE PUSH1 0x3 DUP4 ADD SLOAD PUSH1 0x60 DUP3 ADD MSTORE SWAP2 ADD SLOAD PUSH1 0xFF AND ISZERO ISZERO PUSH1 0x80 DUP3 ADD MSTORE SWAP1 JUMP JUMPDEST PUSH2 0x2F7 PUSH2 0x740 JUMP JUMPDEST PUSH1 0x0 DUP3 DUP2 MSTORE PUSH1 0x4 PUSH1 0x20 DUP2 SWAP1 MSTORE PUSH1 0x40 SWAP1 SWAP2 KECCAK256 SWAP1 DUP2 ADD SLOAD PUSH1 0xFF AND PUSH2 0x355 JUMPI PUSH1 0x40 MLOAD PUSH3 0x461BCD PUSH1 0xE5 SHL DUP2 MSTORE PUSH1 0x20 PUSH1 0x4 DUP3 ADD MSTORE PUSH1 0x12 PUSH1 0x24 DUP3 ADD MSTORE PUSH18 0x4C6F616E206973206E6F7420616374697665 PUSH1 0x70 SHL PUSH1 0x44 DUP3 ADD MSTORE PUSH1 0x64 ADD JUMPDEST PUSH1 0x40 MLOAD DUP1 SWAP2 SUB SWAP1 REVERT JUMPDEST PUSH1 0x1 SLOAD PUSH1 0x40 MLOAD PUSH4 0x23B872DD PUSH1 0xE0 SHL DUP2 MSTORE CALLER PUSH1 0x4 DUP3 ADD MSTORE ADDRESS PUSH1 0x24 DUP3 ADD MSTORE PUSH1 0x44 DUP2 ADD DUP5 SWAP1 MSTORE PUSH1 0x1 PUSH1 0x1 PUSH1 0xA0 SHL SUB SWAP1 SWAP2 AND SWAP1 PUSH4 0x23B872DD SWAP1 PUSH1 0x64 ADD PUSH1 0x20 PUSH1 0x40 MLOAD DUP1 DUP4 SUB DUP2 PUSH1 0x0 DUP8 GAS CALL ISZERO DUP1 ISZERO PUSH2 0x3AC JUMPI RETURNDATASIZE PUSH1 0x0 DUP1 RETURNDATACOPY RETURNDATASIZE PUSH1 0x0 REVERT JUMPDEST POP POP POP POP PUSH1 0x40 MLOAD RETURNDATASIZE PUSH1 0x1F NOT PUSH1 0x1F DUP3 ADD AND DUP3 ADD DUP1 PUSH1 0x40 MSTORE POP DUP2 ADD SWAP1 PUSH2 0x3D0 SWAP2 SWAP1 PUSH2 0x851 JUMP JUMPDEST PUSH2 0x40E JUMPI PUSH1 0x40 MLOAD PUSH3 0x461BCD PUSH1 0xE5 SHL DUP2 MSTORE PUSH1 0x20 PUSH1 0x4 DUP3 ADD MSTORE PUSH1 0xF PUSH1 0x24 DUP3 ADD MSTORE PUSH15 0x151C985B9CD9995C8819985A5B1959 PUSH1 0x8A SHL PUSH1 0x44 DUP3 ADD MSTORE PUSH1 0x64 ADD PUSH2 0x34C JUMP JUMPDEST DUP2 DUP2 PUSH1 0x2 ADD PUSH1 0x0 DUP3 DUP3 SLOAD PUSH2 0x422 SWAP2 SWAP1 PUSH2 0x889 JUMP JUMPDEST SWAP1 SWAP2 SSTORE POP POP PUSH1 0x1 DUP2 ADD SLOAD PUSH1 0x2 DUP3 ADD SLOAD LT PUSH2 0x4C1 JUMPI PUSH1 0x4 DUP2 DUP2 ADD DUP1 SLOAD PUSH1 0xFF NOT AND SWAP1 SSTORE PUSH1 0x1 DUP1 SLOAD DUP4 SLOAD SWAP2 DUP5 ADD SLOAD PUSH1 0x40 MLOAD PUSH4 0xA9059CBB PUSH1 0xE0 SHL DUP2 MSTORE PUSH1 0x1 PUSH1 0x1 PUSH1 0xA0 SHL SUB SWAP4 DUP5 AND SWAP5 DUP2 ADD SWAP5 SWAP1 SWAP5 MSTORE PUSH1 0x24 DUP5 ADD MSTORE AND SWAP1 PUSH4 0xA9059CBB SWAP1 PUSH1 0x44 ADD PUSH1 0x20 PUSH1 0x40 MLOAD DUP1 DUP4 SUB DUP2 PUSH1 0x0 DUP8 GAS CALL ISZERO DUP1 ISZERO PUSH2 0x49B JUMPI RETURNDATASIZE PUSH1 0x0 DUP1 RETURNDATACOPY RETURNDATASIZE PUSH1 0x0 REVERT JUMPDEST POP POP POP POP PUSH1 0x40 MLOAD RETURNDATASIZE PUSH1 0x1F NOT PUSH1 0x1F DUP3 ADD AND DUP3 ADD DUP1 PUSH1 0x40 MSTORE POP DUP2 ADD SWAP1 PUSH2 0x4BF SWAP2 SWAP1 PUSH2 0x851 JUMP JUMPDEST POP JUMPDEST PUSH1 0x40 DUP1 MLOAD DUP5 DUP2 MSTORE PUSH1 0x20 DUP2 ADD DUP5 SWAP1 MSTORE PUSH32 0x40CEE90EE4799897C30CA04E5FEB6FA43DBBA9B6D084B4B257CDAFD84BA013E SWAP2 ADD JUMPDEST PUSH1 0x40 MLOAD DUP1 SWAP2 SUB SWAP1 LOG1 POP PUSH2 0x506 PUSH1 0x1 PUSH1 0x0 SSTORE JUMP JUMPDEST POP POP JUMP JUMPDEST PUSH2 0x512 PUSH2 0x740 JUMP JUMPDEST PUSH1 0x1 SLOAD PUSH1 0x40 MLOAD PUSH4 0x23B872DD PUSH1 0xE0 SHL DUP2 MSTORE CALLER PUSH1 0x4 DUP3 ADD MSTORE ADDRESS PUSH1 0x24 DUP3 ADD MSTORE PUSH1 0x44 DUP2 ADD DUP5 SWAP1 MSTORE PUSH1 0x1 PUSH1 0x1 PUSH1 0xA0 SHL SUB SWAP1 SWAP2 AND SWAP1 PUSH4 0x23B872DD SWAP1 PUSH1 0x64 ADD PUSH1 0x20 PUSH1 0x40 MLOAD DUP1 DUP4 SUB DUP2 PUSH1 0x0 DUP8 GAS CALL ISZERO DUP1 ISZERO PUSH2 0x569 JUMPI RETURNDATASIZE PUSH1 0x0 DUP1 RETURNDATACOPY RETURNDATASIZE PUSH1 0x0 REVERT JUMPDEST POP POP POP POP PUSH1 0x40 MLOAD RETURNDATASIZE PUSH1 0x1F NOT PUSH1 0x1F DUP3 ADD AND DUP3 ADD DUP1 PUSH1 0x40 MSTORE POP DUP2 ADD SWAP1 PUSH2 0x58D SWAP2 SWAP1 PUSH2 0x851 JUMP JUMPDEST PUSH2 0x5CB JUMPI PUSH1 0x40 MLOAD PUSH3 0x461BCD PUSH1 0xE5 SHL DUP2 MSTORE PUSH1 0x20 PUSH1 0x4 DUP3 ADD MSTORE PUSH1 0xF PUSH1 0x24 DUP3 ADD MSTORE PUSH15 0x151C985B9CD9995C8819985A5B1959 PUSH1 0x8A SHL PUSH1 0x44 DUP3 ADD MSTORE PUSH1 0x64 ADD PUSH2 0x34C JUMP JUMPDEST PUSH1 0x3 DUP1 SLOAD PUSH1 0x0 SWAP2 DUP3 PUSH2 0x5DC DUP4 PUSH2 0x8A2 JUMP JUMPDEST SWAP2 SWAP1 POP SSTORE SWAP1 POP PUSH1 0x40 MLOAD DUP1 PUSH1 0xA0 ADD PUSH1 0x40 MSTORE DUP1 CALLER PUSH1 0x1 PUSH1 0x1 PUSH1 0xA0 SHL SUB AND DUP2 MSTORE PUSH1 0x20 ADD DUP5 DUP2 MSTORE PUSH1 0x20 ADD PUSH1 0x0 DUP2 MSTORE PUSH1 0x20 ADD DUP4 TIMESTAMP PUSH2 0x615 SWAP2 SWAP1 PUSH2 0x889 JUMP JUMPDEST DUP2 MSTORE PUSH1 0x1 PUSH1 0x20 SWAP2 DUP3 ADD DUP2 SWAP1 MSTORE PUSH1 0x0 DUP5 DUP2 MSTORE PUSH1 0x4 DUP1 DUP5 MSTORE PUSH1 0x40 DUP1 DUP4 KECCAK256 DUP7 MLOAD DUP2 SLOAD PUSH1 0x1 PUSH1 0x1 PUSH1 0xA0 SHL SUB NOT AND PUSH1 0x1 PUSH1 0x1 PUSH1 0xA0 SHL SUB SWAP1 SWAP2 AND OR DUP2 SSTORE DUP7 DUP7 ADD MLOAD DUP2 DUP7 ADD SSTORE DUP7 DUP3 ADD MLOAD PUSH1 0x2 DUP3 ADD SSTORE PUSH1 0x60 DUP1 DUP9 ADD MLOAD PUSH1 0x3 DUP4 ADD SSTORE PUSH1 0x80 SWAP1 SWAP8 ADD MLOAD SWAP3 ADD DUP1 SLOAD PUSH1 0xFF NOT AND SWAP3 ISZERO ISZERO SWAP3 SWAP1 SWAP3 OR SWAP1 SWAP2 SSTORE CALLER DUP1 DUP4 MSTORE PUSH1 0x5 DUP6 MSTORE DUP2 DUP4 KECCAK256 DUP1 SLOAD SWAP5 DUP6 ADD DUP2 SSTORE DUP4 MSTORE SWAP2 DUP5 SWAP1 KECCAK256 SWAP1 SWAP3 ADD DUP6 SWAP1 SSTORE DUP2 MLOAD DUP6 DUP2 MSTORE SWAP3 DUP4 ADD MSTORE DUP2 ADD DUP6 SWAP1 MSTORE PUSH32 0x8910BA13A55695F056E224BBBC6B65D866B12A8C2FBDF387FB853A1CCA298CD7 SWAP2 ADD PUSH2 0x4F3 JUMP JUMPDEST PUSH1 0x1 PUSH1 0x1 PUSH1 0xA0 SHL SUB DUP2 AND PUSH1 0x0 SWAP1 DUP2 MSTORE PUSH1 0x5 PUSH1 0x20 SWAP1 DUP2 MSTORE PUSH1 0x40 SWAP2 DUP3 SWAP1 KECCAK256 DUP1 SLOAD DUP4 MLOAD DUP2 DUP5 MUL DUP2 ADD DUP5 ADD SWAP1 SWAP5 MSTORE DUP1 DUP5 MSTORE PUSH1 0x60 SWAP4 SWAP3 DUP4 ADD DUP3 DUP3 DUP1 ISZERO PUSH2 0x734 JUMPI PUSH1 0x20 MUL DUP3 ADD SWAP2 SWAP1 PUSH1 0x0 MSTORE PUSH1 0x20 PUSH1 0x0 KECCAK256 SWAP1 JUMPDEST DUP2 SLOAD DUP2 MSTORE PUSH1 0x20 ADD SWAP1 PUSH1 0x1 ADD SWAP1 DUP1 DUP4 GT PUSH2 0x720 JUMPI JUMPDEST POP POP POP POP POP SWAP1 POP SWAP2 SWAP1 POP JUMP JUMPDEST PUSH1 0x2 PUSH1 0x0 SLOAD SUB PUSH2 0x763 JUMPI PUSH1 0x40 MLOAD PUSH4 0x3EE5AEB5 PUSH1 0xE0 SHL DUP2 MSTORE PUSH1 0x4 ADD PUSH1 0x40 MLOAD DUP1 SWAP2 SUB SWAP1 REVERT JUMPDEST PUSH1 0x2 PUSH1 0x0 SSTORE JUMP JUMPDEST DUP1 CALLDATALOAD PUSH1 0x1 PUSH1 0x1 PUSH1 0xA0 SHL SUB DUP2 AND DUP2 EQ PUSH2 0x781 JUMPI PUSH1 0x0 DUP1 REVERT JUMPDEST SWAP2 SWAP1 POP JUMP JUMPDEST PUSH1 0x0 DUP1 PUSH1 0x40 DUP4 DUP6 SUB SLT ISZERO PUSH2 0x799 JUMPI PUSH1 0x0 DUP1 REVERT JUMPDEST PUSH2 0x7A2 DUP4 PUSH2 0x76A JUMP JUMPDEST SWAP5 PUSH1 0x20 SWAP4 SWAP1 SWAP4 ADD CALLDATALOAD SWAP4 POP POP POP JUMP JUMPDEST PUSH1 0x0 PUSH1 0x20 DUP3 DUP5 SUB SLT ISZERO PUSH2 0x7C2 JUMPI PUSH1 0x0 DUP1 REVERT JUMPDEST POP CALLDATALOAD SWAP2 SWAP1 POP JUMP JUMPDEST PUSH1 0x0 DUP1 PUSH1 0x40 DUP4 DUP6 SUB SLT ISZERO PUSH2 0x7DC JUMPI PUSH1 0x0 DUP1 REVERT JUMPDEST POP POP DUP1 CALLDATALOAD SWAP3 PUSH1 0x20 SWAP1 SWAP2 ADD CALLDATALOAD SWAP2 POP JUMP JUMPDEST PUSH1 0x0 PUSH1 0x20 DUP3 DUP5 SUB SLT ISZERO PUSH2 0x7FD JUMPI PUSH1 0x0 DUP1 REVERT JUMPDEST PUSH2 0x806 DUP3 PUSH2 0x76A JUMP JUMPDEST SWAP4 SWAP3 POP POP POP JUMP JUMPDEST PUSH1 0x20 DUP1 DUP3 MSTORE DUP3 MLOAD DUP3 DUP3 ADD DUP2 SWAP1 MSTORE PUSH1 0x0 SWAP2 SWAP1 DUP5 DUP3 ADD SWAP1 PUSH1 0x40 DUP6 ADD SWAP1 DUP5 JUMPDEST DUP2 DUP2 LT ISZERO PUSH2 0x845 JUMPI DUP4 MLOAD DUP4 MSTORE SWAP3 DUP5 ADD SWAP3 SWAP2 DUP5 ADD SWAP2 PUSH1 0x1 ADD PUSH2 0x829 JUMP JUMPDEST POP SWAP1 SWAP7 SWAP6 POP POP POP POP POP POP JUMP JUMPDEST PUSH1 0x0 PUSH1 0x20 DUP3 DUP5 SUB SLT ISZERO PUSH2 0x863 JUMPI PUSH1 0x0 DUP1 REVERT JUMPDEST DUP2 MLOAD DUP1 ISZERO ISZERO DUP2 EQ PUSH2 0x806 JUMPI PUSH1 0x0 DUP1 REVERT JUMPDEST PUSH4 0x4E487B71 PUSH1 0xE0 SHL PUSH1 0x0 MSTORE PUSH1 0x11 PUSH1 0x4 MSTORE PUSH1 0x24 PUSH1 0x0 REVERT JUMPDEST DUP1 DUP3 ADD DUP1 DUP3 GT ISZERO PUSH2 0x89C JUMPI PUSH2 0x89C PUSH2 0x873 JUMP JUMPDEST SWAP3 SWAP2 POP POP JUMP JUMPDEST PUSH1 0x0 PUSH1 0x1 DUP3 ADD PUSH2 0x8B4 JUMPI PUSH2 0x8B4 PUSH2 0x873 JUMP JUMPDEST POP PUSH1 0x1 ADD SWAP1 JUMP INVALID LOG2 PUSH5 0x6970667358 0x22 SLT KECCAK256 0x27 INVALID GASPRICE BALANCE PREVRANDAO PUSH20 0xCACC90008A46513168F96E8AFA0C3893A077E40C PUSH24 0xDB49967C464736F6C634300081800330000000000000000 "
        },
        "methodIdentifiers": {
          "createLoan(uint256,uint256)": "98cd90b5",
          "getInvestorLoans(address)": "a65d8086",
          "getLoanDetails(uint256)": "66877b8d",
          "investorLoans(address,uint256)": "654cb04e",
          "loanIdCounter()": "9d939d16",
          "loans(uint256)": "e1ec3c68",
          "owner()": "8da5cb5b",
          "repayLoan(uint256,uint256)": "8a700b53",
          "token()": "fc0c546a"
        }
      }
    }
  }
}