{
	"contracts/antugrowtransfer.sol": {
		"AntugrowEscrow": {
			"abi": [
				{
					"inputs": [
						{
							"internalType": "address",
							"name": "_token",
							"type": "address"
						}
					],
					"stateMutability": "nonpayable",
					"type": "constructor"
				},
				{
					"anonymous": false,
					"inputs": [
						{
							"indexed": false,
							"internalType": "uint256",
							"name": "loanId",
							"type": "uint256"
						},
						{
							"indexed": false,
							"internalType": "address",
							"name": "investor",
							"type": "address"
						},
						{
							"indexed": false,
							"internalType": "uint256",
							"name": "amount",
							"type": "uint256"
						}
					],
					"name": "LoanCreated",
					"type": "event"
				},
				{
					"anonymous": false,
					"inputs": [
						{
							"indexed": false,
							"internalType": "uint256",
							"name": "loanId",
							"type": "uint256"
						},
						{
							"indexed": false,
							"internalType": "uint256",
							"name": "amount",
							"type": "uint256"
						}
					],
					"name": "LoanRepaid",
					"type": "event"
				},
				{
					"inputs": [
						{
							"internalType": "uint256",
							"name": "_amount",
							"type": "uint256"
						},
						{
							"internalType": "uint256",
							"name": "_duration",
							"type": "uint256"
						}
					],
					"name": "createLoan",
					"outputs": [],
					"stateMutability": "nonpayable",
					"type": "function"
				},
				{
					"inputs": [
						{
							"internalType": "address",
							"name": "_investor",
							"type": "address"
						}
					],
					"name": "getInvestorLoans",
					"outputs": [
						{
							"internalType": "uint256[]",
							"name": "",
							"type": "uint256[]"
						}
					],
					"stateMutability": "view",
					"type": "function"
				},
				{
					"inputs": [
						{
							"internalType": "uint256",
							"name": "_loanId",
							"type": "uint256"
						}
					],
					"name": "getLoanDetails",
					"outputs": [
						{
							"components": [
								{
									"internalType": "address",
									"name": "investor",
									"type": "address"
								},
								{
									"internalType": "uint256",
									"name": "amount",
									"type": "uint256"
								},
								{
									"internalType": "uint256",
									"name": "repaidAmount",
									"type": "uint256"
								},
								{
									"internalType": "uint256",
									"name": "dueDate",
									"type": "uint256"
								},
								{
									"internalType": "bool",
									"name": "isActive",
									"type": "bool"
								}
							],
							"internalType": "struct AntugrowEscrow.Loan",
							"name": "",
							"type": "tuple"
						}
					],
					"stateMutability": "view",
					"type": "function"
				},
				{
					"inputs": [
						{
							"internalType": "address",
							"name": "",
							"type": "address"
						},
						{
							"internalType": "uint256",
							"name": "",
							"type": "uint256"
						}
					],
					"name": "investorLoans",
					"outputs": [
						{
							"internalType": "uint256",
							"name": "",
							"type": "uint256"
						}
					],
					"stateMutability": "view",
					"type": "function"
				},
				{
					"inputs": [],
					"name": "loanIdCounter",
					"outputs": [
						{
							"internalType": "uint256",
							"name": "",
							"type": "uint256"
						}
					],
					"stateMutability": "view",
					"type": "function"
				},
				{
					"inputs": [
						{
							"internalType": "uint256",
							"name": "",
							"type": "uint256"
						}
					],
					"name": "loans",
					"outputs": [
						{
							"internalType": "address",
							"name": "investor",
							"type": "address"
						},
						{
							"internalType": "uint256",
							"name": "amount",
							"type": "uint256"
						},
						{
							"internalType": "uint256",
							"name": "repaidAmount",
							"type": "uint256"
						},
						{
							"internalType": "uint256",
							"name": "dueDate",
							"type": "uint256"
						},
						{
							"internalType": "bool",
							"name": "isActive",
							"type": "bool"
						}
					],
					"stateMutability": "view",
					"type": "function"
				},
				{
					"inputs": [],
					"name": "owner",
					"outputs": [
						{
							"internalType": "address",
							"name": "",
							"type": "address"
						}
					],
					"stateMutability": "view",
					"type": "function"
				},
				{
					"inputs": [
						{
							"internalType": "uint256",
							"name": "_loanId",
							"type": "uint256"
						},
						{
							"internalType": "uint256",
							"name": "_amount",
							"type": "uint256"
						}
					],
					"name": "repayLoan",
					"outputs": [],
					"stateMutability": "nonpayable",
					"type": "function"
				},
				{
					"inputs": [],
					"name": "token",
					"outputs": [
						{
							"internalType": "contract IERC20",
							"name": "",
							"type": "address"
						}
					],
					"stateMutability": "view",
					"type": "function"
				}
			],
			"devdoc": {
				"kind": "dev",
				"methods": {},
				"version": 1
			},
			"evm": {
				"assembly": "    /* \"contracts/antugrowtransfer.sol\":178:2106  contract AntugrowEscrow is ReentrancyGuard {... */\n  mstore(0x40, 0x80)\n    /* \"contracts/antugrowtransfer.sol\":694:789  constructor(address _token) {... */\n  callvalue\n  dup1\n  iszero\n  tag_1\n  jumpi\n  0x00\n  dup1\n  revert\ntag_1:\n  pop\n  mload(0x40)\n  sub(codesize, bytecodeSize)\n  dup1\n  bytecodeSize\n  dup4\n  codecopy\n  dup2\n  dup2\n  add\n  0x40\n  mstore\n  dup2\n  add\n  swap1\n  tag_2\n  swap2\n  swap1\n  tag_3\n  jump\t// in\ntag_2:\n    /* \"@openzeppelin/contracts/security/ReentrancyGuard.sol\":1716:1717  1 */\n  0x01\n    /* \"@openzeppelin/contracts/security/ReentrancyGuard.sol\":1821:1828  _status */\n  0x00\n    /* \"@openzeppelin/contracts/security/ReentrancyGuard.sol\":1821:1843  _status = _NOT_ENTERED */\n  dup2\n  swap1\n  sstore\n  pop\n    /* \"contracts/antugrowtransfer.sol\":747:753  _token */\n  dup1\n    /* \"contracts/antugrowtransfer.sol\":732:737  token */\n  0x01\n  0x00\n    /* \"contracts/antugrowtransfer.sol\":732:754  token = IERC20(_token) */\n  0x0100\n  exp\n  dup2\n  sload\n  dup2\n  0xffffffffffffffffffffffffffffffffffffffff\n  mul\n  not\n  and\n  swap1\n  dup4\n  0xffffffffffffffffffffffffffffffffffffffff\n  and\n  mul\n  or\n  swap1\n  sstore\n  pop\n    /* \"contracts/antugrowtransfer.sol\":772:782  msg.sender */\n  caller\n    /* \"contracts/antugrowtransfer.sol\":764:769  owner */\n  0x02\n  0x00\n    /* \"contracts/antugrowtransfer.sol\":764:782  owner = msg.sender */\n  0x0100\n  exp\n  dup2\n  sload\n  dup2\n  0xffffffffffffffffffffffffffffffffffffffff\n  mul\n  not\n  and\n  swap1\n  dup4\n  0xffffffffffffffffffffffffffffffffffffffff\n  and\n  mul\n  or\n  swap1\n  sstore\n  pop\n    /* \"contracts/antugrowtransfer.sol\":694:789  constructor(address _token) {... */\n  pop\n    /* \"contracts/antugrowtransfer.sol\":178:2106  contract AntugrowEscrow is ReentrancyGuard {... */\n  jump(tag_8)\n    /* \"#utility.yul\":88:205   */\ntag_10:\n    /* \"#utility.yul\":197:198   */\n  0x00\n    /* \"#utility.yul\":194:195   */\n  dup1\n    /* \"#utility.yul\":187:199   */\n  revert\n    /* \"#utility.yul\":334:460   */\ntag_12:\n    /* \"#utility.yul\":371:378   */\n  0x00\n    /* \"#utility.yul\":411:453   */\n  0xffffffffffffffffffffffffffffffffffffffff\n    /* \"#utility.yul\":404:409   */\n  dup3\n    /* \"#utility.yul\":400:454   */\n  and\n    /* \"#utility.yul\":389:454   */\n  swap1\n  pop\n    /* \"#utility.yul\":334:460   */\n  swap2\n  swap1\n  pop\n  jump\t// out\n    /* \"#utility.yul\":466:562   */\ntag_13:\n    /* \"#utility.yul\":503:510   */\n  0x00\n    /* \"#utility.yul\":532:556   */\n  tag_22\n    /* \"#utility.yul\":550:555   */\n  dup3\n    /* \"#utility.yul\":532:556   */\n  tag_12\n  jump\t// in\ntag_22:\n    /* \"#utility.yul\":521:556   */\n  swap1\n  pop\n    /* \"#utility.yul\":466:562   */\n  swap2\n  swap1\n  pop\n  jump\t// out\n    /* \"#utility.yul\":568:690   */\ntag_14:\n    /* \"#utility.yul\":641:665   */\n  tag_24\n    /* \"#utility.yul\":659:664   */\n  dup2\n    /* \"#utility.yul\":641:665   */\n  tag_13\n  jump\t// in\ntag_24:\n    /* \"#utility.yul\":634:639   */\n  dup2\n    /* \"#utility.yul\":631:666   */\n  eq\n    /* \"#utility.yul\":621:684   */\n  tag_25\n  jumpi\n    /* \"#utility.yul\":680:681   */\n  0x00\n    /* \"#utility.yul\":677:678   */\n  dup1\n    /* \"#utility.yul\":670:682   */\n  revert\n    /* \"#utility.yul\":621:684   */\ntag_25:\n    /* \"#utility.yul\":568:690   */\n  pop\n  jump\t// out\n    /* \"#utility.yul\":696:839   */\ntag_15:\n    /* \"#utility.yul\":753:758   */\n  0x00\n    /* \"#utility.yul\":784:790   */\n  dup2\n    /* \"#utility.yul\":778:791   */\n  mload\n    /* \"#utility.yul\":769:791   */\n  swap1\n  pop\n    /* \"#utility.yul\":800:833   */\n  tag_27\n    /* \"#utility.yul\":827:832   */\n  dup2\n    /* \"#utility.yul\":800:833   */\n  tag_14\n  jump\t// in\ntag_27:\n    /* \"#utility.yul\":696:839   */\n  swap3\n  swap2\n  pop\n  pop\n  jump\t// out\n    /* \"#utility.yul\":845:1196   */\ntag_3:\n    /* \"#utility.yul\":915:921   */\n  0x00\n    /* \"#utility.yul\":964:966   */\n  0x20\n    /* \"#utility.yul\":952:961   */\n  dup3\n    /* \"#utility.yul\":943:950   */\n  dup5\n    /* \"#utility.yul\":939:962   */\n  sub\n    /* \"#utility.yul\":935:967   */\n  slt\n    /* \"#utility.yul\":932:1051   */\n  iszero\n  tag_29\n  jumpi\n    /* \"#utility.yul\":970:1049   */\n  tag_30\n  tag_10\n  jump\t// in\ntag_30:\n    /* \"#utility.yul\":932:1051   */\ntag_29:\n    /* \"#utility.yul\":1090:1091   */\n  0x00\n    /* \"#utility.yul\":1115:1179   */\n  tag_31\n    /* \"#utility.yul\":1171:1178   */\n  dup5\n    /* \"#utility.yul\":1162:1168   */\n  dup3\n    /* \"#utility.yul\":1151:1160   */\n  dup6\n    /* \"#utility.yul\":1147:1169   */\n  add\n    /* \"#utility.yul\":1115:1179   */\n  tag_15\n  jump\t// in\ntag_31:\n    /* \"#utility.yul\":1105:1179   */\n  swap2\n  pop\n    /* \"#utility.yul\":1061:1189   */\n  pop\n    /* \"#utility.yul\":845:1196   */\n  swap3\n  swap2\n  pop\n  pop\n  jump\t// out\n    /* \"contracts/antugrowtransfer.sol\":178:2106  contract AntugrowEscrow is ReentrancyGuard {... */\ntag_8:\n  dataSize(sub_0)\n  dup1\n  dataOffset(sub_0)\n  0x00\n  codecopy\n  0x00\n  return\nstop\n\nsub_0: assembly {\n        /* \"contracts/antugrowtransfer.sol\":178:2106  contract AntugrowEscrow is ReentrancyGuard {... */\n      mstore(0x40, 0x80)\n      callvalue\n      dup1\n      iszero\n      tag_1\n      jumpi\n      0x00\n      dup1\n      revert\n    tag_1:\n      pop\n      jumpi(tag_2, lt(calldatasize, 0x04))\n      shr(0xe0, calldataload(0x00))\n      dup1\n      0x98cd90b5\n      gt\n      tag_12\n      jumpi\n      dup1\n      0x98cd90b5\n      eq\n      tag_7\n      jumpi\n      dup1\n      0x9d939d16\n      eq\n      tag_8\n      jumpi\n      dup1\n      0xa65d8086\n      eq\n      tag_9\n      jumpi\n      dup1\n      0xe1ec3c68\n      eq\n      tag_10\n      jumpi\n      dup1\n      0xfc0c546a\n      eq\n      tag_11\n      jumpi\n      jump(tag_2)\n    tag_12:\n      dup1\n      0x654cb04e\n      eq\n      tag_3\n      jumpi\n      dup1\n      0x66877b8d\n      eq\n      tag_4\n      jumpi\n      dup1\n      0x8a700b53\n      eq\n      tag_5\n      jumpi\n      dup1\n      0x8da5cb5b\n      eq\n      tag_6\n      jumpi\n    tag_2:\n      0x00\n      dup1\n      revert\n        /* \"contracts/antugrowtransfer.sol\":509:559  mapping(address => uint256[]) public investorLoans */\n    tag_3:\n      tag_13\n      0x04\n      dup1\n      calldatasize\n      sub\n      dup2\n      add\n      swap1\n      tag_14\n      swap2\n      swap1\n      tag_15\n      jump\t// in\n    tag_14:\n      tag_16\n      jump\t// in\n    tag_13:\n      mload(0x40)\n      tag_17\n      swap2\n      swap1\n      tag_18\n      jump\t// in\n    tag_17:\n      mload(0x40)\n      dup1\n      swap2\n      sub\n      swap1\n      return\n        /* \"contracts/antugrowtransfer.sol\":1848:1963  function getLoanDetails(uint256 _loanId) external view returns (Loan memory) {... */\n    tag_4:\n      tag_19\n      0x04\n      dup1\n      calldatasize\n      sub\n      dup2\n      add\n      swap1\n      tag_20\n      swap2\n      swap1\n      tag_21\n      jump\t// in\n    tag_20:\n      tag_22\n      jump\t// in\n    tag_19:\n      mload(0x40)\n      tag_23\n      swap2\n      swap1\n      tag_24\n      jump\t// in\n    tag_23:\n      mload(0x40)\n      dup1\n      swap2\n      sub\n      swap1\n      return\n        /* \"contracts/antugrowtransfer.sol\":1338:1842  function repayLoan(uint256 _loanId, uint256 _amount) external nonReentrant {... */\n    tag_5:\n      tag_25\n      0x04\n      dup1\n      calldatasize\n      sub\n      dup2\n      add\n      swap1\n      tag_26\n      swap2\n      swap1\n      tag_27\n      jump\t// in\n    tag_26:\n      tag_28\n      jump\t// in\n    tag_25:\n      stop\n        /* \"contracts/antugrowtransfer.sol\":405:425  address public owner */\n    tag_6:\n      tag_29\n      tag_30\n      jump\t// in\n    tag_29:\n      mload(0x40)\n      tag_31\n      swap2\n      swap1\n      tag_32\n      jump\t// in\n    tag_31:\n      mload(0x40)\n      dup1\n      swap2\n      sub\n      swap1\n      return\n        /* \"contracts/antugrowtransfer.sol\":795:1332  function createLoan(uint256 _amount, uint256 _duration) external nonReentrant {... */\n    tag_7:\n      tag_33\n      0x04\n      dup1\n      calldatasize\n      sub\n      dup2\n      add\n      swap1\n      tag_34\n      swap2\n      swap1\n      tag_27\n      jump\t// in\n    tag_34:\n      tag_35\n      jump\t// in\n    tag_33:\n      stop\n        /* \"contracts/antugrowtransfer.sol\":431:459  uint256 public loanIdCounter */\n    tag_8:\n      tag_36\n      tag_37\n      jump\t// in\n    tag_36:\n      mload(0x40)\n      tag_38\n      swap2\n      swap1\n      tag_18\n      jump\t// in\n    tag_38:\n      mload(0x40)\n      dup1\n      swap2\n      sub\n      swap1\n      return\n        /* \"contracts/antugrowtransfer.sol\":1969:2103  function getInvestorLoans(address _investor) external view returns (uint256[] memory) {... */\n    tag_9:\n      tag_39\n      0x04\n      dup1\n      calldatasize\n      sub\n      dup2\n      add\n      swap1\n      tag_40\n      swap2\n      swap1\n      tag_41\n      jump\t// in\n    tag_40:\n      tag_42\n      jump\t// in\n    tag_39:\n      mload(0x40)\n      tag_43\n      swap2\n      swap1\n      tag_44\n      jump\t// in\n    tag_43:\n      mload(0x40)\n      dup1\n      swap2\n      sub\n      swap1\n      return\n        /* \"contracts/antugrowtransfer.sol\":466:503  mapping(uint256 => Loan) public loans */\n    tag_10:\n      tag_45\n      0x04\n      dup1\n      calldatasize\n      sub\n      dup2\n      add\n      swap1\n      tag_46\n      swap2\n      swap1\n      tag_21\n      jump\t// in\n    tag_46:\n      tag_47\n      jump\t// in\n    tag_45:\n      mload(0x40)\n      tag_48\n      swap6\n      swap5\n      swap4\n      swap3\n      swap2\n      swap1\n      tag_49\n      jump\t// in\n    tag_48:\n      mload(0x40)\n      dup1\n      swap2\n      sub\n      swap1\n      return\n        /* \"contracts/antugrowtransfer.sol\":380:399  IERC20 public token */\n    tag_11:\n      tag_50\n      tag_51\n      jump\t// in\n    tag_50:\n      mload(0x40)\n      tag_52\n      swap2\n      swap1\n      tag_53\n      jump\t// in\n    tag_52:\n      mload(0x40)\n      dup1\n      swap2\n      sub\n      swap1\n      return\n        /* \"contracts/antugrowtransfer.sol\":509:559  mapping(address => uint256[]) public investorLoans */\n    tag_16:\n      mstore(0x20, 0x05)\n      dup2\n      0x00\n      mstore\n      keccak256(0x00, 0x40)\n      dup2\n      dup2\n      sload\n      dup2\n      lt\n      tag_54\n      jumpi\n      0x00\n      dup1\n      revert\n    tag_54:\n      swap1\n      0x00\n      mstore\n      keccak256(0x00, 0x20)\n      add\n      0x00\n      swap2\n      pop\n      swap2\n      pop\n      pop\n      sload\n      dup2\n      jump\t// out\n        /* \"contracts/antugrowtransfer.sol\":1848:1963  function getLoanDetails(uint256 _loanId) external view returns (Loan memory) {... */\n    tag_22:\n        /* \"contracts/antugrowtransfer.sol\":1912:1923  Loan memory */\n      tag_56\n      tag_57\n      jump\t// in\n    tag_56:\n        /* \"contracts/antugrowtransfer.sol\":1942:1947  loans */\n      0x04\n        /* \"contracts/antugrowtransfer.sol\":1942:1956  loans[_loanId] */\n      0x00\n        /* \"contracts/antugrowtransfer.sol\":1948:1955  _loanId */\n      dup4\n        /* \"contracts/antugrowtransfer.sol\":1942:1956  loans[_loanId] */\n      dup2\n      mstore\n      0x20\n      add\n      swap1\n      dup2\n      mstore\n      0x20\n      add\n      0x00\n      keccak256\n        /* \"contracts/antugrowtransfer.sol\":1935:1956  return loans[_loanId] */\n      mload(0x40)\n      dup1\n      0xa0\n      add\n      0x40\n      mstore\n      swap1\n      dup2\n      0x00\n      dup3\n      add\n      0x00\n      swap1\n      sload\n      swap1\n      0x0100\n      exp\n      swap1\n      div\n      0xffffffffffffffffffffffffffffffffffffffff\n      and\n      0xffffffffffffffffffffffffffffffffffffffff\n      and\n      0xffffffffffffffffffffffffffffffffffffffff\n      and\n      dup2\n      mstore\n      0x20\n      add\n      0x01\n      dup3\n      add\n      sload\n      dup2\n      mstore\n      0x20\n      add\n      0x02\n      dup3\n      add\n      sload\n      dup2\n      mstore\n      0x20\n      add\n      0x03\n      dup3\n      add\n      sload\n      dup2\n      mstore\n      0x20\n      add\n      0x04\n      dup3\n      add\n      0x00\n      swap1\n      sload\n      swap1\n      0x0100\n      exp\n      swap1\n      div\n      0xff\n      and\n      iszero\n      iszero\n      iszero\n      iszero\n      dup2\n      mstore\n      pop\n      pop\n      swap1\n      pop\n        /* \"contracts/antugrowtransfer.sol\":1848:1963  function getLoanDetails(uint256 _loanId) external view returns (Loan memory) {... */\n      swap2\n      swap1\n      pop\n      jump\t// out\n        /* \"contracts/antugrowtransfer.sol\":1338:1842  function repayLoan(uint256 _loanId, uint256 _amount) external nonReentrant {... */\n    tag_28:\n        /* \"@openzeppelin/contracts/security/ReentrancyGuard.sol\":2261:2282  _nonReentrantBefore() */\n      tag_60\n        /* \"@openzeppelin/contracts/security/ReentrancyGuard.sol\":2261:2280  _nonReentrantBefore */\n      tag_61\n        /* \"@openzeppelin/contracts/security/ReentrancyGuard.sol\":2261:2282  _nonReentrantBefore() */\n      jump\t// in\n    tag_60:\n        /* \"contracts/antugrowtransfer.sol\":1423:1440  Loan storage loan */\n      0x00\n        /* \"contracts/antugrowtransfer.sol\":1443:1448  loans */\n      0x04\n        /* \"contracts/antugrowtransfer.sol\":1443:1457  loans[_loanId] */\n      0x00\n        /* \"contracts/antugrowtransfer.sol\":1449:1456  _loanId */\n      dup5\n        /* \"contracts/antugrowtransfer.sol\":1443:1457  loans[_loanId] */\n      dup2\n      mstore\n      0x20\n      add\n      swap1\n      dup2\n      mstore\n      0x20\n      add\n      0x00\n      keccak256\n        /* \"contracts/antugrowtransfer.sol\":1423:1457  Loan storage loan = loans[_loanId] */\n      swap1\n      pop\n        /* \"contracts/antugrowtransfer.sol\":1475:1479  loan */\n      dup1\n        /* \"contracts/antugrowtransfer.sol\":1475:1488  loan.isActive */\n      0x04\n      add\n      0x00\n      swap1\n      sload\n      swap1\n      0x0100\n      exp\n      swap1\n      div\n      0xff\n      and\n        /* \"contracts/antugrowtransfer.sol\":1467:1511  require(loan.isActive, \"Loan is not active\") */\n      tag_63\n      jumpi\n      mload(0x40)\n      0x08c379a000000000000000000000000000000000000000000000000000000000\n      dup2\n      mstore\n      0x04\n      add\n      tag_64\n      swap1\n      tag_65\n      jump\t// in\n    tag_64:\n      mload(0x40)\n      dup1\n      swap2\n      sub\n      swap1\n      revert\n    tag_63:\n        /* \"contracts/antugrowtransfer.sol\":1529:1534  token */\n      0x01\n      0x00\n      swap1\n      sload\n      swap1\n      0x0100\n      exp\n      swap1\n      div\n      0xffffffffffffffffffffffffffffffffffffffff\n      and\n        /* \"contracts/antugrowtransfer.sol\":1529:1547  token.transferFrom */\n      0xffffffffffffffffffffffffffffffffffffffff\n      and\n      0x23b872dd\n        /* \"contracts/antugrowtransfer.sol\":1548:1558  msg.sender */\n      caller\n        /* \"contracts/antugrowtransfer.sol\":1568:1572  this */\n      address\n        /* \"contracts/antugrowtransfer.sol\":1575:1582  _amount */\n      dup6\n        /* \"contracts/antugrowtransfer.sol\":1529:1583  token.transferFrom(msg.sender, address(this), _amount) */\n      mload(0x40)\n      dup5\n      0xffffffff\n      and\n      0xe0\n      shl\n      dup2\n      mstore\n      0x04\n      add\n      tag_66\n      swap4\n      swap3\n      swap2\n      swap1\n      tag_67\n      jump\t// in\n    tag_66:\n      0x20\n      mload(0x40)\n      dup1\n      dup4\n      sub\n      dup2\n      0x00\n      dup8\n      gas\n      call\n      iszero\n      dup1\n      iszero\n      tag_69\n      jumpi\n      returndatasize\n      0x00\n      dup1\n      returndatacopy\n      revert(0x00, returndatasize)\n    tag_69:\n      pop\n      pop\n      pop\n      pop\n      mload(0x40)\n      returndatasize\n      not(0x1f)\n      0x1f\n      dup3\n      add\n      and\n      dup3\n      add\n      dup1\n      0x40\n      mstore\n      pop\n      dup2\n      add\n      swap1\n      tag_70\n      swap2\n      swap1\n      tag_71\n      jump\t// in\n    tag_70:\n        /* \"contracts/antugrowtransfer.sol\":1521:1603  require(token.transferFrom(msg.sender, address(this), _amount), \"Transfer failed\") */\n      tag_72\n      jumpi\n      mload(0x40)\n      0x08c379a000000000000000000000000000000000000000000000000000000000\n      dup2\n      mstore\n      0x04\n      add\n      tag_73\n      swap1\n      tag_74\n      jump\t// in\n    tag_73:\n      mload(0x40)\n      dup1\n      swap2\n      sub\n      swap1\n      revert\n    tag_72:\n        /* \"contracts/antugrowtransfer.sol\":1635:1642  _amount */\n      dup2\n        /* \"contracts/antugrowtransfer.sol\":1614:1618  loan */\n      dup2\n        /* \"contracts/antugrowtransfer.sol\":1614:1631  loan.repaidAmount */\n      0x02\n      add\n      0x00\n        /* \"contracts/antugrowtransfer.sol\":1614:1642  loan.repaidAmount += _amount */\n      dup3\n      dup3\n      sload\n      tag_75\n      swap2\n      swap1\n      tag_76\n      jump\t// in\n    tag_75:\n      swap3\n      pop\n      pop\n      dup2\n      swap1\n      sstore\n      pop\n        /* \"contracts/antugrowtransfer.sol\":1677:1681  loan */\n      dup1\n        /* \"contracts/antugrowtransfer.sol\":1677:1688  loan.amount */\n      0x01\n      add\n      sload\n        /* \"contracts/antugrowtransfer.sol\":1656:1660  loan */\n      dup2\n        /* \"contracts/antugrowtransfer.sol\":1656:1673  loan.repaidAmount */\n      0x02\n      add\n      sload\n        /* \"contracts/antugrowtransfer.sol\":1656:1688  loan.repaidAmount >= loan.amount */\n      lt\n        /* \"contracts/antugrowtransfer.sol\":1652:1792  if (loan.repaidAmount >= loan.amount) {... */\n      tag_77\n      jumpi\n        /* \"contracts/antugrowtransfer.sol\":1720:1725  false */\n      0x00\n        /* \"contracts/antugrowtransfer.sol\":1704:1708  loan */\n      dup2\n        /* \"contracts/antugrowtransfer.sol\":1704:1717  loan.isActive */\n      0x04\n      add\n      0x00\n        /* \"contracts/antugrowtransfer.sol\":1704:1725  loan.isActive = false */\n      0x0100\n      exp\n      dup2\n      sload\n      dup2\n      0xff\n      mul\n      not\n      and\n      swap1\n      dup4\n      iszero\n      iszero\n      mul\n      or\n      swap1\n      sstore\n      pop\n        /* \"contracts/antugrowtransfer.sol\":1739:1744  token */\n      0x01\n      0x00\n      swap1\n      sload\n      swap1\n      0x0100\n      exp\n      swap1\n      div\n      0xffffffffffffffffffffffffffffffffffffffff\n      and\n        /* \"contracts/antugrowtransfer.sol\":1739:1753  token.transfer */\n      0xffffffffffffffffffffffffffffffffffffffff\n      and\n      0xa9059cbb\n        /* \"contracts/antugrowtransfer.sol\":1754:1758  loan */\n      dup3\n        /* \"contracts/antugrowtransfer.sol\":1754:1767  loan.investor */\n      0x00\n      add\n      0x00\n      swap1\n      sload\n      swap1\n      0x0100\n      exp\n      swap1\n      div\n      0xffffffffffffffffffffffffffffffffffffffff\n      and\n        /* \"contracts/antugrowtransfer.sol\":1769:1773  loan */\n      dup4\n        /* \"contracts/antugrowtransfer.sol\":1769:1780  loan.amount */\n      0x01\n      add\n      sload\n        /* \"contracts/antugrowtransfer.sol\":1739:1781  token.transfer(loan.investor, loan.amount) */\n      mload(0x40)\n      dup4\n      0xffffffff\n      and\n      0xe0\n      shl\n      dup2\n      mstore\n      0x04\n      add\n      tag_78\n      swap3\n      swap2\n      swap1\n      tag_79\n      jump\t// in\n    tag_78:\n      0x20\n      mload(0x40)\n      dup1\n      dup4\n      sub\n      dup2\n      0x00\n      dup8\n      gas\n      call\n      iszero\n      dup1\n      iszero\n      tag_81\n      jumpi\n      returndatasize\n      0x00\n      dup1\n      returndatacopy\n      revert(0x00, returndatasize)\n    tag_81:\n      pop\n      pop\n      pop\n      pop\n      mload(0x40)\n      returndatasize\n      not(0x1f)\n      0x1f\n      dup3\n      add\n      and\n      dup3\n      add\n      dup1\n      0x40\n      mstore\n      pop\n      dup2\n      add\n      swap1\n      tag_82\n      swap2\n      swap1\n      tag_71\n      jump\t// in\n    tag_82:\n      pop\n        /* \"contracts/antugrowtransfer.sol\":1652:1792  if (loan.repaidAmount >= loan.amount) {... */\n    tag_77:\n        /* \"contracts/antugrowtransfer.sol\":1807:1835  LoanRepaid(_loanId, _amount) */\n      0x040cee90ee4799897c30ca04e5feb6fa43dbba9b6d084b4b257cdafd84ba013e\n        /* \"contracts/antugrowtransfer.sol\":1818:1825  _loanId */\n      dup4\n        /* \"contracts/antugrowtransfer.sol\":1827:1834  _amount */\n      dup4\n        /* \"contracts/antugrowtransfer.sol\":1807:1835  LoanRepaid(_loanId, _amount) */\n      mload(0x40)\n      tag_83\n      swap3\n      swap2\n      swap1\n      tag_84\n      jump\t// in\n    tag_83:\n      mload(0x40)\n      dup1\n      swap2\n      sub\n      swap1\n      log1\n        /* \"contracts/antugrowtransfer.sol\":1413:1842  {... */\n      pop\n        /* \"@openzeppelin/contracts/security/ReentrancyGuard.sol\":2303:2323  _nonReentrantAfter() */\n      tag_85\n        /* \"@openzeppelin/contracts/security/ReentrancyGuard.sol\":2303:2321  _nonReentrantAfter */\n      tag_86\n        /* \"@openzeppelin/contracts/security/ReentrancyGuard.sol\":2303:2323  _nonReentrantAfter() */\n      jump\t// in\n    tag_85:\n        /* \"contracts/antugrowtransfer.sol\":1338:1842  function repayLoan(uint256 _loanId, uint256 _amount) external nonReentrant {... */\n      pop\n      pop\n      jump\t// out\n        /* \"contracts/antugrowtransfer.sol\":405:425  address public owner */\n    tag_30:\n      0x02\n      0x00\n      swap1\n      sload\n      swap1\n      0x0100\n      exp\n      swap1\n      div\n      0xffffffffffffffffffffffffffffffffffffffff\n      and\n      dup2\n      jump\t// out\n        /* \"contracts/antugrowtransfer.sol\":795:1332  function createLoan(uint256 _amount, uint256 _duration) external nonReentrant {... */\n    tag_35:\n        /* \"@openzeppelin/contracts/security/ReentrancyGuard.sol\":2261:2282  _nonReentrantBefore() */\n      tag_88\n        /* \"@openzeppelin/contracts/security/ReentrancyGuard.sol\":2261:2280  _nonReentrantBefore */\n      tag_61\n        /* \"@openzeppelin/contracts/security/ReentrancyGuard.sol\":2261:2282  _nonReentrantBefore() */\n      jump\t// in\n    tag_88:\n        /* \"contracts/antugrowtransfer.sol\":891:896  token */\n      0x01\n      0x00\n      swap1\n      sload\n      swap1\n      0x0100\n      exp\n      swap1\n      div\n      0xffffffffffffffffffffffffffffffffffffffff\n      and\n        /* \"contracts/antugrowtransfer.sol\":891:909  token.transferFrom */\n      0xffffffffffffffffffffffffffffffffffffffff\n      and\n      0x23b872dd\n        /* \"contracts/antugrowtransfer.sol\":910:920  msg.sender */\n      caller\n        /* \"contracts/antugrowtransfer.sol\":930:934  this */\n      address\n        /* \"contracts/antugrowtransfer.sol\":937:944  _amount */\n      dup6\n        /* \"contracts/antugrowtransfer.sol\":891:945  token.transferFrom(msg.sender, address(this), _amount) */\n      mload(0x40)\n      dup5\n      0xffffffff\n      and\n      0xe0\n      shl\n      dup2\n      mstore\n      0x04\n      add\n      tag_90\n      swap4\n      swap3\n      swap2\n      swap1\n      tag_67\n      jump\t// in\n    tag_90:\n      0x20\n      mload(0x40)\n      dup1\n      dup4\n      sub\n      dup2\n      0x00\n      dup8\n      gas\n      call\n      iszero\n      dup1\n      iszero\n      tag_92\n      jumpi\n      returndatasize\n      0x00\n      dup1\n      returndatacopy\n      revert(0x00, returndatasize)\n    tag_92:\n      pop\n      pop\n      pop\n      pop\n      mload(0x40)\n      returndatasize\n      not(0x1f)\n      0x1f\n      dup3\n      add\n      and\n      dup3\n      add\n      dup1\n      0x40\n      mstore\n      pop\n      dup2\n      add\n      swap1\n      tag_93\n      swap2\n      swap1\n      tag_71\n      jump\t// in\n    tag_93:\n        /* \"contracts/antugrowtransfer.sol\":883:965  require(token.transferFrom(msg.sender, address(this), _amount), \"Transfer failed\") */\n      tag_94\n      jumpi\n      mload(0x40)\n      0x08c379a000000000000000000000000000000000000000000000000000000000\n      dup2\n      mstore\n      0x04\n      add\n      tag_95\n      swap1\n      tag_74\n      jump\t// in\n    tag_95:\n      mload(0x40)\n      dup1\n      swap2\n      sub\n      swap1\n      revert\n    tag_94:\n        /* \"contracts/antugrowtransfer.sol\":976:990  uint256 loanId */\n      0x00\n        /* \"contracts/antugrowtransfer.sol\":993:1006  loanIdCounter */\n      0x03\n      0x00\n        /* \"contracts/antugrowtransfer.sol\":993:1008  loanIdCounter++ */\n      dup2\n      sload\n      dup1\n      swap3\n      swap2\n      swap1\n      tag_96\n      swap1\n      tag_97\n      jump\t// in\n    tag_96:\n      swap2\n      swap1\n      pop\n      sstore\n        /* \"contracts/antugrowtransfer.sol\":976:1008  uint256 loanId = loanIdCounter++ */\n      swap1\n      pop\n        /* \"contracts/antugrowtransfer.sol\":1034:1220  Loan({... */\n      mload(0x40)\n      dup1\n      0xa0\n      add\n      0x40\n      mstore\n      dup1\n        /* \"contracts/antugrowtransfer.sol\":1063:1073  msg.sender */\n      caller\n        /* \"contracts/antugrowtransfer.sol\":1034:1220  Loan({... */\n      0xffffffffffffffffffffffffffffffffffffffff\n      and\n      dup2\n      mstore\n      0x20\n      add\n        /* \"contracts/antugrowtransfer.sol\":1095:1102  _amount */\n      dup5\n        /* \"contracts/antugrowtransfer.sol\":1034:1220  Loan({... */\n      dup2\n      mstore\n      0x20\n      add\n        /* \"contracts/antugrowtransfer.sol\":1130:1131  0 */\n      0x00\n        /* \"contracts/antugrowtransfer.sol\":1034:1220  Loan({... */\n      dup2\n      mstore\n      0x20\n      add\n        /* \"contracts/antugrowtransfer.sol\":1172:1181  _duration */\n      dup4\n        /* \"contracts/antugrowtransfer.sol\":1154:1169  block.timestamp */\n      timestamp\n        /* \"contracts/antugrowtransfer.sol\":1154:1181  block.timestamp + _duration */\n      tag_98\n      swap2\n      swap1\n      tag_76\n      jump\t// in\n    tag_98:\n        /* \"contracts/antugrowtransfer.sol\":1034:1220  Loan({... */\n      dup2\n      mstore\n      0x20\n      add\n        /* \"contracts/antugrowtransfer.sol\":1205:1209  true */\n      0x01\n        /* \"contracts/antugrowtransfer.sol\":1034:1220  Loan({... */\n      iszero\n      iszero\n      dup2\n      mstore\n      pop\n        /* \"contracts/antugrowtransfer.sol\":1018:1023  loans */\n      0x04\n        /* \"contracts/antugrowtransfer.sol\":1018:1031  loans[loanId] */\n      0x00\n        /* \"contracts/antugrowtransfer.sol\":1024:1030  loanId */\n      dup4\n        /* \"contracts/antugrowtransfer.sol\":1018:1031  loans[loanId] */\n      dup2\n      mstore\n      0x20\n      add\n      swap1\n      dup2\n      mstore\n      0x20\n      add\n      0x00\n      keccak256\n        /* \"contracts/antugrowtransfer.sol\":1018:1220  loans[loanId] = Loan({... */\n      0x00\n      dup3\n      add\n      mload\n      dup2\n      0x00\n      add\n      exp(0x0100, 0x00)\n      dup2\n      sload\n      dup2\n      0xffffffffffffffffffffffffffffffffffffffff\n      mul\n      not\n      and\n      swap1\n      dup4\n      0xffffffffffffffffffffffffffffffffffffffff\n      and\n      mul\n      or\n      swap1\n      sstore\n      pop\n      0x20\n      dup3\n      add\n      mload\n      dup2\n      0x01\n      add\n      sstore\n      0x40\n      dup3\n      add\n      mload\n      dup2\n      0x02\n      add\n      sstore\n      0x60\n      dup3\n      add\n      mload\n      dup2\n      0x03\n      add\n      sstore\n      0x80\n      dup3\n      add\n      mload\n      dup2\n      0x04\n      add\n      exp(0x0100, 0x00)\n      dup2\n      sload\n      dup2\n      0xff\n      mul\n      not\n      and\n      swap1\n      dup4\n      iszero\n      iszero\n      mul\n      or\n      swap1\n      sstore\n      pop\n      swap1\n      pop\n      pop\n        /* \"contracts/antugrowtransfer.sol\":1231:1244  investorLoans */\n      0x05\n        /* \"contracts/antugrowtransfer.sol\":1231:1256  investorLoans[msg.sender] */\n      0x00\n        /* \"contracts/antugrowtransfer.sol\":1245:1255  msg.sender */\n      caller\n        /* \"contracts/antugrowtransfer.sol\":1231:1256  investorLoans[msg.sender] */\n      0xffffffffffffffffffffffffffffffffffffffff\n      and\n      0xffffffffffffffffffffffffffffffffffffffff\n      and\n      dup2\n      mstore\n      0x20\n      add\n      swap1\n      dup2\n      mstore\n      0x20\n      add\n      0x00\n      keccak256\n        /* \"contracts/antugrowtransfer.sol\":1262:1268  loanId */\n      dup2\n        /* \"contracts/antugrowtransfer.sol\":1231:1269  investorLoans[msg.sender].push(loanId) */\n      swap1\n      dup1\n      0x01\n      dup2\n      sload\n      add\n      dup1\n      dup3\n      sstore\n      dup1\n      swap2\n      pop\n      pop\n      0x01\n      swap1\n      sub\n      swap1\n      0x00\n      mstore\n      keccak256(0x00, 0x20)\n      add\n      0x00\n      swap1\n      swap2\n      swap1\n      swap2\n      swap1\n      swap2\n      pop\n      sstore\n        /* \"contracts/antugrowtransfer.sol\":1285:1325  LoanCreated(loanId, msg.sender, _amount) */\n      0x8910ba13a55695f056e224bbbc6b65d866b12a8c2fbdf387fb853a1cca298cd7\n        /* \"contracts/antugrowtransfer.sol\":1297:1303  loanId */\n      dup2\n        /* \"contracts/antugrowtransfer.sol\":1305:1315  msg.sender */\n      caller\n        /* \"contracts/antugrowtransfer.sol\":1317:1324  _amount */\n      dup6\n        /* \"contracts/antugrowtransfer.sol\":1285:1325  LoanCreated(loanId, msg.sender, _amount) */\n      mload(0x40)\n      tag_100\n      swap4\n      swap3\n      swap2\n      swap1\n      tag_101\n      jump\t// in\n    tag_100:\n      mload(0x40)\n      dup1\n      swap2\n      sub\n      swap1\n      log1\n        /* \"contracts/antugrowtransfer.sol\":873:1332  {... */\n      pop\n        /* \"@openzeppelin/contracts/security/ReentrancyGuard.sol\":2303:2323  _nonReentrantAfter() */\n      tag_102\n        /* \"@openzeppelin/contracts/security/ReentrancyGuard.sol\":2303:2321  _nonReentrantAfter */\n      tag_86\n        /* \"@openzeppelin/contracts/security/ReentrancyGuard.sol\":2303:2323  _nonReentrantAfter() */\n      jump\t// in\n    tag_102:\n        /* \"contracts/antugrowtransfer.sol\":795:1332  function createLoan(uint256 _amount, uint256 _duration) external nonReentrant {... */\n      pop\n      pop\n      jump\t// out\n        /* \"contracts/antugrowtransfer.sol\":431:459  uint256 public loanIdCounter */\n    tag_37:\n      sload(0x03)\n      dup2\n      jump\t// out\n        /* \"contracts/antugrowtransfer.sol\":1969:2103  function getInvestorLoans(address _investor) external view returns (uint256[] memory) {... */\n    tag_42:\n        /* \"contracts/antugrowtransfer.sol\":2037:2053  uint256[] memory */\n      0x60\n        /* \"contracts/antugrowtransfer.sol\":2072:2085  investorLoans */\n      0x05\n        /* \"contracts/antugrowtransfer.sol\":2072:2096  investorLoans[_investor] */\n      0x00\n        /* \"contracts/antugrowtransfer.sol\":2086:2095  _investor */\n      dup4\n        /* \"contracts/antugrowtransfer.sol\":2072:2096  investorLoans[_investor] */\n      0xffffffffffffffffffffffffffffffffffffffff\n      and\n      0xffffffffffffffffffffffffffffffffffffffff\n      and\n      dup2\n      mstore\n      0x20\n      add\n      swap1\n      dup2\n      mstore\n      0x20\n      add\n      0x00\n      keccak256\n        /* \"contracts/antugrowtransfer.sol\":2065:2096  return investorLoans[_investor] */\n      dup1\n      sload\n      dup1\n      0x20\n      mul\n      0x20\n      add\n      mload(0x40)\n      swap1\n      dup2\n      add\n      0x40\n      mstore\n      dup1\n      swap3\n      swap2\n      swap1\n      dup2\n      dup2\n      mstore\n      0x20\n      add\n      dup3\n      dup1\n      sload\n      dup1\n      iszero\n      tag_104\n      jumpi\n      0x20\n      mul\n      dup3\n      add\n      swap2\n      swap1\n      0x00\n      mstore\n      keccak256(0x00, 0x20)\n      swap1\n    tag_105:\n      dup2\n      sload\n      dup2\n      mstore\n      0x20\n      add\n      swap1\n      0x01\n      add\n      swap1\n      dup1\n      dup4\n      gt\n      tag_105\n      jumpi\n    tag_104:\n      pop\n      pop\n      pop\n      pop\n      pop\n      swap1\n      pop\n        /* \"contracts/antugrowtransfer.sol\":1969:2103  function getInvestorLoans(address _investor) external view returns (uint256[] memory) {... */\n      swap2\n      swap1\n      pop\n      jump\t// out\n        /* \"contracts/antugrowtransfer.sol\":466:503  mapping(uint256 => Loan) public loans */\n    tag_47:\n      mstore(0x20, 0x04)\n      dup1\n      0x00\n      mstore\n      keccak256(0x00, 0x40)\n      0x00\n      swap2\n      pop\n      swap1\n      pop\n      dup1\n      0x00\n      add\n      0x00\n      swap1\n      sload\n      swap1\n      0x0100\n      exp\n      swap1\n      div\n      0xffffffffffffffffffffffffffffffffffffffff\n      and\n      swap1\n      dup1\n      0x01\n      add\n      sload\n      swap1\n      dup1\n      0x02\n      add\n      sload\n      swap1\n      dup1\n      0x03\n      add\n      sload\n      swap1\n      dup1\n      0x04\n      add\n      0x00\n      swap1\n      sload\n      swap1\n      0x0100\n      exp\n      swap1\n      div\n      0xff\n      and\n      swap1\n      pop\n      dup6\n      jump\t// out\n        /* \"contracts/antugrowtransfer.sol\":380:399  IERC20 public token */\n    tag_51:\n      0x01\n      0x00\n      swap1\n      sload\n      swap1\n      0x0100\n      exp\n      swap1\n      div\n      0xffffffffffffffffffffffffffffffffffffffff\n      and\n      dup2\n      jump\t// out\n        /* \"@openzeppelin/contracts/security/ReentrancyGuard.sol\":2336:2623  function _nonReentrantBefore() private {... */\n    tag_61:\n        /* \"@openzeppelin/contracts/security/ReentrancyGuard.sol\":1759:1760  2 */\n      0x02\n        /* \"@openzeppelin/contracts/security/ReentrancyGuard.sol\":2468:2475  _status */\n      sload(0x00)\n        /* \"@openzeppelin/contracts/security/ReentrancyGuard.sol\":2468:2487  _status != _ENTERED */\n      sub\n        /* \"@openzeppelin/contracts/security/ReentrancyGuard.sol\":2460:2523  require(_status != _ENTERED, \"ReentrancyGuard: reentrant call\") */\n      tag_107\n      jumpi\n      mload(0x40)\n      0x08c379a000000000000000000000000000000000000000000000000000000000\n      dup2\n      mstore\n      0x04\n      add\n      tag_108\n      swap1\n      tag_109\n      jump\t// in\n    tag_108:\n      mload(0x40)\n      dup1\n      swap2\n      sub\n      swap1\n      revert\n    tag_107:\n        /* \"@openzeppelin/contracts/security/ReentrancyGuard.sol\":1759:1760  2 */\n      0x02\n        /* \"@openzeppelin/contracts/security/ReentrancyGuard.sol\":2598:2605  _status */\n      0x00\n        /* \"@openzeppelin/contracts/security/ReentrancyGuard.sol\":2598:2616  _status = _ENTERED */\n      dup2\n      swap1\n      sstore\n      pop\n        /* \"@openzeppelin/contracts/security/ReentrancyGuard.sol\":2336:2623  function _nonReentrantBefore() private {... */\n      jump\t// out\n        /* \"@openzeppelin/contracts/security/ReentrancyGuard.sol\":2629:2838  function _nonReentrantAfter() private {... */\n    tag_86:\n        /* \"@openzeppelin/contracts/security/ReentrancyGuard.sol\":1716:1717  1 */\n      0x01\n        /* \"@openzeppelin/contracts/security/ReentrancyGuard.sol\":2809:2816  _status */\n      0x00\n        /* \"@openzeppelin/contracts/security/ReentrancyGuard.sol\":2809:2831  _status = _NOT_ENTERED */\n      dup2\n      swap1\n      sstore\n      pop\n        /* \"@openzeppelin/contracts/security/ReentrancyGuard.sol\":2629:2838  function _nonReentrantAfter() private {... */\n      jump\t// out\n    tag_57:\n      mload(0x40)\n      dup1\n      0xa0\n      add\n      0x40\n      mstore\n      dup1\n      and(0xffffffffffffffffffffffffffffffffffffffff, 0x00)\n      dup2\n      mstore\n      0x20\n      add\n      0x00\n      dup2\n      mstore\n      0x20\n      add\n      0x00\n      dup2\n      mstore\n      0x20\n      add\n      0x00\n      dup2\n      mstore\n      0x20\n      add\n      iszero(iszero(0x00))\n      dup2\n      mstore\n      pop\n      swap1\n      jump\t// out\n        /* \"#utility.yul\":88:205   */\n    tag_112:\n        /* \"#utility.yul\":197:198   */\n      0x00\n        /* \"#utility.yul\":194:195   */\n      dup1\n        /* \"#utility.yul\":187:199   */\n      revert\n        /* \"#utility.yul\":334:460   */\n    tag_114:\n        /* \"#utility.yul\":371:378   */\n      0x00\n        /* \"#utility.yul\":411:453   */\n      0xffffffffffffffffffffffffffffffffffffffff\n        /* \"#utility.yul\":404:409   */\n      dup3\n        /* \"#utility.yul\":400:454   */\n      and\n        /* \"#utility.yul\":389:454   */\n      swap1\n      pop\n        /* \"#utility.yul\":334:460   */\n      swap2\n      swap1\n      pop\n      jump\t// out\n        /* \"#utility.yul\":466:562   */\n    tag_115:\n        /* \"#utility.yul\":503:510   */\n      0x00\n        /* \"#utility.yul\":532:556   */\n      tag_156\n        /* \"#utility.yul\":550:555   */\n      dup3\n        /* \"#utility.yul\":532:556   */\n      tag_114\n      jump\t// in\n    tag_156:\n        /* \"#utility.yul\":521:556   */\n      swap1\n      pop\n        /* \"#utility.yul\":466:562   */\n      swap2\n      swap1\n      pop\n      jump\t// out\n        /* \"#utility.yul\":568:690   */\n    tag_116:\n        /* \"#utility.yul\":641:665   */\n      tag_158\n        /* \"#utility.yul\":659:664   */\n      dup2\n        /* \"#utility.yul\":641:665   */\n      tag_115\n      jump\t// in\n    tag_158:\n        /* \"#utility.yul\":634:639   */\n      dup2\n        /* \"#utility.yul\":631:666   */\n      eq\n        /* \"#utility.yul\":621:684   */\n      tag_159\n      jumpi\n        /* \"#utility.yul\":680:681   */\n      0x00\n        /* \"#utility.yul\":677:678   */\n      dup1\n        /* \"#utility.yul\":670:682   */\n      revert\n        /* \"#utility.yul\":621:684   */\n    tag_159:\n        /* \"#utility.yul\":568:690   */\n      pop\n      jump\t// out\n        /* \"#utility.yul\":696:835   */\n    tag_117:\n        /* \"#utility.yul\":742:747   */\n      0x00\n        /* \"#utility.yul\":780:786   */\n      dup2\n        /* \"#utility.yul\":767:787   */\n      calldataload\n        /* \"#utility.yul\":758:787   */\n      swap1\n      pop\n        /* \"#utility.yul\":796:829   */\n      tag_161\n        /* \"#utility.yul\":823:828   */\n      dup2\n        /* \"#utility.yul\":796:829   */\n      tag_116\n      jump\t// in\n    tag_161:\n        /* \"#utility.yul\":696:835   */\n      swap3\n      swap2\n      pop\n      pop\n      jump\t// out\n        /* \"#utility.yul\":841:918   */\n    tag_118:\n        /* \"#utility.yul\":878:885   */\n      0x00\n        /* \"#utility.yul\":907:912   */\n      dup2\n        /* \"#utility.yul\":896:912   */\n      swap1\n      pop\n        /* \"#utility.yul\":841:918   */\n      swap2\n      swap1\n      pop\n      jump\t// out\n        /* \"#utility.yul\":924:1046   */\n    tag_119:\n        /* \"#utility.yul\":997:1021   */\n      tag_164\n        /* \"#utility.yul\":1015:1020   */\n      dup2\n        /* \"#utility.yul\":997:1021   */\n      tag_118\n      jump\t// in\n    tag_164:\n        /* \"#utility.yul\":990:995   */\n      dup2\n        /* \"#utility.yul\":987:1022   */\n      eq\n        /* \"#utility.yul\":977:1040   */\n      tag_165\n      jumpi\n        /* \"#utility.yul\":1036:1037   */\n      0x00\n        /* \"#utility.yul\":1033:1034   */\n      dup1\n        /* \"#utility.yul\":1026:1038   */\n      revert\n        /* \"#utility.yul\":977:1040   */\n    tag_165:\n        /* \"#utility.yul\":924:1046   */\n      pop\n      jump\t// out\n        /* \"#utility.yul\":1052:1191   */\n    tag_120:\n        /* \"#utility.yul\":1098:1103   */\n      0x00\n        /* \"#utility.yul\":1136:1142   */\n      dup2\n        /* \"#utility.yul\":1123:1143   */\n      calldataload\n        /* \"#utility.yul\":1114:1143   */\n      swap1\n      pop\n        /* \"#utility.yul\":1152:1185   */\n      tag_167\n        /* \"#utility.yul\":1179:1184   */\n      dup2\n        /* \"#utility.yul\":1152:1185   */\n      tag_119\n      jump\t// in\n    tag_167:\n        /* \"#utility.yul\":1052:1191   */\n      swap3\n      swap2\n      pop\n      pop\n      jump\t// out\n        /* \"#utility.yul\":1197:1671   */\n    tag_15:\n        /* \"#utility.yul\":1265:1271   */\n      0x00\n        /* \"#utility.yul\":1273:1279   */\n      dup1\n        /* \"#utility.yul\":1322:1324   */\n      0x40\n        /* \"#utility.yul\":1310:1319   */\n      dup4\n        /* \"#utility.yul\":1301:1308   */\n      dup6\n        /* \"#utility.yul\":1297:1320   */\n      sub\n        /* \"#utility.yul\":1293:1325   */\n      slt\n        /* \"#utility.yul\":1290:1409   */\n      iszero\n      tag_169\n      jumpi\n        /* \"#utility.yul\":1328:1407   */\n      tag_170\n      tag_112\n      jump\t// in\n    tag_170:\n        /* \"#utility.yul\":1290:1409   */\n    tag_169:\n        /* \"#utility.yul\":1448:1449   */\n      0x00\n        /* \"#utility.yul\":1473:1526   */\n      tag_171\n        /* \"#utility.yul\":1518:1525   */\n      dup6\n        /* \"#utility.yul\":1509:1515   */\n      dup3\n        /* \"#utility.yul\":1498:1507   */\n      dup7\n        /* \"#utility.yul\":1494:1516   */\n      add\n        /* \"#utility.yul\":1473:1526   */\n      tag_117\n      jump\t// in\n    tag_171:\n        /* \"#utility.yul\":1463:1526   */\n      swap3\n      pop\n        /* \"#utility.yul\":1419:1536   */\n      pop\n        /* \"#utility.yul\":1575:1577   */\n      0x20\n        /* \"#utility.yul\":1601:1654   */\n      tag_172\n        /* \"#utility.yul\":1646:1653   */\n      dup6\n        /* \"#utility.yul\":1637:1643   */\n      dup3\n        /* \"#utility.yul\":1626:1635   */\n      dup7\n        /* \"#utility.yul\":1622:1644   */\n      add\n        /* \"#utility.yul\":1601:1654   */\n      tag_120\n      jump\t// in\n    tag_172:\n        /* \"#utility.yul\":1591:1654   */\n      swap2\n      pop\n        /* \"#utility.yul\":1546:1664   */\n      pop\n        /* \"#utility.yul\":1197:1671   */\n      swap3\n      pop\n      swap3\n      swap1\n      pop\n      jump\t// out\n        /* \"#utility.yul\":1677:1795   */\n    tag_121:\n        /* \"#utility.yul\":1764:1788   */\n      tag_174\n        /* \"#utility.yul\":1782:1787   */\n      dup2\n        /* \"#utility.yul\":1764:1788   */\n      tag_118\n      jump\t// in\n    tag_174:\n        /* \"#utility.yul\":1759:1762   */\n      dup3\n        /* \"#utility.yul\":1752:1789   */\n      mstore\n        /* \"#utility.yul\":1677:1795   */\n      pop\n      pop\n      jump\t// out\n        /* \"#utility.yul\":1801:2023   */\n    tag_18:\n        /* \"#utility.yul\":1894:1898   */\n      0x00\n        /* \"#utility.yul\":1932:1934   */\n      0x20\n        /* \"#utility.yul\":1921:1930   */\n      dup3\n        /* \"#utility.yul\":1917:1935   */\n      add\n        /* \"#utility.yul\":1909:1935   */\n      swap1\n      pop\n        /* \"#utility.yul\":1945:2016   */\n      tag_176\n        /* \"#utility.yul\":2013:2014   */\n      0x00\n        /* \"#utility.yul\":2002:2011   */\n      dup4\n        /* \"#utility.yul\":1998:2015   */\n      add\n        /* \"#utility.yul\":1989:1995   */\n      dup5\n        /* \"#utility.yul\":1945:2016   */\n      tag_121\n      jump\t// in\n    tag_176:\n        /* \"#utility.yul\":1801:2023   */\n      swap3\n      swap2\n      pop\n      pop\n      jump\t// out\n        /* \"#utility.yul\":2029:2358   */\n    tag_21:\n        /* \"#utility.yul\":2088:2094   */\n      0x00\n        /* \"#utility.yul\":2137:2139   */\n      0x20\n        /* \"#utility.yul\":2125:2134   */\n      dup3\n        /* \"#utility.yul\":2116:2123   */\n      dup5\n        /* \"#utility.yul\":2112:2135   */\n      sub\n        /* \"#utility.yul\":2108:2140   */\n      slt\n        /* \"#utility.yul\":2105:2224   */\n      iszero\n      tag_178\n      jumpi\n        /* \"#utility.yul\":2143:2222   */\n      tag_179\n      tag_112\n      jump\t// in\n    tag_179:\n        /* \"#utility.yul\":2105:2224   */\n    tag_178:\n        /* \"#utility.yul\":2263:2264   */\n      0x00\n        /* \"#utility.yul\":2288:2341   */\n      tag_180\n        /* \"#utility.yul\":2333:2340   */\n      dup5\n        /* \"#utility.yul\":2324:2330   */\n      dup3\n        /* \"#utility.yul\":2313:2322   */\n      dup6\n        /* \"#utility.yul\":2309:2331   */\n      add\n        /* \"#utility.yul\":2288:2341   */\n      tag_120\n      jump\t// in\n    tag_180:\n        /* \"#utility.yul\":2278:2341   */\n      swap2\n      pop\n        /* \"#utility.yul\":2234:2351   */\n      pop\n        /* \"#utility.yul\":2029:2358   */\n      swap3\n      swap2\n      pop\n      pop\n      jump\t// out\n        /* \"#utility.yul\":2364:2472   */\n    tag_122:\n        /* \"#utility.yul\":2441:2465   */\n      tag_182\n        /* \"#utility.yul\":2459:2464   */\n      dup2\n        /* \"#utility.yul\":2441:2465   */\n      tag_115\n      jump\t// in\n    tag_182:\n        /* \"#utility.yul\":2436:2439   */\n      dup3\n        /* \"#utility.yul\":2429:2466   */\n      mstore\n        /* \"#utility.yul\":2364:2472   */\n      pop\n      pop\n      jump\t// out\n        /* \"#utility.yul\":2478:2586   */\n    tag_123:\n        /* \"#utility.yul\":2555:2579   */\n      tag_184\n        /* \"#utility.yul\":2573:2578   */\n      dup2\n        /* \"#utility.yul\":2555:2579   */\n      tag_118\n      jump\t// in\n    tag_184:\n        /* \"#utility.yul\":2550:2553   */\n      dup3\n        /* \"#utility.yul\":2543:2580   */\n      mstore\n        /* \"#utility.yul\":2478:2586   */\n      pop\n      pop\n      jump\t// out\n        /* \"#utility.yul\":2592:2682   */\n    tag_124:\n        /* \"#utility.yul\":2626:2633   */\n      0x00\n        /* \"#utility.yul\":2669:2674   */\n      dup2\n        /* \"#utility.yul\":2662:2675   */\n      iszero\n        /* \"#utility.yul\":2655:2676   */\n      iszero\n        /* \"#utility.yul\":2644:2676   */\n      swap1\n      pop\n        /* \"#utility.yul\":2592:2682   */\n      swap2\n      swap1\n      pop\n      jump\t// out\n        /* \"#utility.yul\":2688:2787   */\n    tag_125:\n        /* \"#utility.yul\":2759:2780   */\n      tag_187\n        /* \"#utility.yul\":2774:2779   */\n      dup2\n        /* \"#utility.yul\":2759:2780   */\n      tag_124\n      jump\t// in\n    tag_187:\n        /* \"#utility.yul\":2754:2757   */\n      dup3\n        /* \"#utility.yul\":2747:2781   */\n      mstore\n        /* \"#utility.yul\":2688:2787   */\n      pop\n      pop\n      jump\t// out\n        /* \"#utility.yul\":2857:3893   */\n    tag_126:\n        /* \"#utility.yul\":2996:3000   */\n      0xa0\n        /* \"#utility.yul\":2991:2994   */\n      dup3\n        /* \"#utility.yul\":2987:3001   */\n      add\n        /* \"#utility.yul\":3087:3091   */\n      0x00\n        /* \"#utility.yul\":3080:3085   */\n      dup3\n        /* \"#utility.yul\":3076:3092   */\n      add\n        /* \"#utility.yul\":3070:3093   */\n      mload\n        /* \"#utility.yul\":3106:3169   */\n      tag_189\n        /* \"#utility.yul\":3163:3167   */\n      0x00\n        /* \"#utility.yul\":3158:3161   */\n      dup6\n        /* \"#utility.yul\":3154:3168   */\n      add\n        /* \"#utility.yul\":3140:3152   */\n      dup3\n        /* \"#utility.yul\":3106:3169   */\n      tag_122\n      jump\t// in\n    tag_189:\n        /* \"#utility.yul\":3011:3179   */\n      pop\n        /* \"#utility.yul\":3263:3267   */\n      0x20\n        /* \"#utility.yul\":3256:3261   */\n      dup3\n        /* \"#utility.yul\":3252:3268   */\n      add\n        /* \"#utility.yul\":3246:3269   */\n      mload\n        /* \"#utility.yul\":3282:3345   */\n      tag_190\n        /* \"#utility.yul\":3339:3343   */\n      0x20\n        /* \"#utility.yul\":3334:3337   */\n      dup6\n        /* \"#utility.yul\":3330:3344   */\n      add\n        /* \"#utility.yul\":3316:3328   */\n      dup3\n        /* \"#utility.yul\":3282:3345   */\n      tag_123\n      jump\t// in\n    tag_190:\n        /* \"#utility.yul\":3189:3355   */\n      pop\n        /* \"#utility.yul\":3445:3449   */\n      0x40\n        /* \"#utility.yul\":3438:3443   */\n      dup3\n        /* \"#utility.yul\":3434:3450   */\n      add\n        /* \"#utility.yul\":3428:3451   */\n      mload\n        /* \"#utility.yul\":3464:3527   */\n      tag_191\n        /* \"#utility.yul\":3521:3525   */\n      0x40\n        /* \"#utility.yul\":3516:3519   */\n      dup6\n        /* \"#utility.yul\":3512:3526   */\n      add\n        /* \"#utility.yul\":3498:3510   */\n      dup3\n        /* \"#utility.yul\":3464:3527   */\n      tag_123\n      jump\t// in\n    tag_191:\n        /* \"#utility.yul\":3365:3537   */\n      pop\n        /* \"#utility.yul\":3622:3626   */\n      0x60\n        /* \"#utility.yul\":3615:3620   */\n      dup3\n        /* \"#utility.yul\":3611:3627   */\n      add\n        /* \"#utility.yul\":3605:3628   */\n      mload\n        /* \"#utility.yul\":3641:3704   */\n      tag_192\n        /* \"#utility.yul\":3698:3702   */\n      0x60\n        /* \"#utility.yul\":3693:3696   */\n      dup6\n        /* \"#utility.yul\":3689:3703   */\n      add\n        /* \"#utility.yul\":3675:3687   */\n      dup3\n        /* \"#utility.yul\":3641:3704   */\n      tag_123\n      jump\t// in\n    tag_192:\n        /* \"#utility.yul\":3547:3714   */\n      pop\n        /* \"#utility.yul\":3800:3804   */\n      0x80\n        /* \"#utility.yul\":3793:3798   */\n      dup3\n        /* \"#utility.yul\":3789:3805   */\n      add\n        /* \"#utility.yul\":3783:3806   */\n      mload\n        /* \"#utility.yul\":3819:3876   */\n      tag_193\n        /* \"#utility.yul\":3870:3874   */\n      0x80\n        /* \"#utility.yul\":3865:3868   */\n      dup6\n        /* \"#utility.yul\":3861:3875   */\n      add\n        /* \"#utility.yul\":3847:3859   */\n      dup3\n        /* \"#utility.yul\":3819:3876   */\n      tag_125\n      jump\t// in\n    tag_193:\n        /* \"#utility.yul\":3724:3886   */\n      pop\n        /* \"#utility.yul\":2965:3893   */\n      pop\n        /* \"#utility.yul\":2857:3893   */\n      pop\n      pop\n      jump\t// out\n        /* \"#utility.yul\":3899:4206   */\n    tag_24:\n        /* \"#utility.yul\":4034:4038   */\n      0x00\n        /* \"#utility.yul\":4072:4075   */\n      0xa0\n        /* \"#utility.yul\":4061:4070   */\n      dup3\n        /* \"#utility.yul\":4057:4076   */\n      add\n        /* \"#utility.yul\":4049:4076   */\n      swap1\n      pop\n        /* \"#utility.yul\":4086:4199   */\n      tag_195\n        /* \"#utility.yul\":4196:4197   */\n      0x00\n        /* \"#utility.yul\":4185:4194   */\n      dup4\n        /* \"#utility.yul\":4181:4198   */\n      add\n        /* \"#utility.yul\":4172:4178   */\n      dup5\n        /* \"#utility.yul\":4086:4199   */\n      tag_126\n      jump\t// in\n    tag_195:\n        /* \"#utility.yul\":3899:4206   */\n      swap3\n      swap2\n      pop\n      pop\n      jump\t// out\n        /* \"#utility.yul\":4212:4686   */\n    tag_27:\n        /* \"#utility.yul\":4280:4286   */\n      0x00\n        /* \"#utility.yul\":4288:4294   */\n      dup1\n        /* \"#utility.yul\":4337:4339   */\n      0x40\n        /* \"#utility.yul\":4325:4334   */\n      dup4\n        /* \"#utility.yul\":4316:4323   */\n      dup6\n        /* \"#utility.yul\":4312:4335   */\n      sub\n        /* \"#utility.yul\":4308:4340   */\n      slt\n        /* \"#utility.yul\":4305:4424   */\n      iszero\n      tag_197\n      jumpi\n        /* \"#utility.yul\":4343:4422   */\n      tag_198\n      tag_112\n      jump\t// in\n    tag_198:\n        /* \"#utility.yul\":4305:4424   */\n    tag_197:\n        /* \"#utility.yul\":4463:4464   */\n      0x00\n        /* \"#utility.yul\":4488:4541   */\n      tag_199\n        /* \"#utility.yul\":4533:4540   */\n      dup6\n        /* \"#utility.yul\":4524:4530   */\n      dup3\n        /* \"#utility.yul\":4513:4522   */\n      dup7\n        /* \"#utility.yul\":4509:4531   */\n      add\n        /* \"#utility.yul\":4488:4541   */\n      tag_120\n      jump\t// in\n    tag_199:\n        /* \"#utility.yul\":4478:4541   */\n      swap3\n      pop\n        /* \"#utility.yul\":4434:4551   */\n      pop\n        /* \"#utility.yul\":4590:4592   */\n      0x20\n        /* \"#utility.yul\":4616:4669   */\n      tag_200\n        /* \"#utility.yul\":4661:4668   */\n      dup6\n        /* \"#utility.yul\":4652:4658   */\n      dup3\n        /* \"#utility.yul\":4641:4650   */\n      dup7\n        /* \"#utility.yul\":4637:4659   */\n      add\n        /* \"#utility.yul\":4616:4669   */\n      tag_120\n      jump\t// in\n    tag_200:\n        /* \"#utility.yul\":4606:4669   */\n      swap2\n      pop\n        /* \"#utility.yul\":4561:4679   */\n      pop\n        /* \"#utility.yul\":4212:4686   */\n      swap3\n      pop\n      swap3\n      swap1\n      pop\n      jump\t// out\n        /* \"#utility.yul\":4692:4810   */\n    tag_127:\n        /* \"#utility.yul\":4779:4803   */\n      tag_202\n        /* \"#utility.yul\":4797:4802   */\n      dup2\n        /* \"#utility.yul\":4779:4803   */\n      tag_115\n      jump\t// in\n    tag_202:\n        /* \"#utility.yul\":4774:4777   */\n      dup3\n        /* \"#utility.yul\":4767:4804   */\n      mstore\n        /* \"#utility.yul\":4692:4810   */\n      pop\n      pop\n      jump\t// out\n        /* \"#utility.yul\":4816:5038   */\n    tag_32:\n        /* \"#utility.yul\":4909:4913   */\n      0x00\n        /* \"#utility.yul\":4947:4949   */\n      0x20\n        /* \"#utility.yul\":4936:4945   */\n      dup3\n        /* \"#utility.yul\":4932:4950   */\n      add\n        /* \"#utility.yul\":4924:4950   */\n      swap1\n      pop\n        /* \"#utility.yul\":4960:5031   */\n      tag_204\n        /* \"#utility.yul\":5028:5029   */\n      0x00\n        /* \"#utility.yul\":5017:5026   */\n      dup4\n        /* \"#utility.yul\":5013:5030   */\n      add\n        /* \"#utility.yul\":5004:5010   */\n      dup5\n        /* \"#utility.yul\":4960:5031   */\n      tag_127\n      jump\t// in\n    tag_204:\n        /* \"#utility.yul\":4816:5038   */\n      swap3\n      swap2\n      pop\n      pop\n      jump\t// out\n        /* \"#utility.yul\":5044:5373   */\n    tag_41:\n        /* \"#utility.yul\":5103:5109   */\n      0x00\n        /* \"#utility.yul\":5152:5154   */\n      0x20\n        /* \"#utility.yul\":5140:5149   */\n      dup3\n        /* \"#utility.yul\":5131:5138   */\n      dup5\n        /* \"#utility.yul\":5127:5150   */\n      sub\n        /* \"#utility.yul\":5123:5155   */\n      slt\n        /* \"#utility.yul\":5120:5239   */\n      iszero\n      tag_206\n      jumpi\n        /* \"#utility.yul\":5158:5237   */\n      tag_207\n      tag_112\n      jump\t// in\n    tag_207:\n        /* \"#utility.yul\":5120:5239   */\n    tag_206:\n        /* \"#utility.yul\":5278:5279   */\n      0x00\n        /* \"#utility.yul\":5303:5356   */\n      tag_208\n        /* \"#utility.yul\":5348:5355   */\n      dup5\n        /* \"#utility.yul\":5339:5345   */\n      dup3\n        /* \"#utility.yul\":5328:5337   */\n      dup6\n        /* \"#utility.yul\":5324:5346   */\n      add\n        /* \"#utility.yul\":5303:5356   */\n      tag_117\n      jump\t// in\n    tag_208:\n        /* \"#utility.yul\":5293:5356   */\n      swap2\n      pop\n        /* \"#utility.yul\":5249:5366   */\n      pop\n        /* \"#utility.yul\":5044:5373   */\n      swap3\n      swap2\n      pop\n      pop\n      jump\t// out\n        /* \"#utility.yul\":5379:5493   */\n    tag_128:\n        /* \"#utility.yul\":5446:5452   */\n      0x00\n        /* \"#utility.yul\":5480:5485   */\n      dup2\n        /* \"#utility.yul\":5474:5486   */\n      mload\n        /* \"#utility.yul\":5464:5486   */\n      swap1\n      pop\n        /* \"#utility.yul\":5379:5493   */\n      swap2\n      swap1\n      pop\n      jump\t// out\n        /* \"#utility.yul\":5499:5683   */\n    tag_129:\n        /* \"#utility.yul\":5598:5609   */\n      0x00\n        /* \"#utility.yul\":5632:5638   */\n      dup3\n        /* \"#utility.yul\":5627:5630   */\n      dup3\n        /* \"#utility.yul\":5620:5639   */\n      mstore\n        /* \"#utility.yul\":5672:5676   */\n      0x20\n        /* \"#utility.yul\":5667:5670   */\n      dup3\n        /* \"#utility.yul\":5663:5677   */\n      add\n        /* \"#utility.yul\":5648:5677   */\n      swap1\n      pop\n        /* \"#utility.yul\":5499:5683   */\n      swap3\n      swap2\n      pop\n      pop\n      jump\t// out\n        /* \"#utility.yul\":5689:5821   */\n    tag_130:\n        /* \"#utility.yul\":5756:5760   */\n      0x00\n        /* \"#utility.yul\":5779:5782   */\n      dup2\n        /* \"#utility.yul\":5771:5782   */\n      swap1\n      pop\n        /* \"#utility.yul\":5809:5813   */\n      0x20\n        /* \"#utility.yul\":5804:5807   */\n      dup3\n        /* \"#utility.yul\":5800:5814   */\n      add\n        /* \"#utility.yul\":5792:5814   */\n      swap1\n      pop\n        /* \"#utility.yul\":5689:5821   */\n      swap2\n      swap1\n      pop\n      jump\t// out\n        /* \"#utility.yul\":5827:6006   */\n    tag_131:\n        /* \"#utility.yul\":5896:5906   */\n      0x00\n        /* \"#utility.yul\":5917:5963   */\n      tag_213\n        /* \"#utility.yul\":5959:5962   */\n      dup4\n        /* \"#utility.yul\":5951:5957   */\n      dup4\n        /* \"#utility.yul\":5917:5963   */\n      tag_123\n      jump\t// in\n    tag_213:\n        /* \"#utility.yul\":5995:5999   */\n      0x20\n        /* \"#utility.yul\":5990:5993   */\n      dup4\n        /* \"#utility.yul\":5986:6000   */\n      add\n        /* \"#utility.yul\":5972:6000   */\n      swap1\n      pop\n        /* \"#utility.yul\":5827:6006   */\n      swap3\n      swap2\n      pop\n      pop\n      jump\t// out\n        /* \"#utility.yul\":6012:6125   */\n    tag_132:\n        /* \"#utility.yul\":6082:6086   */\n      0x00\n        /* \"#utility.yul\":6114:6118   */\n      0x20\n        /* \"#utility.yul\":6109:6112   */\n      dup3\n        /* \"#utility.yul\":6105:6119   */\n      add\n        /* \"#utility.yul\":6097:6119   */\n      swap1\n      pop\n        /* \"#utility.yul\":6012:6125   */\n      swap2\n      swap1\n      pop\n      jump\t// out\n        /* \"#utility.yul\":6161:6893   */\n    tag_133:\n        /* \"#utility.yul\":6280:6283   */\n      0x00\n        /* \"#utility.yul\":6309:6363   */\n      tag_216\n        /* \"#utility.yul\":6357:6362   */\n      dup3\n        /* \"#utility.yul\":6309:6363   */\n      tag_128\n      jump\t// in\n    tag_216:\n        /* \"#utility.yul\":6379:6465   */\n      tag_217\n        /* \"#utility.yul\":6458:6464   */\n      dup2\n        /* \"#utility.yul\":6453:6456   */\n      dup6\n        /* \"#utility.yul\":6379:6465   */\n      tag_129\n      jump\t// in\n    tag_217:\n        /* \"#utility.yul\":6372:6465   */\n      swap4\n      pop\n        /* \"#utility.yul\":6489:6545   */\n      tag_218\n        /* \"#utility.yul\":6539:6544   */\n      dup4\n        /* \"#utility.yul\":6489:6545   */\n      tag_130\n      jump\t// in\n    tag_218:\n        /* \"#utility.yul\":6568:6575   */\n      dup1\n        /* \"#utility.yul\":6599:6600   */\n      0x00\n        /* \"#utility.yul\":6584:6868   */\n    tag_219:\n        /* \"#utility.yul\":6609:6615   */\n      dup4\n        /* \"#utility.yul\":6606:6607   */\n      dup2\n        /* \"#utility.yul\":6603:6616   */\n      lt\n        /* \"#utility.yul\":6584:6868   */\n      iszero\n      tag_221\n      jumpi\n        /* \"#utility.yul\":6685:6691   */\n      dup2\n        /* \"#utility.yul\":6679:6692   */\n      mload\n        /* \"#utility.yul\":6712:6775   */\n      tag_222\n        /* \"#utility.yul\":6771:6774   */\n      dup9\n        /* \"#utility.yul\":6756:6769   */\n      dup3\n        /* \"#utility.yul\":6712:6775   */\n      tag_131\n      jump\t// in\n    tag_222:\n        /* \"#utility.yul\":6705:6775   */\n      swap8\n      pop\n        /* \"#utility.yul\":6798:6858   */\n      tag_223\n        /* \"#utility.yul\":6851:6857   */\n      dup4\n        /* \"#utility.yul\":6798:6858   */\n      tag_132\n      jump\t// in\n    tag_223:\n        /* \"#utility.yul\":6788:6858   */\n      swap3\n      pop\n        /* \"#utility.yul\":6644:6868   */\n      pop\n        /* \"#utility.yul\":6631:6632   */\n      0x01\n        /* \"#utility.yul\":6628:6629   */\n      dup2\n        /* \"#utility.yul\":6624:6633   */\n      add\n        /* \"#utility.yul\":6619:6633   */\n      swap1\n      pop\n        /* \"#utility.yul\":6584:6868   */\n      jump(tag_219)\n    tag_221:\n        /* \"#utility.yul\":6588:6602   */\n      pop\n        /* \"#utility.yul\":6884:6887   */\n      dup6\n        /* \"#utility.yul\":6877:6887   */\n      swap4\n      pop\n        /* \"#utility.yul\":6285:6893   */\n      pop\n      pop\n      pop\n        /* \"#utility.yul\":6161:6893   */\n      swap3\n      swap2\n      pop\n      pop\n      jump\t// out\n        /* \"#utility.yul\":6899:7272   */\n    tag_44:\n        /* \"#utility.yul\":7042:7046   */\n      0x00\n        /* \"#utility.yul\":7080:7082   */\n      0x20\n        /* \"#utility.yul\":7069:7078   */\n      dup3\n        /* \"#utility.yul\":7065:7083   */\n      add\n        /* \"#utility.yul\":7057:7083   */\n      swap1\n      pop\n        /* \"#utility.yul\":7129:7138   */\n      dup2\n        /* \"#utility.yul\":7123:7127   */\n      dup2\n        /* \"#utility.yul\":7119:7139   */\n      sub\n        /* \"#utility.yul\":7115:7116   */\n      0x00\n        /* \"#utility.yul\":7104:7113   */\n      dup4\n        /* \"#utility.yul\":7100:7117   */\n      add\n        /* \"#utility.yul\":7093:7140   */\n      mstore\n        /* \"#utility.yul\":7157:7265   */\n      tag_225\n        /* \"#utility.yul\":7260:7264   */\n      dup2\n        /* \"#utility.yul\":7251:7257   */\n      dup5\n        /* \"#utility.yul\":7157:7265   */\n      tag_133\n      jump\t// in\n    tag_225:\n        /* \"#utility.yul\":7149:7265   */\n      swap1\n      pop\n        /* \"#utility.yul\":6899:7272   */\n      swap3\n      swap2\n      pop\n      pop\n      jump\t// out\n        /* \"#utility.yul\":7278:7387   */\n    tag_134:\n        /* \"#utility.yul\":7359:7380   */\n      tag_227\n        /* \"#utility.yul\":7374:7379   */\n      dup2\n        /* \"#utility.yul\":7359:7380   */\n      tag_124\n      jump\t// in\n    tag_227:\n        /* \"#utility.yul\":7354:7357   */\n      dup3\n        /* \"#utility.yul\":7347:7381   */\n      mstore\n        /* \"#utility.yul\":7278:7387   */\n      pop\n      pop\n      jump\t// out\n        /* \"#utility.yul\":7393:8045   */\n    tag_49:\n        /* \"#utility.yul\":7592:7596   */\n      0x00\n        /* \"#utility.yul\":7630:7633   */\n      0xa0\n        /* \"#utility.yul\":7619:7628   */\n      dup3\n        /* \"#utility.yul\":7615:7634   */\n      add\n        /* \"#utility.yul\":7607:7634   */\n      swap1\n      pop\n        /* \"#utility.yul\":7644:7715   */\n      tag_229\n        /* \"#utility.yul\":7712:7713   */\n      0x00\n        /* \"#utility.yul\":7701:7710   */\n      dup4\n        /* \"#utility.yul\":7697:7714   */\n      add\n        /* \"#utility.yul\":7688:7694   */\n      dup9\n        /* \"#utility.yul\":7644:7715   */\n      tag_127\n      jump\t// in\n    tag_229:\n        /* \"#utility.yul\":7725:7797   */\n      tag_230\n        /* \"#utility.yul\":7793:7795   */\n      0x20\n        /* \"#utility.yul\":7782:7791   */\n      dup4\n        /* \"#utility.yul\":7778:7796   */\n      add\n        /* \"#utility.yul\":7769:7775   */\n      dup8\n        /* \"#utility.yul\":7725:7797   */\n      tag_121\n      jump\t// in\n    tag_230:\n        /* \"#utility.yul\":7807:7879   */\n      tag_231\n        /* \"#utility.yul\":7875:7877   */\n      0x40\n        /* \"#utility.yul\":7864:7873   */\n      dup4\n        /* \"#utility.yul\":7860:7878   */\n      add\n        /* \"#utility.yul\":7851:7857   */\n      dup7\n        /* \"#utility.yul\":7807:7879   */\n      tag_121\n      jump\t// in\n    tag_231:\n        /* \"#utility.yul\":7889:7961   */\n      tag_232\n        /* \"#utility.yul\":7957:7959   */\n      0x60\n        /* \"#utility.yul\":7946:7955   */\n      dup4\n        /* \"#utility.yul\":7942:7960   */\n      add\n        /* \"#utility.yul\":7933:7939   */\n      dup6\n        /* \"#utility.yul\":7889:7961   */\n      tag_121\n      jump\t// in\n    tag_232:\n        /* \"#utility.yul\":7971:8038   */\n      tag_233\n        /* \"#utility.yul\":8033:8036   */\n      0x80\n        /* \"#utility.yul\":8022:8031   */\n      dup4\n        /* \"#utility.yul\":8018:8037   */\n      add\n        /* \"#utility.yul\":8009:8015   */\n      dup5\n        /* \"#utility.yul\":7971:8038   */\n      tag_134\n      jump\t// in\n    tag_233:\n        /* \"#utility.yul\":7393:8045   */\n      swap7\n      swap6\n      pop\n      pop\n      pop\n      pop\n      pop\n      pop\n      jump\t// out\n        /* \"#utility.yul\":8051:8111   */\n    tag_135:\n        /* \"#utility.yul\":8079:8082   */\n      0x00\n        /* \"#utility.yul\":8100:8105   */\n      dup2\n        /* \"#utility.yul\":8093:8105   */\n      swap1\n      pop\n        /* \"#utility.yul\":8051:8111   */\n      swap2\n      swap1\n      pop\n      jump\t// out\n        /* \"#utility.yul\":8117:8259   */\n    tag_136:\n        /* \"#utility.yul\":8167:8176   */\n      0x00\n        /* \"#utility.yul\":8200:8253   */\n      tag_236\n        /* \"#utility.yul\":8218:8252   */\n      tag_237\n        /* \"#utility.yul\":8227:8251   */\n      tag_238\n        /* \"#utility.yul\":8245:8250   */\n      dup5\n        /* \"#utility.yul\":8227:8251   */\n      tag_114\n      jump\t// in\n    tag_238:\n        /* \"#utility.yul\":8218:8252   */\n      tag_135\n      jump\t// in\n    tag_237:\n        /* \"#utility.yul\":8200:8253   */\n      tag_114\n      jump\t// in\n    tag_236:\n        /* \"#utility.yul\":8187:8253   */\n      swap1\n      pop\n        /* \"#utility.yul\":8117:8259   */\n      swap2\n      swap1\n      pop\n      jump\t// out\n        /* \"#utility.yul\":8265:8391   */\n    tag_137:\n        /* \"#utility.yul\":8315:8324   */\n      0x00\n        /* \"#utility.yul\":8348:8385   */\n      tag_240\n        /* \"#utility.yul\":8379:8384   */\n      dup3\n        /* \"#utility.yul\":8348:8385   */\n      tag_136\n      jump\t// in\n    tag_240:\n        /* \"#utility.yul\":8335:8385   */\n      swap1\n      pop\n        /* \"#utility.yul\":8265:8391   */\n      swap2\n      swap1\n      pop\n      jump\t// out\n        /* \"#utility.yul\":8397:8537   */\n    tag_138:\n        /* \"#utility.yul\":8461:8470   */\n      0x00\n        /* \"#utility.yul\":8494:8531   */\n      tag_242\n        /* \"#utility.yul\":8525:8530   */\n      dup3\n        /* \"#utility.yul\":8494:8531   */\n      tag_137\n      jump\t// in\n    tag_242:\n        /* \"#utility.yul\":8481:8531   */\n      swap1\n      pop\n        /* \"#utility.yul\":8397:8537   */\n      swap2\n      swap1\n      pop\n      jump\t// out\n        /* \"#utility.yul\":8543:8702   */\n    tag_139:\n        /* \"#utility.yul\":8644:8695   */\n      tag_244\n        /* \"#utility.yul\":8689:8694   */\n      dup2\n        /* \"#utility.yul\":8644:8695   */\n      tag_138\n      jump\t// in\n    tag_244:\n        /* \"#utility.yul\":8639:8642   */\n      dup3\n        /* \"#utility.yul\":8632:8696   */\n      mstore\n        /* \"#utility.yul\":8543:8702   */\n      pop\n      pop\n      jump\t// out\n        /* \"#utility.yul\":8708:8958   */\n    tag_53:\n        /* \"#utility.yul\":8815:8819   */\n      0x00\n        /* \"#utility.yul\":8853:8855   */\n      0x20\n        /* \"#utility.yul\":8842:8851   */\n      dup3\n        /* \"#utility.yul\":8838:8856   */\n      add\n        /* \"#utility.yul\":8830:8856   */\n      swap1\n      pop\n        /* \"#utility.yul\":8866:8951   */\n      tag_246\n        /* \"#utility.yul\":8948:8949   */\n      0x00\n        /* \"#utility.yul\":8937:8946   */\n      dup4\n        /* \"#utility.yul\":8933:8950   */\n      add\n        /* \"#utility.yul\":8924:8930   */\n      dup5\n        /* \"#utility.yul\":8866:8951   */\n      tag_139\n      jump\t// in\n    tag_246:\n        /* \"#utility.yul\":8708:8958   */\n      swap3\n      swap2\n      pop\n      pop\n      jump\t// out\n        /* \"#utility.yul\":8964:9133   */\n    tag_140:\n        /* \"#utility.yul\":9048:9059   */\n      0x00\n        /* \"#utility.yul\":9082:9088   */\n      dup3\n        /* \"#utility.yul\":9077:9080   */\n      dup3\n        /* \"#utility.yul\":9070:9089   */\n      mstore\n        /* \"#utility.yul\":9122:9126   */\n      0x20\n        /* \"#utility.yul\":9117:9120   */\n      dup3\n        /* \"#utility.yul\":9113:9127   */\n      add\n        /* \"#utility.yul\":9098:9127   */\n      swap1\n      pop\n        /* \"#utility.yul\":8964:9133   */\n      swap3\n      swap2\n      pop\n      pop\n      jump\t// out\n        /* \"#utility.yul\":9139:9307   */\n    tag_141:\n        /* \"#utility.yul\":9279:9299   */\n      0x4c6f616e206973206e6f74206163746976650000000000000000000000000000\n        /* \"#utility.yul\":9275:9276   */\n      0x00\n        /* \"#utility.yul\":9267:9273   */\n      dup3\n        /* \"#utility.yul\":9263:9277   */\n      add\n        /* \"#utility.yul\":9256:9300   */\n      mstore\n        /* \"#utility.yul\":9139:9307   */\n      pop\n      jump\t// out\n        /* \"#utility.yul\":9313:9679   */\n    tag_142:\n        /* \"#utility.yul\":9455:9458   */\n      0x00\n        /* \"#utility.yul\":9476:9543   */\n      tag_250\n        /* \"#utility.yul\":9540:9542   */\n      0x12\n        /* \"#utility.yul\":9535:9538   */\n      dup4\n        /* \"#utility.yul\":9476:9543   */\n      tag_140\n      jump\t// in\n    tag_250:\n        /* \"#utility.yul\":9469:9543   */\n      swap2\n      pop\n        /* \"#utility.yul\":9552:9645   */\n      tag_251\n        /* \"#utility.yul\":9641:9644   */\n      dup3\n        /* \"#utility.yul\":9552:9645   */\n      tag_141\n      jump\t// in\n    tag_251:\n        /* \"#utility.yul\":9670:9672   */\n      0x20\n        /* \"#utility.yul\":9665:9668   */\n      dup3\n        /* \"#utility.yul\":9661:9673   */\n      add\n        /* \"#utility.yul\":9654:9673   */\n      swap1\n      pop\n        /* \"#utility.yul\":9313:9679   */\n      swap2\n      swap1\n      pop\n      jump\t// out\n        /* \"#utility.yul\":9685:10104   */\n    tag_65:\n        /* \"#utility.yul\":9851:9855   */\n      0x00\n        /* \"#utility.yul\":9889:9891   */\n      0x20\n        /* \"#utility.yul\":9878:9887   */\n      dup3\n        /* \"#utility.yul\":9874:9892   */\n      add\n        /* \"#utility.yul\":9866:9892   */\n      swap1\n      pop\n        /* \"#utility.yul\":9938:9947   */\n      dup2\n        /* \"#utility.yul\":9932:9936   */\n      dup2\n        /* \"#utility.yul\":9928:9948   */\n      sub\n        /* \"#utility.yul\":9924:9925   */\n      0x00\n        /* \"#utility.yul\":9913:9922   */\n      dup4\n        /* \"#utility.yul\":9909:9926   */\n      add\n        /* \"#utility.yul\":9902:9949   */\n      mstore\n        /* \"#utility.yul\":9966:10097   */\n      tag_253\n        /* \"#utility.yul\":10092:10096   */\n      dup2\n        /* \"#utility.yul\":9966:10097   */\n      tag_142\n      jump\t// in\n    tag_253:\n        /* \"#utility.yul\":9958:10097   */\n      swap1\n      pop\n        /* \"#utility.yul\":9685:10104   */\n      swap2\n      swap1\n      pop\n      jump\t// out\n        /* \"#utility.yul\":10110:10552   */\n    tag_67:\n        /* \"#utility.yul\":10259:10263   */\n      0x00\n        /* \"#utility.yul\":10297:10299   */\n      0x60\n        /* \"#utility.yul\":10286:10295   */\n      dup3\n        /* \"#utility.yul\":10282:10300   */\n      add\n        /* \"#utility.yul\":10274:10300   */\n      swap1\n      pop\n        /* \"#utility.yul\":10310:10381   */\n      tag_255\n        /* \"#utility.yul\":10378:10379   */\n      0x00\n        /* \"#utility.yul\":10367:10376   */\n      dup4\n        /* \"#utility.yul\":10363:10380   */\n      add\n        /* \"#utility.yul\":10354:10360   */\n      dup7\n        /* \"#utility.yul\":10310:10381   */\n      tag_127\n      jump\t// in\n    tag_255:\n        /* \"#utility.yul\":10391:10463   */\n      tag_256\n        /* \"#utility.yul\":10459:10461   */\n      0x20\n        /* \"#utility.yul\":10448:10457   */\n      dup4\n        /* \"#utility.yul\":10444:10462   */\n      add\n        /* \"#utility.yul\":10435:10441   */\n      dup6\n        /* \"#utility.yul\":10391:10463   */\n      tag_127\n      jump\t// in\n    tag_256:\n        /* \"#utility.yul\":10473:10545   */\n      tag_257\n        /* \"#utility.yul\":10541:10543   */\n      0x40\n        /* \"#utility.yul\":10530:10539   */\n      dup4\n        /* \"#utility.yul\":10526:10544   */\n      add\n        /* \"#utility.yul\":10517:10523   */\n      dup5\n        /* \"#utility.yul\":10473:10545   */\n      tag_121\n      jump\t// in\n    tag_257:\n        /* \"#utility.yul\":10110:10552   */\n      swap5\n      swap4\n      pop\n      pop\n      pop\n      pop\n      jump\t// out\n        /* \"#utility.yul\":10558:10674   */\n    tag_143:\n        /* \"#utility.yul\":10628:10649   */\n      tag_259\n        /* \"#utility.yul\":10643:10648   */\n      dup2\n        /* \"#utility.yul\":10628:10649   */\n      tag_124\n      jump\t// in\n    tag_259:\n        /* \"#utility.yul\":10621:10626   */\n      dup2\n        /* \"#utility.yul\":10618:10650   */\n      eq\n        /* \"#utility.yul\":10608:10668   */\n      tag_260\n      jumpi\n        /* \"#utility.yul\":10664:10665   */\n      0x00\n        /* \"#utility.yul\":10661:10662   */\n      dup1\n        /* \"#utility.yul\":10654:10666   */\n      revert\n        /* \"#utility.yul\":10608:10668   */\n    tag_260:\n        /* \"#utility.yul\":10558:10674   */\n      pop\n      jump\t// out\n        /* \"#utility.yul\":10680:10817   */\n    tag_144:\n        /* \"#utility.yul\":10734:10739   */\n      0x00\n        /* \"#utility.yul\":10765:10771   */\n      dup2\n        /* \"#utility.yul\":10759:10772   */\n      mload\n        /* \"#utility.yul\":10750:10772   */\n      swap1\n      pop\n        /* \"#utility.yul\":10781:10811   */\n      tag_262\n        /* \"#utility.yul\":10805:10810   */\n      dup2\n        /* \"#utility.yul\":10781:10811   */\n      tag_143\n      jump\t// in\n    tag_262:\n        /* \"#utility.yul\":10680:10817   */\n      swap3\n      swap2\n      pop\n      pop\n      jump\t// out\n        /* \"#utility.yul\":10823:11168   */\n    tag_71:\n        /* \"#utility.yul\":10890:10896   */\n      0x00\n        /* \"#utility.yul\":10939:10941   */\n      0x20\n        /* \"#utility.yul\":10927:10936   */\n      dup3\n        /* \"#utility.yul\":10918:10925   */\n      dup5\n        /* \"#utility.yul\":10914:10937   */\n      sub\n        /* \"#utility.yul\":10910:10942   */\n      slt\n        /* \"#utility.yul\":10907:11026   */\n      iszero\n      tag_264\n      jumpi\n        /* \"#utility.yul\":10945:11024   */\n      tag_265\n      tag_112\n      jump\t// in\n    tag_265:\n        /* \"#utility.yul\":10907:11026   */\n    tag_264:\n        /* \"#utility.yul\":11065:11066   */\n      0x00\n        /* \"#utility.yul\":11090:11151   */\n      tag_266\n        /* \"#utility.yul\":11143:11150   */\n      dup5\n        /* \"#utility.yul\":11134:11140   */\n      dup3\n        /* \"#utility.yul\":11123:11132   */\n      dup6\n        /* \"#utility.yul\":11119:11141   */\n      add\n        /* \"#utility.yul\":11090:11151   */\n      tag_144\n      jump\t// in\n    tag_266:\n        /* \"#utility.yul\":11080:11151   */\n      swap2\n      pop\n        /* \"#utility.yul\":11036:11161   */\n      pop\n        /* \"#utility.yul\":10823:11168   */\n      swap3\n      swap2\n      pop\n      pop\n      jump\t// out\n        /* \"#utility.yul\":11174:11339   */\n    tag_145:\n        /* \"#utility.yul\":11314:11331   */\n      0x5472616e73666572206661696c65640000000000000000000000000000000000\n        /* \"#utility.yul\":11310:11311   */\n      0x00\n        /* \"#utility.yul\":11302:11308   */\n      dup3\n        /* \"#utility.yul\":11298:11312   */\n      add\n        /* \"#utility.yul\":11291:11332   */\n      mstore\n        /* \"#utility.yul\":11174:11339   */\n      pop\n      jump\t// out\n        /* \"#utility.yul\":11345:11711   */\n    tag_146:\n        /* \"#utility.yul\":11487:11490   */\n      0x00\n        /* \"#utility.yul\":11508:11575   */\n      tag_269\n        /* \"#utility.yul\":11572:11574   */\n      0x0f\n        /* \"#utility.yul\":11567:11570   */\n      dup4\n        /* \"#utility.yul\":11508:11575   */\n      tag_140\n      jump\t// in\n    tag_269:\n        /* \"#utility.yul\":11501:11575   */\n      swap2\n      pop\n        /* \"#utility.yul\":11584:11677   */\n      tag_270\n        /* \"#utility.yul\":11673:11676   */\n      dup3\n        /* \"#utility.yul\":11584:11677   */\n      tag_145\n      jump\t// in\n    tag_270:\n        /* \"#utility.yul\":11702:11704   */\n      0x20\n        /* \"#utility.yul\":11697:11700   */\n      dup3\n        /* \"#utility.yul\":11693:11705   */\n      add\n        /* \"#utility.yul\":11686:11705   */\n      swap1\n      pop\n        /* \"#utility.yul\":11345:11711   */\n      swap2\n      swap1\n      pop\n      jump\t// out\n        /* \"#utility.yul\":11717:12136   */\n    tag_74:\n        /* \"#utility.yul\":11883:11887   */\n      0x00\n        /* \"#utility.yul\":11921:11923   */\n      0x20\n        /* \"#utility.yul\":11910:11919   */\n      dup3\n        /* \"#utility.yul\":11906:11924   */\n      add\n        /* \"#utility.yul\":11898:11924   */\n      swap1\n      pop\n        /* \"#utility.yul\":11970:11979   */\n      dup2\n        /* \"#utility.yul\":11964:11968   */\n      dup2\n        /* \"#utility.yul\":11960:11980   */\n      sub\n        /* \"#utility.yul\":11956:11957   */\n      0x00\n        /* \"#utility.yul\":11945:11954   */\n      dup4\n        /* \"#utility.yul\":11941:11958   */\n      add\n        /* \"#utility.yul\":11934:11981   */\n      mstore\n        /* \"#utility.yul\":11998:12129   */\n      tag_272\n        /* \"#utility.yul\":12124:12128   */\n      dup2\n        /* \"#utility.yul\":11998:12129   */\n      tag_146\n      jump\t// in\n    tag_272:\n        /* \"#utility.yul\":11990:12129   */\n      swap1\n      pop\n        /* \"#utility.yul\":11717:12136   */\n      swap2\n      swap1\n      pop\n      jump\t// out\n        /* \"#utility.yul\":12142:12322   */\n    tag_147:\n        /* \"#utility.yul\":12190:12267   */\n      0x4e487b7100000000000000000000000000000000000000000000000000000000\n        /* \"#utility.yul\":12187:12188   */\n      0x00\n        /* \"#utility.yul\":12180:12268   */\n      mstore\n        /* \"#utility.yul\":12287:12291   */\n      0x11\n        /* \"#utility.yul\":12284:12285   */\n      0x04\n        /* \"#utility.yul\":12277:12292   */\n      mstore\n        /* \"#utility.yul\":12311:12315   */\n      0x24\n        /* \"#utility.yul\":12308:12309   */\n      0x00\n        /* \"#utility.yul\":12301:12316   */\n      revert\n        /* \"#utility.yul\":12328:12519   */\n    tag_76:\n        /* \"#utility.yul\":12368:12371   */\n      0x00\n        /* \"#utility.yul\":12387:12407   */\n      tag_275\n        /* \"#utility.yul\":12405:12406   */\n      dup3\n        /* \"#utility.yul\":12387:12407   */\n      tag_118\n      jump\t// in\n    tag_275:\n        /* \"#utility.yul\":12382:12407   */\n      swap2\n      pop\n        /* \"#utility.yul\":12421:12441   */\n      tag_276\n        /* \"#utility.yul\":12439:12440   */\n      dup4\n        /* \"#utility.yul\":12421:12441   */\n      tag_118\n      jump\t// in\n    tag_276:\n        /* \"#utility.yul\":12416:12441   */\n      swap3\n      pop\n        /* \"#utility.yul\":12464:12465   */\n      dup3\n        /* \"#utility.yul\":12461:12462   */\n      dup3\n        /* \"#utility.yul\":12457:12466   */\n      add\n        /* \"#utility.yul\":12450:12466   */\n      swap1\n      pop\n        /* \"#utility.yul\":12485:12488   */\n      dup1\n        /* \"#utility.yul\":12482:12483   */\n      dup3\n        /* \"#utility.yul\":12479:12489   */\n      gt\n        /* \"#utility.yul\":12476:12512   */\n      iszero\n      tag_277\n      jumpi\n        /* \"#utility.yul\":12492:12510   */\n      tag_278\n      tag_147\n      jump\t// in\n    tag_278:\n        /* \"#utility.yul\":12476:12512   */\n    tag_277:\n        /* \"#utility.yul\":12328:12519   */\n      swap3\n      swap2\n      pop\n      pop\n      jump\t// out\n        /* \"#utility.yul\":12525:12857   */\n    tag_79:\n        /* \"#utility.yul\":12646:12650   */\n      0x00\n        /* \"#utility.yul\":12684:12686   */\n      0x40\n        /* \"#utility.yul\":12673:12682   */\n      dup3\n        /* \"#utility.yul\":12669:12687   */\n      add\n        /* \"#utility.yul\":12661:12687   */\n      swap1\n      pop\n        /* \"#utility.yul\":12697:12768   */\n      tag_280\n        /* \"#utility.yul\":12765:12766   */\n      0x00\n        /* \"#utility.yul\":12754:12763   */\n      dup4\n        /* \"#utility.yul\":12750:12767   */\n      add\n        /* \"#utility.yul\":12741:12747   */\n      dup6\n        /* \"#utility.yul\":12697:12768   */\n      tag_127\n      jump\t// in\n    tag_280:\n        /* \"#utility.yul\":12778:12850   */\n      tag_281\n        /* \"#utility.yul\":12846:12848   */\n      0x20\n        /* \"#utility.yul\":12835:12844   */\n      dup4\n        /* \"#utility.yul\":12831:12849   */\n      add\n        /* \"#utility.yul\":12822:12828   */\n      dup5\n        /* \"#utility.yul\":12778:12850   */\n      tag_121\n      jump\t// in\n    tag_281:\n        /* \"#utility.yul\":12525:12857   */\n      swap4\n      swap3\n      pop\n      pop\n      pop\n      jump\t// out\n        /* \"#utility.yul\":12863:13195   */\n    tag_84:\n        /* \"#utility.yul\":12984:12988   */\n      0x00\n        /* \"#utility.yul\":13022:13024   */\n      0x40\n        /* \"#utility.yul\":13011:13020   */\n      dup3\n        /* \"#utility.yul\":13007:13025   */\n      add\n        /* \"#utility.yul\":12999:13025   */\n      swap1\n      pop\n        /* \"#utility.yul\":13035:13106   */\n      tag_283\n        /* \"#utility.yul\":13103:13104   */\n      0x00\n        /* \"#utility.yul\":13092:13101   */\n      dup4\n        /* \"#utility.yul\":13088:13105   */\n      add\n        /* \"#utility.yul\":13079:13085   */\n      dup6\n        /* \"#utility.yul\":13035:13106   */\n      tag_121\n      jump\t// in\n    tag_283:\n        /* \"#utility.yul\":13116:13188   */\n      tag_284\n        /* \"#utility.yul\":13184:13186   */\n      0x20\n        /* \"#utility.yul\":13173:13182   */\n      dup4\n        /* \"#utility.yul\":13169:13187   */\n      add\n        /* \"#utility.yul\":13160:13166   */\n      dup5\n        /* \"#utility.yul\":13116:13188   */\n      tag_121\n      jump\t// in\n    tag_284:\n        /* \"#utility.yul\":12863:13195   */\n      swap4\n      swap3\n      pop\n      pop\n      pop\n      jump\t// out\n        /* \"#utility.yul\":13201:13434   */\n    tag_97:\n        /* \"#utility.yul\":13240:13243   */\n      0x00\n        /* \"#utility.yul\":13263:13287   */\n      tag_286\n        /* \"#utility.yul\":13281:13286   */\n      dup3\n        /* \"#utility.yul\":13263:13287   */\n      tag_118\n      jump\t// in\n    tag_286:\n        /* \"#utility.yul\":13254:13287   */\n      swap2\n      pop\n        /* \"#utility.yul\":13309:13375   */\n      0xffffffffffffffffffffffffffffffffffffffffffffffffffffffffffffffff\n        /* \"#utility.yul\":13302:13307   */\n      dup3\n        /* \"#utility.yul\":13299:13376   */\n      sub\n        /* \"#utility.yul\":13296:13399   */\n      tag_287\n      jumpi\n        /* \"#utility.yul\":13379:13397   */\n      tag_288\n      tag_147\n      jump\t// in\n    tag_288:\n        /* \"#utility.yul\":13296:13399   */\n    tag_287:\n        /* \"#utility.yul\":13426:13427   */\n      0x01\n        /* \"#utility.yul\":13419:13424   */\n      dup3\n        /* \"#utility.yul\":13415:13428   */\n      add\n        /* \"#utility.yul\":13408:13428   */\n      swap1\n      pop\n        /* \"#utility.yul\":13201:13434   */\n      swap2\n      swap1\n      pop\n      jump\t// out\n        /* \"#utility.yul\":13440:13882   */\n    tag_101:\n        /* \"#utility.yul\":13589:13593   */\n      0x00\n        /* \"#utility.yul\":13627:13629   */\n      0x60\n        /* \"#utility.yul\":13616:13625   */\n      dup3\n        /* \"#utility.yul\":13612:13630   */\n      add\n        /* \"#utility.yul\":13604:13630   */\n      swap1\n      pop\n        /* \"#utility.yul\":13640:13711   */\n      tag_290\n        /* \"#utility.yul\":13708:13709   */\n      0x00\n        /* \"#utility.yul\":13697:13706   */\n      dup4\n        /* \"#utility.yul\":13693:13710   */\n      add\n        /* \"#utility.yul\":13684:13690   */\n      dup7\n        /* \"#utility.yul\":13640:13711   */\n      tag_121\n      jump\t// in\n    tag_290:\n        /* \"#utility.yul\":13721:13793   */\n      tag_291\n        /* \"#utility.yul\":13789:13791   */\n      0x20\n        /* \"#utility.yul\":13778:13787   */\n      dup4\n        /* \"#utility.yul\":13774:13792   */\n      add\n        /* \"#utility.yul\":13765:13771   */\n      dup6\n        /* \"#utility.yul\":13721:13793   */\n      tag_127\n      jump\t// in\n    tag_291:\n        /* \"#utility.yul\":13803:13875   */\n      tag_292\n        /* \"#utility.yul\":13871:13873   */\n      0x40\n        /* \"#utility.yul\":13860:13869   */\n      dup4\n        /* \"#utility.yul\":13856:13874   */\n      add\n        /* \"#utility.yul\":13847:13853   */\n      dup5\n        /* \"#utility.yul\":13803:13875   */\n      tag_121\n      jump\t// in\n    tag_292:\n        /* \"#utility.yul\":13440:13882   */\n      swap5\n      swap4\n      pop\n      pop\n      pop\n      pop\n      jump\t// out\n        /* \"#utility.yul\":13888:14069   */\n    tag_148:\n        /* \"#utility.yul\":14028:14061   */\n      0x5265656e7472616e637947756172643a207265656e7472616e742063616c6c00\n        /* \"#utility.yul\":14024:14025   */\n      0x00\n        /* \"#utility.yul\":14016:14022   */\n      dup3\n        /* \"#utility.yul\":14012:14026   */\n      add\n        /* \"#utility.yul\":14005:14062   */\n      mstore\n        /* \"#utility.yul\":13888:14069   */\n      pop\n      jump\t// out\n        /* \"#utility.yul\":14075:14441   */\n    tag_149:\n        /* \"#utility.yul\":14217:14220   */\n      0x00\n        /* \"#utility.yul\":14238:14305   */\n      tag_295\n        /* \"#utility.yul\":14302:14304   */\n      0x1f\n        /* \"#utility.yul\":14297:14300   */\n      dup4\n        /* \"#utility.yul\":14238:14305   */\n      tag_140\n      jump\t// in\n    tag_295:\n        /* \"#utility.yul\":14231:14305   */\n      swap2\n      pop\n        /* \"#utility.yul\":14314:14407   */\n      tag_296\n        /* \"#utility.yul\":14403:14406   */\n      dup3\n        /* \"#utility.yul\":14314:14407   */\n      tag_148\n      jump\t// in\n    tag_296:\n        /* \"#utility.yul\":14432:14434   */\n      0x20\n        /* \"#utility.yul\":14427:14430   */\n      dup3\n        /* \"#utility.yul\":14423:14435   */\n      add\n        /* \"#utility.yul\":14416:14435   */\n      swap1\n      pop\n        /* \"#utility.yul\":14075:14441   */\n      swap2\n      swap1\n      pop\n      jump\t// out\n        /* \"#utility.yul\":14447:14866   */\n    tag_109:\n        /* \"#utility.yul\":14613:14617   */\n      0x00\n        /* \"#utility.yul\":14651:14653   */\n      0x20\n        /* \"#utility.yul\":14640:14649   */\n      dup3\n        /* \"#utility.yul\":14636:14654   */\n      add\n        /* \"#utility.yul\":14628:14654   */\n      swap1\n      pop\n        /* \"#utility.yul\":14700:14709   */\n      dup2\n        /* \"#utility.yul\":14694:14698   */\n      dup2\n        /* \"#utility.yul\":14690:14710   */\n      sub\n        /* \"#utility.yul\":14686:14687   */\n      0x00\n        /* \"#utility.yul\":14675:14684   */\n      dup4\n        /* \"#utility.yul\":14671:14688   */\n      add\n        /* \"#utility.yul\":14664:14711   */\n      mstore\n        /* \"#utility.yul\":14728:14859   */\n      tag_298\n        /* \"#utility.yul\":14854:14858   */\n      dup2\n        /* \"#utility.yul\":14728:14859   */\n      tag_149\n      jump\t// in\n    tag_298:\n        /* \"#utility.yul\":14720:14859   */\n      swap1\n      pop\n        /* \"#utility.yul\":14447:14866   */\n      swap2\n      swap1\n      pop\n      jump\t// out\n\n    auxdata: 0xa26469706673582212209ae7f565968350586e8338bacfaf6c7b3c7d8d39e355c25440915c0d3a9c29bb64736f6c634300081a0033\n}\n",
				"bytecode": {
					"linkReferences": {},
					"object": "608060405234801561000f575f80fd5b5060405161124f38038061124f8339818101604052810190610031919061011c565b60015f819055508060015f6101000a81548173ffffffffffffffffffffffffffffffffffffffff021916908373ffffffffffffffffffffffffffffffffffffffff1602179055503360025f6101000a81548173ffffffffffffffffffffffffffffffffffffffff021916908373ffffffffffffffffffffffffffffffffffffffff16021790555050610147565b5f80fd5b5f73ffffffffffffffffffffffffffffffffffffffff82169050919050565b5f6100eb826100c2565b9050919050565b6100fb816100e1565b8114610105575f80fd5b50565b5f81519050610116816100f2565b92915050565b5f60208284031215610131576101306100be565b5b5f61013e84828501610108565b91505092915050565b6110fb806101545f395ff3fe608060405234801561000f575f80fd5b5060043610610091575f3560e01c806398cd90b51161006457806398cd90b51461012f5780639d939d161461014b578063a65d808614610169578063e1ec3c6814610199578063fc0c546a146101cd57610091565b8063654cb04e1461009557806366877b8d146100c55780638a700b53146100f55780638da5cb5b14610111575b5f80fd5b6100af60048036038101906100aa9190610a54565b6101eb565b6040516100bc9190610aa1565b60405180910390f35b6100df60048036038101906100da9190610aba565b610216565b6040516100ec9190610b83565b60405180910390f35b61010f600480360381019061010a9190610b9c565b6102cd565b005b610119610564565b6040516101269190610be9565b60405180910390f35b61014960048036038101906101449190610b9c565b610589565b005b610153610810565b6040516101609190610aa1565b60405180910390f35b610183600480360381019061017e9190610c02565b610816565b6040516101909190610cd5565b60405180910390f35b6101b360048036038101906101ae9190610aba565b6108a9565b6040516101c4959493929190610d04565b60405180910390f35b6101d5610906565b6040516101e29190610db0565b60405180910390f35b6005602052815f5260405f208181548110610204575f80fd5b905f5260205f20015f91509150505481565b61021e610981565b60045f8381526020019081526020015f206040518060a00160405290815f82015f9054906101000a900473ffffffffffffffffffffffffffffffffffffffff1673ffffffffffffffffffffffffffffffffffffffff1673ffffffffffffffffffffffffffffffffffffffff168152602001600182015481526020016002820154815260200160038201548152602001600482015f9054906101000a900460ff1615151515815250509050919050565b6102d561092b565b5f60045f8481526020019081526020015f209050806004015f9054906101000a900460ff16610339576040517f08c379a000000000000000000000000000000000000000000000000000000000815260040161033090610e23565b60405180910390fd5b60015f9054906101000a900473ffffffffffffffffffffffffffffffffffffffff1673ffffffffffffffffffffffffffffffffffffffff166323b872dd3330856040518463ffffffff1660e01b815260040161039793929190610e41565b6020604051808303815f875af11580156103b3573d5f803e3d5ffd5b505050506040513d601f19601f820116820180604052508101906103d79190610ea0565b610416576040517f08c379a000000000000000000000000000000000000000000000000000000000815260040161040d90610f15565b60405180910390fd5b81816002015f8282546104299190610f60565b92505081905550806001015481600201541061051e575f816004015f6101000a81548160ff02191690831515021790555060015f9054906101000a900473ffffffffffffffffffffffffffffffffffffffff1673ffffffffffffffffffffffffffffffffffffffff1663a9059cbb825f015f9054906101000a900473ffffffffffffffffffffffffffffffffffffffff1683600101546040518363ffffffff1660e01b81526004016104dc929190610f93565b6020604051808303815f875af11580156104f8573d5f803e3d5ffd5b505050506040513d601f19601f8201168201806040525081019061051c9190610ea0565b505b7f040cee90ee4799897c30ca04e5feb6fa43dbba9b6d084b4b257cdafd84ba013e838360405161054f929190610fba565b60405180910390a150610560610978565b5050565b60025f9054906101000a900473ffffffffffffffffffffffffffffffffffffffff1681565b61059161092b565b60015f9054906101000a900473ffffffffffffffffffffffffffffffffffffffff1673ffffffffffffffffffffffffffffffffffffffff166323b872dd3330856040518463ffffffff1660e01b81526004016105ef93929190610e41565b6020604051808303815f875af115801561060b573d5f803e3d5ffd5b505050506040513d601f19601f8201168201806040525081019061062f9190610ea0565b61066e576040517f08c379a000000000000000000000000000000000000000000000000000000000815260040161066590610f15565b60405180910390fd5b5f60035f81548092919061068190610fe1565b9190505590506040518060a001604052803373ffffffffffffffffffffffffffffffffffffffff1681526020018481526020015f815260200183426106c69190610f60565b81526020016001151581525060045f8381526020019081526020015f205f820151815f015f6101000a81548173ffffffffffffffffffffffffffffffffffffffff021916908373ffffffffffffffffffffffffffffffffffffffff1602179055506020820151816001015560408201518160020155606082015181600301556080820151816004015f6101000a81548160ff02191690831515021790555090505060055f3373ffffffffffffffffffffffffffffffffffffffff1673ffffffffffffffffffffffffffffffffffffffff1681526020019081526020015f2081908060018154018082558091505060019003905f5260205f20015f90919091909150557f8910ba13a55695f056e224bbbc6b65d866b12a8c2fbdf387fb853a1cca298cd78133856040516107fb93929190611028565b60405180910390a15061080c610978565b5050565b60035481565b606060055f8373ffffffffffffffffffffffffffffffffffffffff1673ffffffffffffffffffffffffffffffffffffffff1681526020019081526020015f2080548060200260200160405190810160405280929190818152602001828054801561089d57602002820191905f5260205f20905b815481526020019060010190808311610889575b50505050509050919050565b6004602052805f5260405f205f91509050805f015f9054906101000a900473ffffffffffffffffffffffffffffffffffffffff1690806001015490806002015490806003015490806004015f9054906101000a900460ff16905085565b60015f9054906101000a900473ffffffffffffffffffffffffffffffffffffffff1681565b60025f540361096f576040517f08c379a0000000000000000000000000000000000000000000000000000000008152600401610966906110a7565b60405180910390fd5b60025f81905550565b60015f81905550565b6040518060a001604052805f73ffffffffffffffffffffffffffffffffffffffff1681526020015f81526020015f81526020015f81526020015f151581525090565b5f80fd5b5f73ffffffffffffffffffffffffffffffffffffffff82169050919050565b5f6109f0826109c7565b9050919050565b610a00816109e6565b8114610a0a575f80fd5b50565b5f81359050610a1b816109f7565b92915050565b5f819050919050565b610a3381610a21565b8114610a3d575f80fd5b50565b5f81359050610a4e81610a2a565b92915050565b5f8060408385031215610a6a57610a696109c3565b5b5f610a7785828601610a0d565b9250506020610a8885828601610a40565b9150509250929050565b610a9b81610a21565b82525050565b5f602082019050610ab45f830184610a92565b92915050565b5f60208284031215610acf57610ace6109c3565b5b5f610adc84828501610a40565b91505092915050565b610aee816109e6565b82525050565b610afd81610a21565b82525050565b5f8115159050919050565b610b1781610b03565b82525050565b60a082015f820151610b315f850182610ae5565b506020820151610b446020850182610af4565b506040820151610b576040850182610af4565b506060820151610b6a6060850182610af4565b506080820151610b7d6080850182610b0e565b50505050565b5f60a082019050610b965f830184610b1d565b92915050565b5f8060408385031215610bb257610bb16109c3565b5b5f610bbf85828601610a40565b9250506020610bd085828601610a40565b9150509250929050565b610be3816109e6565b82525050565b5f602082019050610bfc5f830184610bda565b92915050565b5f60208284031215610c1757610c166109c3565b5b5f610c2484828501610a0d565b91505092915050565b5f81519050919050565b5f82825260208201905092915050565b5f819050602082019050919050565b5f610c618383610af4565b60208301905092915050565b5f602082019050919050565b5f610c8382610c2d565b610c8d8185610c37565b9350610c9883610c47565b805f5b83811015610cc8578151610caf8882610c56565b9750610cba83610c6d565b925050600181019050610c9b565b5085935050505092915050565b5f6020820190508181035f830152610ced8184610c79565b905092915050565b610cfe81610b03565b82525050565b5f60a082019050610d175f830188610bda565b610d246020830187610a92565b610d316040830186610a92565b610d3e6060830185610a92565b610d4b6080830184610cf5565b9695505050505050565b5f819050919050565b5f610d78610d73610d6e846109c7565b610d55565b6109c7565b9050919050565b5f610d8982610d5e565b9050919050565b5f610d9a82610d7f565b9050919050565b610daa81610d90565b82525050565b5f602082019050610dc35f830184610da1565b92915050565b5f82825260208201905092915050565b7f4c6f616e206973206e6f742061637469766500000000000000000000000000005f82015250565b5f610e0d601283610dc9565b9150610e1882610dd9565b602082019050919050565b5f6020820190508181035f830152610e3a81610e01565b9050919050565b5f606082019050610e545f830186610bda565b610e616020830185610bda565b610e6e6040830184610a92565b949350505050565b610e7f81610b03565b8114610e89575f80fd5b50565b5f81519050610e9a81610e76565b92915050565b5f60208284031215610eb557610eb46109c3565b5b5f610ec284828501610e8c565b91505092915050565b7f5472616e73666572206661696c656400000000000000000000000000000000005f82015250565b5f610eff600f83610dc9565b9150610f0a82610ecb565b602082019050919050565b5f6020820190508181035f830152610f2c81610ef3565b9050919050565b7f4e487b71000000000000000000000000000000000000000000000000000000005f52601160045260245ffd5b5f610f6a82610a21565b9150610f7583610a21565b9250828201905080821115610f8d57610f8c610f33565b5b92915050565b5f604082019050610fa65f830185610bda565b610fb36020830184610a92565b9392505050565b5f604082019050610fcd5f830185610a92565b610fda6020830184610a92565b9392505050565b5f610feb82610a21565b91507fffffffffffffffffffffffffffffffffffffffffffffffffffffffffffffffff820361101d5761101c610f33565b5b600182019050919050565b5f60608201905061103b5f830186610a92565b6110486020830185610bda565b6110556040830184610a92565b949350505050565b7f5265656e7472616e637947756172643a207265656e7472616e742063616c6c005f82015250565b5f611091601f83610dc9565b915061109c8261105d565b602082019050919050565b5f6020820190508181035f8301526110be81611085565b905091905056fea26469706673582212209ae7f565968350586e8338bacfaf6c7b3c7d8d39e355c25440915c0d3a9c29bb64736f6c634300081a0033",
					"opcodes": "PUSH1 0x80 PUSH1 0x40 MSTORE CALLVALUE DUP1 ISZERO PUSH2 0xF JUMPI PUSH0 DUP1 REVERT JUMPDEST POP PUSH1 0x40 MLOAD PUSH2 0x124F CODESIZE SUB DUP1 PUSH2 0x124F DUP4 CODECOPY DUP2 DUP2 ADD PUSH1 0x40 MSTORE DUP2 ADD SWAP1 PUSH2 0x31 SWAP2 SWAP1 PUSH2 0x11C JUMP JUMPDEST PUSH1 0x1 PUSH0 DUP2 SWAP1 SSTORE POP DUP1 PUSH1 0x1 PUSH0 PUSH2 0x100 EXP DUP2 SLOAD DUP2 PUSH20 0xFFFFFFFFFFFFFFFFFFFFFFFFFFFFFFFFFFFFFFFF MUL NOT AND SWAP1 DUP4 PUSH20 0xFFFFFFFFFFFFFFFFFFFFFFFFFFFFFFFFFFFFFFFF AND MUL OR SWAP1 SSTORE POP CALLER PUSH1 0x2 PUSH0 PUSH2 0x100 EXP DUP2 SLOAD DUP2 PUSH20 0xFFFFFFFFFFFFFFFFFFFFFFFFFFFFFFFFFFFFFFFF MUL NOT AND SWAP1 DUP4 PUSH20 0xFFFFFFFFFFFFFFFFFFFFFFFFFFFFFFFFFFFFFFFF AND MUL OR SWAP1 SSTORE POP POP PUSH2 0x147 JUMP JUMPDEST PUSH0 DUP1 REVERT JUMPDEST PUSH0 PUSH20 0xFFFFFFFFFFFFFFFFFFFFFFFFFFFFFFFFFFFFFFFF DUP3 AND SWAP1 POP SWAP2 SWAP1 POP JUMP JUMPDEST PUSH0 PUSH2 0xEB DUP3 PUSH2 0xC2 JUMP JUMPDEST SWAP1 POP SWAP2 SWAP1 POP JUMP JUMPDEST PUSH2 0xFB DUP2 PUSH2 0xE1 JUMP JUMPDEST DUP2 EQ PUSH2 0x105 JUMPI PUSH0 DUP1 REVERT JUMPDEST POP JUMP JUMPDEST PUSH0 DUP2 MLOAD SWAP1 POP PUSH2 0x116 DUP2 PUSH2 0xF2 JUMP JUMPDEST SWAP3 SWAP2 POP POP JUMP JUMPDEST PUSH0 PUSH1 0x20 DUP3 DUP5 SUB SLT ISZERO PUSH2 0x131 JUMPI PUSH2 0x130 PUSH2 0xBE JUMP JUMPDEST JUMPDEST PUSH0 PUSH2 0x13E DUP5 DUP3 DUP6 ADD PUSH2 0x108 JUMP JUMPDEST SWAP2 POP POP SWAP3 SWAP2 POP POP JUMP JUMPDEST PUSH2 0x10FB DUP1 PUSH2 0x154 PUSH0 CODECOPY PUSH0 RETURN INVALID PUSH1 0x80 PUSH1 0x40 MSTORE CALLVALUE DUP1 ISZERO PUSH2 0xF JUMPI PUSH0 DUP1 REVERT JUMPDEST POP PUSH1 0x4 CALLDATASIZE LT PUSH2 0x91 JUMPI PUSH0 CALLDATALOAD PUSH1 0xE0 SHR DUP1 PUSH4 0x98CD90B5 GT PUSH2 0x64 JUMPI DUP1 PUSH4 0x98CD90B5 EQ PUSH2 0x12F JUMPI DUP1 PUSH4 0x9D939D16 EQ PUSH2 0x14B JUMPI DUP1 PUSH4 0xA65D8086 EQ PUSH2 0x169 JUMPI DUP1 PUSH4 0xE1EC3C68 EQ PUSH2 0x199 JUMPI DUP1 PUSH4 0xFC0C546A EQ PUSH2 0x1CD JUMPI PUSH2 0x91 JUMP JUMPDEST DUP1 PUSH4 0x654CB04E EQ PUSH2 0x95 JUMPI DUP1 PUSH4 0x66877B8D EQ PUSH2 0xC5 JUMPI DUP1 PUSH4 0x8A700B53 EQ PUSH2 0xF5 JUMPI DUP1 PUSH4 0x8DA5CB5B EQ PUSH2 0x111 JUMPI JUMPDEST PUSH0 DUP1 REVERT JUMPDEST PUSH2 0xAF PUSH1 0x4 DUP1 CALLDATASIZE SUB DUP2 ADD SWAP1 PUSH2 0xAA SWAP2 SWAP1 PUSH2 0xA54 JUMP JUMPDEST PUSH2 0x1EB JUMP JUMPDEST PUSH1 0x40 MLOAD PUSH2 0xBC SWAP2 SWAP1 PUSH2 0xAA1 JUMP JUMPDEST PUSH1 0x40 MLOAD DUP1 SWAP2 SUB SWAP1 RETURN JUMPDEST PUSH2 0xDF PUSH1 0x4 DUP1 CALLDATASIZE SUB DUP2 ADD SWAP1 PUSH2 0xDA SWAP2 SWAP1 PUSH2 0xABA JUMP JUMPDEST PUSH2 0x216 JUMP JUMPDEST PUSH1 0x40 MLOAD PUSH2 0xEC SWAP2 SWAP1 PUSH2 0xB83 JUMP JUMPDEST PUSH1 0x40 MLOAD DUP1 SWAP2 SUB SWAP1 RETURN JUMPDEST PUSH2 0x10F PUSH1 0x4 DUP1 CALLDATASIZE SUB DUP2 ADD SWAP1 PUSH2 0x10A SWAP2 SWAP1 PUSH2 0xB9C JUMP JUMPDEST PUSH2 0x2CD JUMP JUMPDEST STOP JUMPDEST PUSH2 0x119 PUSH2 0x564 JUMP JUMPDEST PUSH1 0x40 MLOAD PUSH2 0x126 SWAP2 SWAP1 PUSH2 0xBE9 JUMP JUMPDEST PUSH1 0x40 MLOAD DUP1 SWAP2 SUB SWAP1 RETURN JUMPDEST PUSH2 0x149 PUSH1 0x4 DUP1 CALLDATASIZE SUB DUP2 ADD SWAP1 PUSH2 0x144 SWAP2 SWAP1 PUSH2 0xB9C JUMP JUMPDEST PUSH2 0x589 JUMP JUMPDEST STOP JUMPDEST PUSH2 0x153 PUSH2 0x810 JUMP JUMPDEST PUSH1 0x40 MLOAD PUSH2 0x160 SWAP2 SWAP1 PUSH2 0xAA1 JUMP JUMPDEST PUSH1 0x40 MLOAD DUP1 SWAP2 SUB SWAP1 RETURN JUMPDEST PUSH2 0x183 PUSH1 0x4 DUP1 CALLDATASIZE SUB DUP2 ADD SWAP1 PUSH2 0x17E SWAP2 SWAP1 PUSH2 0xC02 JUMP JUMPDEST PUSH2 0x816 JUMP JUMPDEST PUSH1 0x40 MLOAD PUSH2 0x190 SWAP2 SWAP1 PUSH2 0xCD5 JUMP JUMPDEST PUSH1 0x40 MLOAD DUP1 SWAP2 SUB SWAP1 RETURN JUMPDEST PUSH2 0x1B3 PUSH1 0x4 DUP1 CALLDATASIZE SUB DUP2 ADD SWAP1 PUSH2 0x1AE SWAP2 SWAP1 PUSH2 0xABA JUMP JUMPDEST PUSH2 0x8A9 JUMP JUMPDEST PUSH1 0x40 MLOAD PUSH2 0x1C4 SWAP6 SWAP5 SWAP4 SWAP3 SWAP2 SWAP1 PUSH2 0xD04 JUMP JUMPDEST PUSH1 0x40 MLOAD DUP1 SWAP2 SUB SWAP1 RETURN JUMPDEST PUSH2 0x1D5 PUSH2 0x906 JUMP JUMPDEST PUSH1 0x40 MLOAD PUSH2 0x1E2 SWAP2 SWAP1 PUSH2 0xDB0 JUMP JUMPDEST PUSH1 0x40 MLOAD DUP1 SWAP2 SUB SWAP1 RETURN JUMPDEST PUSH1 0x5 PUSH1 0x20 MSTORE DUP2 PUSH0 MSTORE PUSH1 0x40 PUSH0 KECCAK256 DUP2 DUP2 SLOAD DUP2 LT PUSH2 0x204 JUMPI PUSH0 DUP1 REVERT JUMPDEST SWAP1 PUSH0 MSTORE PUSH1 0x20 PUSH0 KECCAK256 ADD PUSH0 SWAP2 POP SWAP2 POP POP SLOAD DUP2 JUMP JUMPDEST PUSH2 0x21E PUSH2 0x981 JUMP JUMPDEST PUSH1 0x4 PUSH0 DUP4 DUP2 MSTORE PUSH1 0x20 ADD SWAP1 DUP2 MSTORE PUSH1 0x20 ADD PUSH0 KECCAK256 PUSH1 0x40 MLOAD DUP1 PUSH1 0xA0 ADD PUSH1 0x40 MSTORE SWAP1 DUP2 PUSH0 DUP3 ADD PUSH0 SWAP1 SLOAD SWAP1 PUSH2 0x100 EXP SWAP1 DIV PUSH20 0xFFFFFFFFFFFFFFFFFFFFFFFFFFFFFFFFFFFFFFFF AND PUSH20 0xFFFFFFFFFFFFFFFFFFFFFFFFFFFFFFFFFFFFFFFF AND PUSH20 0xFFFFFFFFFFFFFFFFFFFFFFFFFFFFFFFFFFFFFFFF AND DUP2 MSTORE PUSH1 0x20 ADD PUSH1 0x1 DUP3 ADD SLOAD DUP2 MSTORE PUSH1 0x20 ADD PUSH1 0x2 DUP3 ADD SLOAD DUP2 MSTORE PUSH1 0x20 ADD PUSH1 0x3 DUP3 ADD SLOAD DUP2 MSTORE PUSH1 0x20 ADD PUSH1 0x4 DUP3 ADD PUSH0 SWAP1 SLOAD SWAP1 PUSH2 0x100 EXP SWAP1 DIV PUSH1 0xFF AND ISZERO ISZERO ISZERO ISZERO DUP2 MSTORE POP POP SWAP1 POP SWAP2 SWAP1 POP JUMP JUMPDEST PUSH2 0x2D5 PUSH2 0x92B JUMP JUMPDEST PUSH0 PUSH1 0x4 PUSH0 DUP5 DUP2 MSTORE PUSH1 0x20 ADD SWAP1 DUP2 MSTORE PUSH1 0x20 ADD PUSH0 KECCAK256 SWAP1 POP DUP1 PUSH1 0x4 ADD PUSH0 SWAP1 SLOAD SWAP1 PUSH2 0x100 EXP SWAP1 DIV PUSH1 0xFF AND PUSH2 0x339 JUMPI PUSH1 0x40 MLOAD PUSH32 0x8C379A000000000000000000000000000000000000000000000000000000000 DUP2 MSTORE PUSH1 0x4 ADD PUSH2 0x330 SWAP1 PUSH2 0xE23 JUMP JUMPDEST PUSH1 0x40 MLOAD DUP1 SWAP2 SUB SWAP1 REVERT JUMPDEST PUSH1 0x1 PUSH0 SWAP1 SLOAD SWAP1 PUSH2 0x100 EXP SWAP1 DIV PUSH20 0xFFFFFFFFFFFFFFFFFFFFFFFFFFFFFFFFFFFFFFFF AND PUSH20 0xFFFFFFFFFFFFFFFFFFFFFFFFFFFFFFFFFFFFFFFF AND PUSH4 0x23B872DD CALLER ADDRESS DUP6 PUSH1 0x40 MLOAD DUP5 PUSH4 0xFFFFFFFF AND PUSH1 0xE0 SHL DUP2 MSTORE PUSH1 0x4 ADD PUSH2 0x397 SWAP4 SWAP3 SWAP2 SWAP1 PUSH2 0xE41 JUMP JUMPDEST PUSH1 0x20 PUSH1 0x40 MLOAD DUP1 DUP4 SUB DUP2 PUSH0 DUP8 GAS CALL ISZERO DUP1 ISZERO PUSH2 0x3B3 JUMPI RETURNDATASIZE PUSH0 DUP1 RETURNDATACOPY RETURNDATASIZE PUSH0 REVERT JUMPDEST POP POP POP POP PUSH1 0x40 MLOAD RETURNDATASIZE PUSH1 0x1F NOT PUSH1 0x1F DUP3 ADD AND DUP3 ADD DUP1 PUSH1 0x40 MSTORE POP DUP2 ADD SWAP1 PUSH2 0x3D7 SWAP2 SWAP1 PUSH2 0xEA0 JUMP JUMPDEST PUSH2 0x416 JUMPI PUSH1 0x40 MLOAD PUSH32 0x8C379A000000000000000000000000000000000000000000000000000000000 DUP2 MSTORE PUSH1 0x4 ADD PUSH2 0x40D SWAP1 PUSH2 0xF15 JUMP JUMPDEST PUSH1 0x40 MLOAD DUP1 SWAP2 SUB SWAP1 REVERT JUMPDEST DUP2 DUP2 PUSH1 0x2 ADD PUSH0 DUP3 DUP3 SLOAD PUSH2 0x429 SWAP2 SWAP1 PUSH2 0xF60 JUMP JUMPDEST SWAP3 POP POP DUP2 SWAP1 SSTORE POP DUP1 PUSH1 0x1 ADD SLOAD DUP2 PUSH1 0x2 ADD SLOAD LT PUSH2 0x51E JUMPI PUSH0 DUP2 PUSH1 0x4 ADD PUSH0 PUSH2 0x100 EXP DUP2 SLOAD DUP2 PUSH1 0xFF MUL NOT AND SWAP1 DUP4 ISZERO ISZERO MUL OR SWAP1 SSTORE POP PUSH1 0x1 PUSH0 SWAP1 SLOAD SWAP1 PUSH2 0x100 EXP SWAP1 DIV PUSH20 0xFFFFFFFFFFFFFFFFFFFFFFFFFFFFFFFFFFFFFFFF AND PUSH20 0xFFFFFFFFFFFFFFFFFFFFFFFFFFFFFFFFFFFFFFFF AND PUSH4 0xA9059CBB DUP3 PUSH0 ADD PUSH0 SWAP1 SLOAD SWAP1 PUSH2 0x100 EXP SWAP1 DIV PUSH20 0xFFFFFFFFFFFFFFFFFFFFFFFFFFFFFFFFFFFFFFFF AND DUP4 PUSH1 0x1 ADD SLOAD PUSH1 0x40 MLOAD DUP4 PUSH4 0xFFFFFFFF AND PUSH1 0xE0 SHL DUP2 MSTORE PUSH1 0x4 ADD PUSH2 0x4DC SWAP3 SWAP2 SWAP1 PUSH2 0xF93 JUMP JUMPDEST PUSH1 0x20 PUSH1 0x40 MLOAD DUP1 DUP4 SUB DUP2 PUSH0 DUP8 GAS CALL ISZERO DUP1 ISZERO PUSH2 0x4F8 JUMPI RETURNDATASIZE PUSH0 DUP1 RETURNDATACOPY RETURNDATASIZE PUSH0 REVERT JUMPDEST POP POP POP POP PUSH1 0x40 MLOAD RETURNDATASIZE PUSH1 0x1F NOT PUSH1 0x1F DUP3 ADD AND DUP3 ADD DUP1 PUSH1 0x40 MSTORE POP DUP2 ADD SWAP1 PUSH2 0x51C SWAP2 SWAP1 PUSH2 0xEA0 JUMP JUMPDEST POP JUMPDEST PUSH32 0x40CEE90EE4799897C30CA04E5FEB6FA43DBBA9B6D084B4B257CDAFD84BA013E DUP4 DUP4 PUSH1 0x40 MLOAD PUSH2 0x54F SWAP3 SWAP2 SWAP1 PUSH2 0xFBA JUMP JUMPDEST PUSH1 0x40 MLOAD DUP1 SWAP2 SUB SWAP1 LOG1 POP PUSH2 0x560 PUSH2 0x978 JUMP JUMPDEST POP POP JUMP JUMPDEST PUSH1 0x2 PUSH0 SWAP1 SLOAD SWAP1 PUSH2 0x100 EXP SWAP1 DIV PUSH20 0xFFFFFFFFFFFFFFFFFFFFFFFFFFFFFFFFFFFFFFFF AND DUP2 JUMP JUMPDEST PUSH2 0x591 PUSH2 0x92B JUMP JUMPDEST PUSH1 0x1 PUSH0 SWAP1 SLOAD SWAP1 PUSH2 0x100 EXP SWAP1 DIV PUSH20 0xFFFFFFFFFFFFFFFFFFFFFFFFFFFFFFFFFFFFFFFF AND PUSH20 0xFFFFFFFFFFFFFFFFFFFFFFFFFFFFFFFFFFFFFFFF AND PUSH4 0x23B872DD CALLER ADDRESS DUP6 PUSH1 0x40 MLOAD DUP5 PUSH4 0xFFFFFFFF AND PUSH1 0xE0 SHL DUP2 MSTORE PUSH1 0x4 ADD PUSH2 0x5EF SWAP4 SWAP3 SWAP2 SWAP1 PUSH2 0xE41 JUMP JUMPDEST PUSH1 0x20 PUSH1 0x40 MLOAD DUP1 DUP4 SUB DUP2 PUSH0 DUP8 GAS CALL ISZERO DUP1 ISZERO PUSH2 0x60B JUMPI RETURNDATASIZE PUSH0 DUP1 RETURNDATACOPY RETURNDATASIZE PUSH0 REVERT JUMPDEST POP POP POP POP PUSH1 0x40 MLOAD RETURNDATASIZE PUSH1 0x1F NOT PUSH1 0x1F DUP3 ADD AND DUP3 ADD DUP1 PUSH1 0x40 MSTORE POP DUP2 ADD SWAP1 PUSH2 0x62F SWAP2 SWAP1 PUSH2 0xEA0 JUMP JUMPDEST PUSH2 0x66E JUMPI PUSH1 0x40 MLOAD PUSH32 0x8C379A000000000000000000000000000000000000000000000000000000000 DUP2 MSTORE PUSH1 0x4 ADD PUSH2 0x665 SWAP1 PUSH2 0xF15 JUMP JUMPDEST PUSH1 0x40 MLOAD DUP1 SWAP2 SUB SWAP1 REVERT JUMPDEST PUSH0 PUSH1 0x3 PUSH0 DUP2 SLOAD DUP1 SWAP3 SWAP2 SWAP1 PUSH2 0x681 SWAP1 PUSH2 0xFE1 JUMP JUMPDEST SWAP2 SWAP1 POP SSTORE SWAP1 POP PUSH1 0x40 MLOAD DUP1 PUSH1 0xA0 ADD PUSH1 0x40 MSTORE DUP1 CALLER PUSH20 0xFFFFFFFFFFFFFFFFFFFFFFFFFFFFFFFFFFFFFFFF AND DUP2 MSTORE PUSH1 0x20 ADD DUP5 DUP2 MSTORE PUSH1 0x20 ADD PUSH0 DUP2 MSTORE PUSH1 0x20 ADD DUP4 TIMESTAMP PUSH2 0x6C6 SWAP2 SWAP1 PUSH2 0xF60 JUMP JUMPDEST DUP2 MSTORE PUSH1 0x20 ADD PUSH1 0x1 ISZERO ISZERO DUP2 MSTORE POP PUSH1 0x4 PUSH0 DUP4 DUP2 MSTORE PUSH1 0x20 ADD SWAP1 DUP2 MSTORE PUSH1 0x20 ADD PUSH0 KECCAK256 PUSH0 DUP3 ADD MLOAD DUP2 PUSH0 ADD PUSH0 PUSH2 0x100 EXP DUP2 SLOAD DUP2 PUSH20 0xFFFFFFFFFFFFFFFFFFFFFFFFFFFFFFFFFFFFFFFF MUL NOT AND SWAP1 DUP4 PUSH20 0xFFFFFFFFFFFFFFFFFFFFFFFFFFFFFFFFFFFFFFFF AND MUL OR SWAP1 SSTORE POP PUSH1 0x20 DUP3 ADD MLOAD DUP2 PUSH1 0x1 ADD SSTORE PUSH1 0x40 DUP3 ADD MLOAD DUP2 PUSH1 0x2 ADD SSTORE PUSH1 0x60 DUP3 ADD MLOAD DUP2 PUSH1 0x3 ADD SSTORE PUSH1 0x80 DUP3 ADD MLOAD DUP2 PUSH1 0x4 ADD PUSH0 PUSH2 0x100 EXP DUP2 SLOAD DUP2 PUSH1 0xFF MUL NOT AND SWAP1 DUP4 ISZERO ISZERO MUL OR SWAP1 SSTORE POP SWAP1 POP POP PUSH1 0x5 PUSH0 CALLER PUSH20 0xFFFFFFFFFFFFFFFFFFFFFFFFFFFFFFFFFFFFFFFF AND PUSH20 0xFFFFFFFFFFFFFFFFFFFFFFFFFFFFFFFFFFFFFFFF AND DUP2 MSTORE PUSH1 0x20 ADD SWAP1 DUP2 MSTORE PUSH1 0x20 ADD PUSH0 KECCAK256 DUP2 SWAP1 DUP1 PUSH1 0x1 DUP2 SLOAD ADD DUP1 DUP3 SSTORE DUP1 SWAP2 POP POP PUSH1 0x1 SWAP1 SUB SWAP1 PUSH0 MSTORE PUSH1 0x20 PUSH0 KECCAK256 ADD PUSH0 SWAP1 SWAP2 SWAP1 SWAP2 SWAP1 SWAP2 POP SSTORE PUSH32 0x8910BA13A55695F056E224BBBC6B65D866B12A8C2FBDF387FB853A1CCA298CD7 DUP2 CALLER DUP6 PUSH1 0x40 MLOAD PUSH2 0x7FB SWAP4 SWAP3 SWAP2 SWAP1 PUSH2 0x1028 JUMP JUMPDEST PUSH1 0x40 MLOAD DUP1 SWAP2 SUB SWAP1 LOG1 POP PUSH2 0x80C PUSH2 0x978 JUMP JUMPDEST POP POP JUMP JUMPDEST PUSH1 0x3 SLOAD DUP2 JUMP JUMPDEST PUSH1 0x60 PUSH1 0x5 PUSH0 DUP4 PUSH20 0xFFFFFFFFFFFFFFFFFFFFFFFFFFFFFFFFFFFFFFFF AND PUSH20 0xFFFFFFFFFFFFFFFFFFFFFFFFFFFFFFFFFFFFFFFF AND DUP2 MSTORE PUSH1 0x20 ADD SWAP1 DUP2 MSTORE PUSH1 0x20 ADD PUSH0 KECCAK256 DUP1 SLOAD DUP1 PUSH1 0x20 MUL PUSH1 0x20 ADD PUSH1 0x40 MLOAD SWAP1 DUP2 ADD PUSH1 0x40 MSTORE DUP1 SWAP3 SWAP2 SWAP1 DUP2 DUP2 MSTORE PUSH1 0x20 ADD DUP3 DUP1 SLOAD DUP1 ISZERO PUSH2 0x89D JUMPI PUSH1 0x20 MUL DUP3 ADD SWAP2 SWAP1 PUSH0 MSTORE PUSH1 0x20 PUSH0 KECCAK256 SWAP1 JUMPDEST DUP2 SLOAD DUP2 MSTORE PUSH1 0x20 ADD SWAP1 PUSH1 0x1 ADD SWAP1 DUP1 DUP4 GT PUSH2 0x889 JUMPI JUMPDEST POP POP POP POP POP SWAP1 POP SWAP2 SWAP1 POP JUMP JUMPDEST PUSH1 0x4 PUSH1 0x20 MSTORE DUP1 PUSH0 MSTORE PUSH1 0x40 PUSH0 KECCAK256 PUSH0 SWAP2 POP SWAP1 POP DUP1 PUSH0 ADD PUSH0 SWAP1 SLOAD SWAP1 PUSH2 0x100 EXP SWAP1 DIV PUSH20 0xFFFFFFFFFFFFFFFFFFFFFFFFFFFFFFFFFFFFFFFF AND SWAP1 DUP1 PUSH1 0x1 ADD SLOAD SWAP1 DUP1 PUSH1 0x2 ADD SLOAD SWAP1 DUP1 PUSH1 0x3 ADD SLOAD SWAP1 DUP1 PUSH1 0x4 ADD PUSH0 SWAP1 SLOAD SWAP1 PUSH2 0x100 EXP SWAP1 DIV PUSH1 0xFF AND SWAP1 POP DUP6 JUMP JUMPDEST PUSH1 0x1 PUSH0 SWAP1 SLOAD SWAP1 PUSH2 0x100 EXP SWAP1 DIV PUSH20 0xFFFFFFFFFFFFFFFFFFFFFFFFFFFFFFFFFFFFFFFF AND DUP2 JUMP JUMPDEST PUSH1 0x2 PUSH0 SLOAD SUB PUSH2 0x96F JUMPI PUSH1 0x40 MLOAD PUSH32 0x8C379A000000000000000000000000000000000000000000000000000000000 DUP2 MSTORE PUSH1 0x4 ADD PUSH2 0x966 SWAP1 PUSH2 0x10A7 JUMP JUMPDEST PUSH1 0x40 MLOAD DUP1 SWAP2 SUB SWAP1 REVERT JUMPDEST PUSH1 0x2 PUSH0 DUP2 SWAP1 SSTORE POP JUMP JUMPDEST PUSH1 0x1 PUSH0 DUP2 SWAP1 SSTORE POP JUMP JUMPDEST PUSH1 0x40 MLOAD DUP1 PUSH1 0xA0 ADD PUSH1 0x40 MSTORE DUP1 PUSH0 PUSH20 0xFFFFFFFFFFFFFFFFFFFFFFFFFFFFFFFFFFFFFFFF AND DUP2 MSTORE PUSH1 0x20 ADD PUSH0 DUP2 MSTORE PUSH1 0x20 ADD PUSH0 DUP2 MSTORE PUSH1 0x20 ADD PUSH0 DUP2 MSTORE PUSH1 0x20 ADD PUSH0 ISZERO ISZERO DUP2 MSTORE POP SWAP1 JUMP JUMPDEST PUSH0 DUP1 REVERT JUMPDEST PUSH0 PUSH20 0xFFFFFFFFFFFFFFFFFFFFFFFFFFFFFFFFFFFFFFFF DUP3 AND SWAP1 POP SWAP2 SWAP1 POP JUMP JUMPDEST PUSH0 PUSH2 0x9F0 DUP3 PUSH2 0x9C7 JUMP JUMPDEST SWAP1 POP SWAP2 SWAP1 POP JUMP JUMPDEST PUSH2 0xA00 DUP2 PUSH2 0x9E6 JUMP JUMPDEST DUP2 EQ PUSH2 0xA0A JUMPI PUSH0 DUP1 REVERT JUMPDEST POP JUMP JUMPDEST PUSH0 DUP2 CALLDATALOAD SWAP1 POP PUSH2 0xA1B DUP2 PUSH2 0x9F7 JUMP JUMPDEST SWAP3 SWAP2 POP POP JUMP JUMPDEST PUSH0 DUP2 SWAP1 POP SWAP2 SWAP1 POP JUMP JUMPDEST PUSH2 0xA33 DUP2 PUSH2 0xA21 JUMP JUMPDEST DUP2 EQ PUSH2 0xA3D JUMPI PUSH0 DUP1 REVERT JUMPDEST POP JUMP JUMPDEST PUSH0 DUP2 CALLDATALOAD SWAP1 POP PUSH2 0xA4E DUP2 PUSH2 0xA2A JUMP JUMPDEST SWAP3 SWAP2 POP POP JUMP JUMPDEST PUSH0 DUP1 PUSH1 0x40 DUP4 DUP6 SUB SLT ISZERO PUSH2 0xA6A JUMPI PUSH2 0xA69 PUSH2 0x9C3 JUMP JUMPDEST JUMPDEST PUSH0 PUSH2 0xA77 DUP6 DUP3 DUP7 ADD PUSH2 0xA0D JUMP JUMPDEST SWAP3 POP POP PUSH1 0x20 PUSH2 0xA88 DUP6 DUP3 DUP7 ADD PUSH2 0xA40 JUMP JUMPDEST SWAP2 POP POP SWAP3 POP SWAP3 SWAP1 POP JUMP JUMPDEST PUSH2 0xA9B DUP2 PUSH2 0xA21 JUMP JUMPDEST DUP3 MSTORE POP POP JUMP JUMPDEST PUSH0 PUSH1 0x20 DUP3 ADD SWAP1 POP PUSH2 0xAB4 PUSH0 DUP4 ADD DUP5 PUSH2 0xA92 JUMP JUMPDEST SWAP3 SWAP2 POP POP JUMP JUMPDEST PUSH0 PUSH1 0x20 DUP3 DUP5 SUB SLT ISZERO PUSH2 0xACF JUMPI PUSH2 0xACE PUSH2 0x9C3 JUMP JUMPDEST JUMPDEST PUSH0 PUSH2 0xADC DUP5 DUP3 DUP6 ADD PUSH2 0xA40 JUMP JUMPDEST SWAP2 POP POP SWAP3 SWAP2 POP POP JUMP JUMPDEST PUSH2 0xAEE DUP2 PUSH2 0x9E6 JUMP JUMPDEST DUP3 MSTORE POP POP JUMP JUMPDEST PUSH2 0xAFD DUP2 PUSH2 0xA21 JUMP JUMPDEST DUP3 MSTORE POP POP JUMP JUMPDEST PUSH0 DUP2 ISZERO ISZERO SWAP1 POP SWAP2 SWAP1 POP JUMP JUMPDEST PUSH2 0xB17 DUP2 PUSH2 0xB03 JUMP JUMPDEST DUP3 MSTORE POP POP JUMP JUMPDEST PUSH1 0xA0 DUP3 ADD PUSH0 DUP3 ADD MLOAD PUSH2 0xB31 PUSH0 DUP6 ADD DUP3 PUSH2 0xAE5 JUMP JUMPDEST POP PUSH1 0x20 DUP3 ADD MLOAD PUSH2 0xB44 PUSH1 0x20 DUP6 ADD DUP3 PUSH2 0xAF4 JUMP JUMPDEST POP PUSH1 0x40 DUP3 ADD MLOAD PUSH2 0xB57 PUSH1 0x40 DUP6 ADD DUP3 PUSH2 0xAF4 JUMP JUMPDEST POP PUSH1 0x60 DUP3 ADD MLOAD PUSH2 0xB6A PUSH1 0x60 DUP6 ADD DUP3 PUSH2 0xAF4 JUMP JUMPDEST POP PUSH1 0x80 DUP3 ADD MLOAD PUSH2 0xB7D PUSH1 0x80 DUP6 ADD DUP3 PUSH2 0xB0E JUMP JUMPDEST POP POP POP POP JUMP JUMPDEST PUSH0 PUSH1 0xA0 DUP3 ADD SWAP1 POP PUSH2 0xB96 PUSH0 DUP4 ADD DUP5 PUSH2 0xB1D JUMP JUMPDEST SWAP3 SWAP2 POP POP JUMP JUMPDEST PUSH0 DUP1 PUSH1 0x40 DUP4 DUP6 SUB SLT ISZERO PUSH2 0xBB2 JUMPI PUSH2 0xBB1 PUSH2 0x9C3 JUMP JUMPDEST JUMPDEST PUSH0 PUSH2 0xBBF DUP6 DUP3 DUP7 ADD PUSH2 0xA40 JUMP JUMPDEST SWAP3 POP POP PUSH1 0x20 PUSH2 0xBD0 DUP6 DUP3 DUP7 ADD PUSH2 0xA40 JUMP JUMPDEST SWAP2 POP POP SWAP3 POP SWAP3 SWAP1 POP JUMP JUMPDEST PUSH2 0xBE3 DUP2 PUSH2 0x9E6 JUMP JUMPDEST DUP3 MSTORE POP POP JUMP JUMPDEST PUSH0 PUSH1 0x20 DUP3 ADD SWAP1 POP PUSH2 0xBFC PUSH0 DUP4 ADD DUP5 PUSH2 0xBDA JUMP JUMPDEST SWAP3 SWAP2 POP POP JUMP JUMPDEST PUSH0 PUSH1 0x20 DUP3 DUP5 SUB SLT ISZERO PUSH2 0xC17 JUMPI PUSH2 0xC16 PUSH2 0x9C3 JUMP JUMPDEST JUMPDEST PUSH0 PUSH2 0xC24 DUP5 DUP3 DUP6 ADD PUSH2 0xA0D JUMP JUMPDEST SWAP2 POP POP SWAP3 SWAP2 POP POP JUMP JUMPDEST PUSH0 DUP2 MLOAD SWAP1 POP SWAP2 SWAP1 POP JUMP JUMPDEST PUSH0 DUP3 DUP3 MSTORE PUSH1 0x20 DUP3 ADD SWAP1 POP SWAP3 SWAP2 POP POP JUMP JUMPDEST PUSH0 DUP2 SWAP1 POP PUSH1 0x20 DUP3 ADD SWAP1 POP SWAP2 SWAP1 POP JUMP JUMPDEST PUSH0 PUSH2 0xC61 DUP4 DUP4 PUSH2 0xAF4 JUMP JUMPDEST PUSH1 0x20 DUP4 ADD SWAP1 POP SWAP3 SWAP2 POP POP JUMP JUMPDEST PUSH0 PUSH1 0x20 DUP3 ADD SWAP1 POP SWAP2 SWAP1 POP JUMP JUMPDEST PUSH0 PUSH2 0xC83 DUP3 PUSH2 0xC2D JUMP JUMPDEST PUSH2 0xC8D DUP2 DUP6 PUSH2 0xC37 JUMP JUMPDEST SWAP4 POP PUSH2 0xC98 DUP4 PUSH2 0xC47 JUMP JUMPDEST DUP1 PUSH0 JUMPDEST DUP4 DUP2 LT ISZERO PUSH2 0xCC8 JUMPI DUP2 MLOAD PUSH2 0xCAF DUP9 DUP3 PUSH2 0xC56 JUMP JUMPDEST SWAP8 POP PUSH2 0xCBA DUP4 PUSH2 0xC6D JUMP JUMPDEST SWAP3 POP POP PUSH1 0x1 DUP2 ADD SWAP1 POP PUSH2 0xC9B JUMP JUMPDEST POP DUP6 SWAP4 POP POP POP POP SWAP3 SWAP2 POP POP JUMP JUMPDEST PUSH0 PUSH1 0x20 DUP3 ADD SWAP1 POP DUP2 DUP2 SUB PUSH0 DUP4 ADD MSTORE PUSH2 0xCED DUP2 DUP5 PUSH2 0xC79 JUMP JUMPDEST SWAP1 POP SWAP3 SWAP2 POP POP JUMP JUMPDEST PUSH2 0xCFE DUP2 PUSH2 0xB03 JUMP JUMPDEST DUP3 MSTORE POP POP JUMP JUMPDEST PUSH0 PUSH1 0xA0 DUP3 ADD SWAP1 POP PUSH2 0xD17 PUSH0 DUP4 ADD DUP9 PUSH2 0xBDA JUMP JUMPDEST PUSH2 0xD24 PUSH1 0x20 DUP4 ADD DUP8 PUSH2 0xA92 JUMP JUMPDEST PUSH2 0xD31 PUSH1 0x40 DUP4 ADD DUP7 PUSH2 0xA92 JUMP JUMPDEST PUSH2 0xD3E PUSH1 0x60 DUP4 ADD DUP6 PUSH2 0xA92 JUMP JUMPDEST PUSH2 0xD4B PUSH1 0x80 DUP4 ADD DUP5 PUSH2 0xCF5 JUMP JUMPDEST SWAP7 SWAP6 POP POP POP POP POP POP JUMP JUMPDEST PUSH0 DUP2 SWAP1 POP SWAP2 SWAP1 POP JUMP JUMPDEST PUSH0 PUSH2 0xD78 PUSH2 0xD73 PUSH2 0xD6E DUP5 PUSH2 0x9C7 JUMP JUMPDEST PUSH2 0xD55 JUMP JUMPDEST PUSH2 0x9C7 JUMP JUMPDEST SWAP1 POP SWAP2 SWAP1 POP JUMP JUMPDEST PUSH0 PUSH2 0xD89 DUP3 PUSH2 0xD5E JUMP JUMPDEST SWAP1 POP SWAP2 SWAP1 POP JUMP JUMPDEST PUSH0 PUSH2 0xD9A DUP3 PUSH2 0xD7F JUMP JUMPDEST SWAP1 POP SWAP2 SWAP1 POP JUMP JUMPDEST PUSH2 0xDAA DUP2 PUSH2 0xD90 JUMP JUMPDEST DUP3 MSTORE POP POP JUMP JUMPDEST PUSH0 PUSH1 0x20 DUP3 ADD SWAP1 POP PUSH2 0xDC3 PUSH0 DUP4 ADD DUP5 PUSH2 0xDA1 JUMP JUMPDEST SWAP3 SWAP2 POP POP JUMP JUMPDEST PUSH0 DUP3 DUP3 MSTORE PUSH1 0x20 DUP3 ADD SWAP1 POP SWAP3 SWAP2 POP POP JUMP JUMPDEST PUSH32 0x4C6F616E206973206E6F74206163746976650000000000000000000000000000 PUSH0 DUP3 ADD MSTORE POP JUMP JUMPDEST PUSH0 PUSH2 0xE0D PUSH1 0x12 DUP4 PUSH2 0xDC9 JUMP JUMPDEST SWAP2 POP PUSH2 0xE18 DUP3 PUSH2 0xDD9 JUMP JUMPDEST PUSH1 0x20 DUP3 ADD SWAP1 POP SWAP2 SWAP1 POP JUMP JUMPDEST PUSH0 PUSH1 0x20 DUP3 ADD SWAP1 POP DUP2 DUP2 SUB PUSH0 DUP4 ADD MSTORE PUSH2 0xE3A DUP2 PUSH2 0xE01 JUMP JUMPDEST SWAP1 POP SWAP2 SWAP1 POP JUMP JUMPDEST PUSH0 PUSH1 0x60 DUP3 ADD SWAP1 POP PUSH2 0xE54 PUSH0 DUP4 ADD DUP7 PUSH2 0xBDA JUMP JUMPDEST PUSH2 0xE61 PUSH1 0x20 DUP4 ADD DUP6 PUSH2 0xBDA JUMP JUMPDEST PUSH2 0xE6E PUSH1 0x40 DUP4 ADD DUP5 PUSH2 0xA92 JUMP JUMPDEST SWAP5 SWAP4 POP POP POP POP JUMP JUMPDEST PUSH2 0xE7F DUP2 PUSH2 0xB03 JUMP JUMPDEST DUP2 EQ PUSH2 0xE89 JUMPI PUSH0 DUP1 REVERT JUMPDEST POP JUMP JUMPDEST PUSH0 DUP2 MLOAD SWAP1 POP PUSH2 0xE9A DUP2 PUSH2 0xE76 JUMP JUMPDEST SWAP3 SWAP2 POP POP JUMP JUMPDEST PUSH0 PUSH1 0x20 DUP3 DUP5 SUB SLT ISZERO PUSH2 0xEB5 JUMPI PUSH2 0xEB4 PUSH2 0x9C3 JUMP JUMPDEST JUMPDEST PUSH0 PUSH2 0xEC2 DUP5 DUP3 DUP6 ADD PUSH2 0xE8C JUMP JUMPDEST SWAP2 POP POP SWAP3 SWAP2 POP POP JUMP JUMPDEST PUSH32 0x5472616E73666572206661696C65640000000000000000000000000000000000 PUSH0 DUP3 ADD MSTORE POP JUMP JUMPDEST PUSH0 PUSH2 0xEFF PUSH1 0xF DUP4 PUSH2 0xDC9 JUMP JUMPDEST SWAP2 POP PUSH2 0xF0A DUP3 PUSH2 0xECB JUMP JUMPDEST PUSH1 0x20 DUP3 ADD SWAP1 POP SWAP2 SWAP1 POP JUMP JUMPDEST PUSH0 PUSH1 0x20 DUP3 ADD SWAP1 POP DUP2 DUP2 SUB PUSH0 DUP4 ADD MSTORE PUSH2 0xF2C DUP2 PUSH2 0xEF3 JUMP JUMPDEST SWAP1 POP SWAP2 SWAP1 POP JUMP JUMPDEST PUSH32 0x4E487B7100000000000000000000000000000000000000000000000000000000 PUSH0 MSTORE PUSH1 0x11 PUSH1 0x4 MSTORE PUSH1 0x24 PUSH0 REVERT JUMPDEST PUSH0 PUSH2 0xF6A DUP3 PUSH2 0xA21 JUMP JUMPDEST SWAP2 POP PUSH2 0xF75 DUP4 PUSH2 0xA21 JUMP JUMPDEST SWAP3 POP DUP3 DUP3 ADD SWAP1 POP DUP1 DUP3 GT ISZERO PUSH2 0xF8D JUMPI PUSH2 0xF8C PUSH2 0xF33 JUMP JUMPDEST JUMPDEST SWAP3 SWAP2 POP POP JUMP JUMPDEST PUSH0 PUSH1 0x40 DUP3 ADD SWAP1 POP PUSH2 0xFA6 PUSH0 DUP4 ADD DUP6 PUSH2 0xBDA JUMP JUMPDEST PUSH2 0xFB3 PUSH1 0x20 DUP4 ADD DUP5 PUSH2 0xA92 JUMP JUMPDEST SWAP4 SWAP3 POP POP POP JUMP JUMPDEST PUSH0 PUSH1 0x40 DUP3 ADD SWAP1 POP PUSH2 0xFCD PUSH0 DUP4 ADD DUP6 PUSH2 0xA92 JUMP JUMPDEST PUSH2 0xFDA PUSH1 0x20 DUP4 ADD DUP5 PUSH2 0xA92 JUMP JUMPDEST SWAP4 SWAP3 POP POP POP JUMP JUMPDEST PUSH0 PUSH2 0xFEB DUP3 PUSH2 0xA21 JUMP JUMPDEST SWAP2 POP PUSH32 0xFFFFFFFFFFFFFFFFFFFFFFFFFFFFFFFFFFFFFFFFFFFFFFFFFFFFFFFFFFFFFFFF DUP3 SUB PUSH2 0x101D JUMPI PUSH2 0x101C PUSH2 0xF33 JUMP JUMPDEST JUMPDEST PUSH1 0x1 DUP3 ADD SWAP1 POP SWAP2 SWAP1 POP JUMP JUMPDEST PUSH0 PUSH1 0x60 DUP3 ADD SWAP1 POP PUSH2 0x103B PUSH0 DUP4 ADD DUP7 PUSH2 0xA92 JUMP JUMPDEST PUSH2 0x1048 PUSH1 0x20 DUP4 ADD DUP6 PUSH2 0xBDA JUMP JUMPDEST PUSH2 0x1055 PUSH1 0x40 DUP4 ADD DUP5 PUSH2 0xA92 JUMP JUMPDEST SWAP5 SWAP4 POP POP POP POP JUMP JUMPDEST PUSH32 0x5265656E7472616E637947756172643A207265656E7472616E742063616C6C00 PUSH0 DUP3 ADD MSTORE POP JUMP JUMPDEST PUSH0 PUSH2 0x1091 PUSH1 0x1F DUP4 PUSH2 0xDC9 JUMP JUMPDEST SWAP2 POP PUSH2 0x109C DUP3 PUSH2 0x105D JUMP JUMPDEST PUSH1 0x20 DUP3 ADD SWAP1 POP SWAP2 SWAP1 POP JUMP JUMPDEST PUSH0 PUSH1 0x20 DUP3 ADD SWAP1 POP DUP2 DUP2 SUB PUSH0 DUP4 ADD MSTORE PUSH2 0x10BE DUP2 PUSH2 0x1085 JUMP JUMPDEST SWAP1 POP SWAP2 SWAP1 POP JUMP INVALID LOG2 PUSH5 0x6970667358 0x22 SLT KECCAK256 SWAP11 0xE7 CREATE2 PUSH6 0x968350586E83 CODESIZE 0xBA 0xCF 0xAF PUSH13 0x7B3C7D8D39E355C25440915C0D GASPRICE SWAP13 0x29 0xBB PUSH5 0x736F6C6343 STOP ADDMOD BYTE STOP CALLER "
				},
				"gasEstimates": {
					"creation": {
						"codeDepositCost": "869400",
						"executionCost": "infinite",
						"totalCost": "infinite"
					},
					"external": {
						"createLoan(uint256,uint256)": "infinite",
						"getInvestorLoans(address)": "infinite",
						"getLoanDetails(uint256)": "infinite",
						"investorLoans(address,uint256)": "infinite",
						"loanIdCounter()": "2447",
						"loans(uint256)": "infinite",
						"owner()": "2575",
						"repayLoan(uint256,uint256)": "infinite",
						"token()": "infinite"
					}
				},
				"methodIdentifiers": {
					"createLoan(uint256,uint256)": "98cd90b5",
					"getInvestorLoans(address)": "a65d8086",
					"getLoanDetails(uint256)": "66877b8d",
					"investorLoans(address,uint256)": "654cb04e",
					"loanIdCounter()": "9d939d16",
					"loans(uint256)": "e1ec3c68",
					"owner()": "8da5cb5b",
					"repayLoan(uint256,uint256)": "8a700b53",
					"token()": "fc0c546a"
				}
			},
			"storageLayout": {
				"storage": [
					{
						"astId": 10,
						"contract": "contracts/antugrowtransfer.sol:AntugrowEscrow",
						"label": "_status",
						"offset": 0,
						"slot": "0",
						"type": "t_uint256"
					},
					{
						"astId": 162,
						"contract": "contracts/antugrowtransfer.sol:AntugrowEscrow",
						"label": "token",
						"offset": 0,
						"slot": "1",
						"type": "t_contract(IERC20)142"
					},
					{
						"astId": 164,
						"contract": "contracts/antugrowtransfer.sol:AntugrowEscrow",
						"label": "owner",
						"offset": 0,
						"slot": "2",
						"type": "t_address"
					},
					{
						"astId": 166,
						"contract": "contracts/antugrowtransfer.sol:AntugrowEscrow",
						"label": "loanIdCounter",
						"offset": 0,
						"slot": "3",
						"type": "t_uint256"
					},
					{
						"astId": 171,
						"contract": "contracts/antugrowtransfer.sol:AntugrowEscrow",
						"label": "loans",
						"offset": 0,
						"slot": "4",
						"type": "t_mapping(t_uint256,t_struct(Loan)159_storage)"
					},
					{
						"astId": 176,
						"contract": "contracts/antugrowtransfer.sol:AntugrowEscrow",
						"label": "investorLoans",
						"offset": 0,
						"slot": "5",
						"type": "t_mapping(t_address,t_array(t_uint256)dyn_storage)"
					}
				],
				"types": {
					"t_address": {
						"encoding": "inplace",
						"label": "address",
						"numberOfBytes": "20"
					},
					"t_array(t_uint256)dyn_storage": {
						"base": "t_uint256",
						"encoding": "dynamic_array",
						"label": "uint256[]",
						"numberOfBytes": "32"
					},
					"t_bool": {
						"encoding": "inplace",
						"label": "bool",
						"numberOfBytes": "1"
					},
					"t_contract(IERC20)142": {
						"encoding": "inplace",
						"label": "contract IERC20",
						"numberOfBytes": "20"
					},
					"t_mapping(t_address,t_array(t_uint256)dyn_storage)": {
						"encoding": "mapping",
						"key": "t_address",
						"label": "mapping(address => uint256[])",
						"numberOfBytes": "32",
						"value": "t_array(t_uint256)dyn_storage"
					},
					"t_mapping(t_uint256,t_struct(Loan)159_storage)": {
						"encoding": "mapping",
						"key": "t_uint256",
						"label": "mapping(uint256 => struct AntugrowEscrow.Loan)",
						"numberOfBytes": "32",
						"value": "t_struct(Loan)159_storage"
					},
					"t_struct(Loan)159_storage": {
						"encoding": "inplace",
						"label": "struct AntugrowEscrow.Loan",
						"members": [
							{
								"astId": 150,
								"contract": "contracts/antugrowtransfer.sol:AntugrowEscrow",
								"label": "investor",
								"offset": 0,
								"slot": "0",
								"type": "t_address"
							},
							{
								"astId": 152,
								"contract": "contracts/antugrowtransfer.sol:AntugrowEscrow",
								"label": "amount",
								"offset": 0,
								"slot": "1",
								"type": "t_uint256"
							},
							{
								"astId": 154,
								"contract": "contracts/antugrowtransfer.sol:AntugrowEscrow",
								"label": "repaidAmount",
								"offset": 0,
								"slot": "2",
								"type": "t_uint256"
							},
							{
								"astId": 156,
								"contract": "contracts/antugrowtransfer.sol:AntugrowEscrow",
								"label": "dueDate",
								"offset": 0,
								"slot": "3",
								"type": "t_uint256"
							},
							{
								"astId": 158,
								"contract": "contracts/antugrowtransfer.sol:AntugrowEscrow",
								"label": "isActive",
								"offset": 0,
								"slot": "4",
								"type": "t_bool"
							}
						],
						"numberOfBytes": "160"
					},
					"t_uint256": {
						"encoding": "inplace",
						"label": "uint256",
						"numberOfBytes": "32"
					}
				}
			},
			"userdoc": {
				"kind": "user",
				"methods": {},
				"version": 1
			}
		}
	}
}